:02000000FEFE02
:02000200FEFE00
:02000400FEFEFE
:02000600FEFEFC
:02000800FEFEFA
:02000A00FEFEF8
:02000C00FEFEF6
:02000E00FEFEF4
:02001000FEFEF2
:02001200FEFEF0
:02001400FEFEEE
:02001600FEFEEC
:02001800FEFEEA
:02001A00FEFEE8
:02001C00FEFEE6
:02001E00FEFEE4
:02002000FEFEE2
:02002200FEFEE0
:02002400FEFEDE
:02002600FEFEDC
:02002800FEFEDA
:02002A00FEFED8
:02002C00FEFED6
:02002E00FEFED4
:02003000FEFED2
:02003200FEFED0
:02003400FEFECE
:02003600FEFECC
:02003800FEFECA
:02003A00FEFEC8
:02003C00FEFEC6
:02003E00FEFEC4
:02004000FEFEC2
:02004200FEFEC0
:02004400FEFEBE
:02004600FEFEBC
:02004800FEFEBA
:02004A00FEFEB8
:02004C00FEFEB6
:02004E00FEFEB4
:02005000FEFEB2
:02005200FEFEB0
:02005400FEFEAE
:02005600FEFEAC
:02005800FEFEAA
:02005A00FEFEA8
:02005C00FEFEA6
:02005E00FEFEA4
:02006000FEFEA2
:02006200FEFEA0
:02006400FEFE9E
:02006600FEFE9C
:02006800FEFE9A
:02006A00FEFE98
:02006C00FEFE96
:02006E00FEFE94
:02007000FEFE92
:02007200FEFE90
:02007400FEFE8E
:02007600FEFE8C
:02007800FEFE8A
:02007A00FEFE88
:02007C00FEFE86
:02007E00FEFE84
:02008000FEFE82
:02008200FEFE80
:02008400FEFE7E
:02008600FEFE7C
:02008800FEFE7A
:02008A00FEFE78
:02008C00FEFE76
:02008E00FEFE74
:02009000FEFE72
:02009200FEFE70
:02009400FEFE6E
:02009600FEFE6C
:02009800FEFE6A
:02009A00FEFE68
:02009C00FEFE66
:02009E00FEFE64
:0200A000E9FE77
:0200A200FEFE60
:0200A400FEFE5E
:0200A600FEFE5C
:0200A800FEFE5A
:0200AA00FEFE58
:0200AC00FEFE56
:0200AE00FEFE54
:0200B000FEFE52
:0200B200FEFE50
:0200B400FEFE4E
:0200B600FEFE4C
:0200B800FEFE4A
:0200BA00FEFE48
:0200BC00FEFE46
:0200BE00FEFE44
:0200C000FEFE42
:0200C200FEFE40
:0200C400FEFE3E
:0200C600FEFE3C
:0200C800FEFE3A
:0200CA00FEFE38
:0200CC00FEFE36
:0200CE00FEFE34
:0200D000FEFE32
:0200D200FEFE30
:0200D400FEFE2E
:0200D600FEFE2C
:0200D800FEFE2A
:0200DA00FEFE28
:0200DC00FEFE26
:0200DE00FEFE24
:0200E000FEFE22
:0200E200FEFE20
:0200E400FEFE1E
:0200E600FEFE1C
:0200E800FEFE1A
:0200EA00FEFE18
:0200EC00FEFE16
:0200EE00FEFE14
:0200F000FEFE12
:0200F200FEFE10
:0200F400FEFE0E
:0200F600FEFE0C
:0200F800FEFE0A
:0200FA00FEFE08
:0200FC00FEFE06
:0200FE00FEFE04
:02010000FEFE01
:02010200FEFEFF
:02010400FEFEFD
:02010600FEFEFB
:02010800FEFEF9
:02010A00FEFEF7
:02010C00FEFEF5
:02010E00FEFEF3
:02011000FEFEF1
:02011200FEFEEF
:02011400FEFEED
:02011600FEFEEB
:02011800FEFEE9
:02011A00FEFEE7
:02011C00FEFEE5
:02011E00FEFEE3
:02012000FEFEE1
:02012200FEFEDF
:02012400FEFEDD
:02012600FEFEDB
:02012800FEFED9
:02012A00FEFED7
:02012C00FEFED5
:02012E00FEFED3
:02013000FEFED1
:02013200FEFECF
:02013400FEFECD
:02013600FEFECB
:02013800FEFEC9
:02013A00FEFEC7
:02013C00FEFEC5
:02013E00FEFEC3
:02014000FEFEC1
:02014200A2AF6A
:02014400AFBB4F
:02014600BAAF4E
:02014800AFFE08
:02014A00FEFEB7
:02014C00FEFEB5
:02014E00FEFEB3
:02015000FEFEB1
:02015200FEFEAF
:02015400FEFEAD
:02015600FEFEAB
:02015800FEFEA9
:02015A00FEFEA7
:02015C00FEFEA5
:02015E00FEFEA3
:02016000FEFEA1
:02016200FEFE9F
:02016400FEFE9D
:02016600FEFE9B
:02016800FEFE99
:02016A00FEFE97
:02016C00FEFE95
:02016E00FEFE93
:02017000FEFE91
:02017200FEFE8F
:02017400FEFE8D
:02017600FEFE8B
:02017800FEFE89
:02017A00FEFE87
:02017C00FEFE85
:02017E00FEFE83
:02018000FEFE81
:02018200FEFE7F
:02018400FEFE7D
:02018600FEFE7B
:02018800FEFE79
:02018A00FEFE77
:02018C00FEFE75
:02018E00FEFE73
:02019000FEFE71
:02019200FEFE6F
:02019400FEFE6D
:02019600FEFE6B
:02019800FEFE69
:02019A00FEFE67
:02019C00FEFE65
:02019E00FEFE63
:0201A000FEFE61
:0201A200FEFE5F
:0201A400FEFE5D
:0201A600FEFE5B
:0201A800FEFE59
:0201AA00FEFE57
:0201AC00FEFE55
:0201AE00FEFE53
:0201B000FEFE51
:0201B200FEFE4F
:0201B400FEFE4D
:0201B600FEFE4B
:0201B800FEFE49
:0201BA00FEFE47
:0201BC00FEFE45
:0201BE00FEFE43
:0201C000FEFE41
:0201C200FEFE3F
:0201C400FEFE3D
:0201C600FEFE3B
:0201C800FEFE39
:0201CA00FEFE37
:0201CC00FEFE35
:0201CE00FEFE33
:0201D000FEFE31
:0201D200FEFE2F
:0201D400FEFE2D
:0201D600FEFE2B
:0201D800FEFE29
:0201DA00FEFE27
:0201DC00FEFE25
:0201DE00FEFE23
:0201E000FEFE21
:0201E200FEFE1F
:0201E400FEAF6C
:0201E600AFBBAD
:0201E800AFA1C5
:0201EA00BBA1B7
:0201EC00C2A1AE
:0201EE00C2A1AC
:0201F000BBA1B1
:0201F200BBA1AF
:0201F400AFF367
:0201F600FEFE0B
:0201F800FEFE09
:0201FA00FEFE07
:0201FC00FEFE05
:0201FE00FEFE03
:02020000FEFE00
:02020200FEFEFE
:02020400FEFEFC
:02020600FEFEFA
:02020800FEFEF8
:02020A00FEFEF6
:02020C00FEFEF4
:02020E00FEFEF2
:02021000FEFEF0
:02021200FEFEEE
:02021400FEFEEC
:02021600FEFEEA
:02021800FEFEE8
:02021A00FEFEE6
:02021C00FEFEE4
:02021E00FEFEE2
:02022000FEFEE0
:02022200FEFEDE
:02022400FEFEDC
:02022600FEFEDA
:02022800FEFED8
:02022A00FEFED6
:02022C00FEFED4
:02022E00FEFED2
:02023000FEFED0
:02023200FEFECE
:02023400FEFECC
:02023600FEFECA
:02023800FEFEC8
:02023A00FEFEC6
:02023C00FEFEC4
:02023E00FEFEC2
:02024000FEFEC0
:02024200FEFEBE
:02024400FEFEBC
:02024600FEFEBA
:02024800FEFEB8
:02024A00FEFEB6
:02024C00FEFEB4
:02024E00FEFEB2
:02025000FEFEB0
:02025200FEFEAE
:02025400FEFEAC
:02025600FEFEAA
:02025800FEFEA8
:02025A00FEFEA6
:02025C00FEFEA4
:02025E00FEFEA2
:02026000FEFEA0
:02026200FEFE9E
:02026400FEFE9C
:02026600FEFE9A
:02026800FEFE98
:02026A00FEFE96
:02026C00FEFE94
:02026E00FEFE92
:02027000FEFE90
:02027200FEFE8E
:02027400FEFE8C
:02027600FEFE8A
:02027800FEFE88
:02027A00FEFE86
:02027C00FEFE84
:02027E00FEFE82
:02028000FEFE80
:02028200FEFE7E
:02028400FEFE7C
:02028600A2AF25
:02028800AFB015
:02028A00A1AF22
:02028C00A1BB14
:02028E00A1BA13
:02029000A1C209
:02029200AFAF0C
:02029400BABAF4
:02029600BAAEFE
:02029800AFBAFB
:02029A00BABAEE
:02029C00BAF3B3
:02029E00FEFE62
:0202A000FEFE60
:0202A200FEFE5E
:0202A400FEFE5C
:0202A600FEFE5A
:0202A800FEFE58
:0202AA00FEFE56
:0202AC00FEFE54
:0202AE00FEFE52
:0202B000FEFE50
:0202B200FEFE4E
:0202B400FEFE4C
:0202B600FEFE4A
:0202B800FEFE48
:0202BA00FEFE46
:0202BC00FEFE44
:0202BE00FEFE42
:0202C000FEFE40
:0202C200FEFE3E
:0202C400FEFE3C
:0202C600FEFE3A
:0202C800FEFE38
:0202CA00FEFE36
:0202CC00FEFE34
:0202CE00FEFE32
:0202D000FEFE30
:0202D200FEFE2E
:0202D400FEFE2C
:0202D600FEFE2A
:0202D800FEFE28
:0202DA00FEFE26
:0202DC00FEFE24
:0202DE00FEFE22
:0202E000FEFE20
:0202E200FEFE1E
:0202E400FEFE1C
:0202E600FEFE1A
:0202E800FEFE18
:0202EA00FEFE16
:0202EC00FEFE14
:0202EE00FEFE12
:0202F000FEFE10
:0202F200FEFE0E
:0202F400FEFE0C
:0202F600FEFE0A
:0202F800FEFE08
:0202FA00FEFE06
:0202FC00FEFE04
:0202FE00FEFE02
:02030000FEFEFF
:02030200FEFEFD
:02030400FEFEFB
:02030600FEFEF9
:02030800FEFEF7
:02030A00FEFEF5
:02030C00FEFEF3
:02030E00FEFEF1
:02031000FEFEEF
:02031200FEFEED
:02031400FEFEEB
:02031600FEFEE9
:02031800FEFEE7
:02031A00FEFEE5
:02031C00FEFEE3
:02031E00FEFEE1
:02032000FEFEDF
:02032200FEFEDD
:02032400FEFEDB
:02032600FEFED9
:02032800FEFED7
:02032A00FEA132
:02032C00AFA27E
:02032E00BBAF63
:02033000A2BB6E
:02033200A1BB6D
:02033400AFBA5E
:02033600A1C262
:02033800BABA4F
:02033A00A1BB65
:02033C00A1C25C
:02033E00A1C25A
:02034000BAA160
:02034200BAA15E
:02034400BAA15C
:02034600FEFEB9
:02034800FEFEB7
:02034A00FEFEB5
:02034C00FEFEB3
:02034E00FEFEB1
:02035000FEFEAF
:02035200FEFEAD
:02035400FEFEAB
:02035600FEFEA9
:02035800FEFEA7
:02035A00FEFEA5
:02035C00FEFEA3
:02035E00FEFEA1
:02036000FEFE9F
:02036200FEFE9D
:02036400FEFE9B
:02036600FEFE99
:02036800FEFE97
:02036A00FEFE95
:02036C00FEFE93
:02036E00FEFE91
:02037000FEFE8F
:02037200FEFE8D
:02037400FEFE8B
:02037600FEFE89
:02037800FEFE87
:02037A00FEFE85
:02037C00FEFE83
:02037E00FEFE81
:02038000FEFE7F
:02038200FEFE7D
:02038400FEFE7B
:02038600FEFE79
:02038800FEFE77
:02038A00FEFE75
:02038C00FEFE73
:02038E00FEFE71
:02039000FEFE6F
:02039200FEFE6D
:02039400FEFE6B
:02039600FEFE69
:02039800FEFE67
:02039A00FEFE65
:02039C00FEFE63
:02039E00FEFE61
:0203A000FEFE5F
:0203A200FEFE5D
:0203A400FEFE5B
:0203A600FEFE59
:0203A800FEFE57
:0203AA00FEFE55
:0203AC00FEFE53
:0203AE00FEFE51
:0203B000FEFE4F
:0203B200FEFE4D
:0203B400FEFE4B
:0203B600FEFE49
:0203B800FEFE47
:0203BA00FEFE45
:0203BC00FEFE43
:0203BE00FEFE41
:0203C000FEFE3F
:0203C200FEFE3D
:0203C400FEFE3B
:0203C600FEFE39
:0203C800FEFE37
:0203CA00FEFE35
:0203CC00FEFE33
:0203CE00FEBA75
:0203D000BABAB7
:0203D200C2AFB8
:0203D400AFAFC9
:0203D600A1BBC9
:0203D800A1C2C0
:0203DA00BBBBAB
:0203DC00A1BAC4
:0203DE00BABAA9
:0203E000BAA1C0
:0203E200AFB5B5
:0203E400BAC29B
:0203E600BABAA1
:0203E800BABA9F
:0203EA00BAB5A2
:0203EC00BAAEA7
:0203EE00B9FE56
:0203F000FEFE0F
:0203F200FEFE0D
:0203F400FEFE0B
:0203F600FEFE09
:0203F800FEFE07
:0203FA00FEFE05
:0203FC00FEFE03
:0203FE00FEFE01
:02040000FEFEFE
:02040200FEFEFC
:02040400FEFEFA
:02040600FEFEF8
:02040800FEFEF6
:02040A00FEFEF4
:02040C00FEFEF2
:02040E00FEFEF0
:02041000FEFEEE
:02041200FEFEEC
:02041400FEFEEA
:02041600FEFEE8
:02041800FEFEE6
:02041A00FEFEE4
:02041C00FEFEE2
:02041E00FEFEE0
:02042000FEFEDE
:02042200FEFEDC
:02042400FEFEDA
:02042600FEFED8
:02042800FEFED6
:02042A00FEFED4
:02042C00FEFED2
:02042E00FEFED0
:02043000FEFECE
:02043200FEFECC
:02043400FEFECA
:02043600FEFEC8
:02043800FEFEC6
:02043A00FEFEC4
:02043C00FEFEC2
:02043E00FEFEC0
:02044000FEFEBE
:02044200FEFEBC
:02044400FEFEBA
:02044600FEFEB8
:02044800FEFEB6
:02044A00FEFEB4
:02044C00FEFEB2
:02044E00FEFEB0
:02045000FEFEAE
:02045200FEFEAC
:02045400FEFEAA
:02045600FEFEA8
:02045800FEFEA6
:02045A00FEFEA4
:02045C00FEFEA2
:02045E00FEFEA0
:02046000FEFE9E
:02046200FEFE9C
:02046400FEFE9A
:02046600FEFE98
:02046800FEFE96
:02046A00FEFE94
:02046C00FEFE92
:02046E00FEFE90
:02047000FEFE8E
:02047200AEBA20
:02047400A1C223
:02047600BAA129
:02047800C2BA06
:02047A00A1BB24
:02047C00A1BB22
:02047E00AFBA13
:02048000AFBA11
:02048200A1C215
:02048400A1C213
:02048600BAA119
:02048800C2BAF6
:02048A00C2BAF4
:02048C00A1C20B
:02048E00A0C20A
:02049000A1C207
:02049200AEAE0C
:02049400A1BA0B
:02049600A3FEC3
:02049800FEFE66
:02049A00FEFE64
:02049C00FEFE62
:02049E00FEFE60
:0204A000FEFE5E
:0204A200FEFE5C
:0204A400FEFE5A
:0204A600FEFE58
:0204A800FEFE56
:0204AA00FEFE54
:0204AC00FEFE52
:0204AE00FEFE50
:0204B000FEFE4E
:0204B200FEFE4C
:0204B400FEFE4A
:0204B600FEFE48
:0204B800FEFE46
:0204BA00FEFE44
:0204BC00FEFE42
:0204BE00FEFE40
:0204C000FEFE3E
:0204C200FEFE3C
:0204C400FEFE3A
:0204C600FEFE38
:0204C800FEFE36
:0204CA00FEFE34
:0204CC00FEFE32
:0204CE00FEFE30
:0204D000FEFE2E
:0204D200FEFE2C
:0204D400FEFE2A
:0204D600FEFE28
:0204D800FEFE26
:0204DA00FEFE24
:0204DC00FEFE22
:0204DE00FEFE20
:0204E000FEFE1E
:0204E200FEFE1C
:0204E400FEFE1A
:0204E600FEFE18
:0204E800FEFE16
:0204EA00FEFE14
:0204EC00FEFE12
:0204EE00FEFE10
:0204F000FEFE0E
:0204F200FEFE0C
:0204F400FEFE0A
:0204F600FEFE08
:0204F800FEFE06
:0204FA00FEFE04
:0204FC00FEFE02
:0204FE00FEFE00
:02050000FEFEFD
:02050200FEFEFB
:02050400FEFEF9
:02050600FEFEF7
:02050800FEFEF5
:02050A00FEFEF3
:02050C00FEFEF1
:02050E00FEFEEF
:02051000FEFEED
:02051200FEFEEB
:02051400FEFEE9
:02051600F3BA36
:02051800AEBA79
:02051A00AEBA77
:02051C00AEAE81
:02051E00BABB66
:02052000A1BA7E
:02052200BABA63
:02052400C2BB58
:02052600A1BA78
:02052800C2A16E
:02052A00BABA5B
:02052C00BBAE64
:02052E00BAAE63
:02053000BABA55
:02053200A1AE78
:02053400BAC249
:02053600BABA4F
:02053800AEC251
:02053A00A1B569
:02053C00BAAE55
:02053E00C1FEFC
:02054000FEFEBD
:02054200FEFEBB
:02054400FEFEB9
:02054600FEFEB7
:02054800FEFEB5
:02054A00FEFEB3
:02054C00FEFEB1
:02054E00FEFEAF
:02055000FEFEAD
:02055200FEFEAB
:02055400FEFEA9
:02055600FEFEA7
:02055800FEFEA5
:02055A00FEFEA3
:02055C00FEFEA1
:02055E00FEFE9F
:02056000FEFE9D
:02056200FEFE9B
:02056400FEFE99
:02056600FEFE97
:02056800FEFE95
:02056A00FEFE93
:02056C00FEFE91
:02056E00FEFE8F
:02057000FEFE8D
:02057200FEFE8B
:02057400FEFE89
:02057600FEFE87
:02057800FEFE85
:02057A00FEFE83
:02057C00FEFE81
:02057E00FEFE7F
:02058000FEFE7D
:02058200FEFE7B
:02058400FEFE79
:02058600FEFE77
:02058800FEFE75
:02058A00FEFE73
:02058C00FEFE71
:02058E00FEFE6F
:02059000FEFE6D
:02059200FEFE6B
:02059400FEFE69
:02059600FEFE67
:02059800FEFE65
:02059A00FEFE63
:02059C00FEFE61
:02059E00FEFE5F
:0205A000FEFE5D
:0205A200FEFE5B
:0205A400FEFE59
:0205A600FEFE57
:0205A800FEFE55
:0205AA00FEFE53
:0205AC00FEFE51
:0205AE00FEFE4F
:0205B000FEFE4D
:0205B200FEFE4B
:0205B400FEFE49
:0205B600FEFE47
:0205B800FEFE45
:0205BA00E9FE58
:0205BC00AEBAD5
:0205BE00AEBAD3
:0205C00095BAEA
:0205C200AEAEDB
:0205C400BABAC1
:0205C600BAAECB
:0205C800C2AEC1
:0205CA00BAA1D4
:0205CC00BAA1D2
:0205CE00C2BAAF
:0205D000BAA1CE
:0205D200C2BAAB
:0205D400A1B5CF
:0205D600BAA0C9
:0205D800C2AEB1
:0205DA00C2BAA3
:0205DC00BAA0C3
:0205DE00C2A1B8
:0205E000B5BAAA
:0205E200AEAEBB
:0205E400AEA1C6
:0205E600BAFE5B
:0205E800FEFE15
:0205EA00FEFE13
:0205EC00FEFE11
:0205EE00FEFE0F
:0205F000FEFE0D
:0205F200FEFE0B
:0205F400FEFE09
:0205F600FEFE07
:0205F800FEFE05
:0205FA00FEFE03
:0205FC00FEFE01
:0205FE00FEFEFF
:02060000FEFEFC
:02060200FEFEFA
:02060400FEFEF8
:02060600FEFEF6
:02060800FEFEF4
:02060A00FEFEF2
:02060C00FEFEF0
:02060E00FEFEEE
:02061000FEFEEC
:02061200FEFEEA
:02061400FEFEE8
:02061600FEFEE6
:02061800FEFEE4
:02061A00FEFEE2
:02061C00FEFEE0
:02061E00FEFEDE
:02062000FEFEDC
:02062200FEFEDA
:02062400FEFED8
:02062600FEFED6
:02062800FEFED4
:02062A00FEFED2
:02062C00FEFED0
:02062E00FEFECE
:02063000FEFECC
:02063200FEFECA
:02063400FEFEC8
:02063600FEFEC6
:02063800FEFEC4
:02063A00FEFEC2
:02063C00FEFEC0
:02063E00FEFEBE
:02064000FEFEBC
:02064200FEFEBA
:02064400FEFEB8
:02064600FEFEB6
:02064800FEFEB4
:02064A00FEFEB2
:02064C00FEFEB0
:02064E00FEFEAE
:02065000FEFEAC
:02065200FEFEAA
:02065400FEFEA8
:02065600FEFEA6
:02065800FEFEA4
:02065A00FEFEA2
:02065C00FEFEA0
:02065E00FEFE9E
:02066000FEC2D8
:02066200BAC21A
:02066400BABA20
:02066600AEAE36
:02066800BAB521
:02066A00AEAE32
:02066C00C2A02A
:02066E00BAC20E
:02067000A1B532
:02067200C2BA0A
:02067400BABA10
:02067600C2A11F
:02067800BABA0C
:02067A00AEAE22
:02067C00C2AE0C
:02067E00AEBA12
:02068000AEB515
:02068200C2A113
:02068400BAAE0C
:02068600AEB50F
:02068800C2BAF4
:02068A00AEAE12
:02068C00AEBA04
:02068E00C1FEAB
:02069000FEFE6C
:02069200FEFE6A
:02069400FEFE68
:02069600FEFE66
:02069800FEFE64
:02069A00FEFE62
:02069C00FEFE60
:02069E00FEFE5E
:0206A000FEFE5C
:0206A200FEFE5A
:0206A400FEFE58
:0206A600FEFE56
:0206A800FEFE54
:0206AA00FEFE52
:0206AC00FEFE50
:0206AE00FEFE4E
:0206B000FEFE4C
:0206B200FEFE4A
:0206B400FEFE48
:0206B600FEFE46
:0206B800FEFE44
:0206BA00FEFE42
:0206BC00FEFE40
:0206BE00FEFE3E
:0206C000FEFE3C
:0206C200FEFE3A
:0206C400FEFE38
:0206C600FEFE36
:0206C800FEFE34
:0206CA00FEFE32
:0206CC00FEFE30
:0206CE00FEFE2E
:0206D000FEFE2C
:0206D200FEFE2A
:0206D400FEFE28
:0206D600FEFE26
:0206D800FEFE24
:0206DA00FEFE22
:0206DC00FEFE20
:0206DE00FEFE1E
:0206E000FEFE1C
:0206E200FEFE1A
:0206E400FEFE18
:0206E600FEFE16
:0206E800FEFE14
:0206EA00FEFE12
:0206EC00FEFE10
:0206EE00FEFE0E
:0206F000FEFE0C
:0206F200FEFE0A
:0206F400FEFE08
:0206F600FEFE06
:0206F800FEFE04
:0206FA00FEFE02
:0206FC00FEFE00
:0206FE00FEFEFE
:02070000FEFEFB
:02070200FEFEF9
:02070400FEFEF7
:02070600BAC275
:02070800BABA7B
:02070A00A1C28A
:02070C00A1C288
:02070E00AEBA81
:02071000AEAE8B
:02071200AEAE89
:02071400C2AE73
:02071600BAAE79
:02071800BAAE77
:02071A00BAA083
:02071C00C2AE6B
:02071E00C2AE69
:02072000BAAE6F
:02072200C2AE65
:02072400BAA178
:02072600C2AE61
:02072800AEBA67
:02072A00A1C26A
:02072C00AEAE6F
:02072E00BAAE61
:02073000BAA06D
:02073200AEAE69
:02073400AEAE67
:02073600A1FE22
:02073800FEFEC3
:02073A00FEFEC1
:02073C00FEFEBF
:02073E00FEFEBD
:02074000FEFEBB
:02074200FEFEB9
:02074400FEFEB7
:02074600FEFEB5
:02074800FEFEB3
:02074A00FEFEB1
:02074C00FEFEAF
:02074E00FEFEAD
:02075000FEFEAB
:02075200FEFEA9
:02075400FEFEA7
:02075600FEFEA5
:02075800FEFEA3
:02075A00FEFEA1
:02075C00FEFE9F
:02075E00FEFE9D
:02076000FEFE9B
:02076200FEFE99
:02076400FEFE97
:02076600FEFE95
:02076800FEFE93
:02076A00FEFE91
:02076C00FEFE8F
:02076E00FEFE8D
:02077000FEFE8B
:02077200FEFE89
:02077400FEFE87
:02077600FEFE85
:02077800FEFE83
:02077A00FEFE81
:02077C00FEFE7F
:02077E00FEFE7D
:02078000FEFE7B
:02078200FEFE79
:02078400FEFE77
:02078600FEFE75
:02078800FEFE73
:02078A00FEFE71
:02078C00FEFE6F
:02078E00FEFE6D
:02079000FEFE6B
:02079200FEFE69
:02079400FEFE67
:02079600FEFE65
:02079800FEFE63
:02079A00FEFE61
:02079C00FEFE5F
:02079E00FEFE5D
:0207A000FEFE5B
:0207A200FEFE59
:0207A400FEFE57
:0207A600FEFE55
:0207A800FEFE53
:0207AA00FEBB94
:0207AC00A1BBEF
:0207AE00A1C2E6
:0207B000A1BAEC
:0207B200BABAD1
:0207B400AEBADB
:0207B600BAAED9
:0207B800BAAED7
:0207BA00BAAED5
:0207BC00AEAEDF
:0207BE00BAAED1
:0207C000AEC2C7
:0207C200BAAECD
:0207C400AEC2C3
:0207C600A1AEE2
:0207C800C2C2AB
:0207CA00A1BAD2
:0207CC00AEAECF
:0207CE00B5AEC6
:0207D000BAAEBF
:0207D200BAB5B6
:0207D400BAAEBB
:0207D600AEAEC5
:0207D800AEBAB7
:0207DA00AEAEC1
:0207DC00B5AEB8
:0207DE00C1FE5A
:0207E000FEFE1B
:0207E200FEFE19
:0207E400FEFE17
:0207E600FEFE15
:0207E800FEFE13
:0207EA00FEFE11
:0207EC00FEFE0F
:0207EE00FEFE0D
:0207F000FEFE0B
:0207F200FEFE09
:0207F400FEFE07
:0207F600FEFE05
:0207F800FEFE03
:0207FA00FEFE01
:0207FC00FEFEFF
:0207FE00FEFEFD
:02080000FEFEFA
:02080200FEFEF8
:02080400FEFEF6
:02080600FEFEF4
:02080800FEFEF2
:02080A00FEFEF0
:02080C00FEFEEE
:02080E00FEFEEC
:02081000FEFEEA
:02081200FEFEE8
:02081400FEFEE6
:02081600FEFEE4
:02081800FEFEE2
:02081A00FEFEE0
:02081C00FEFEDE
:02081E00FEFEDC
:02082000FEFEDA
:02082200FEFED8
:02082400FEFED6
:02082600FEFED4
:02082800FEFED2
:02082A00FEFED0
:02082C00FEFECE
:02082E00FEFECC
:02083000FEFECA
:02083200FEFEC8
:02083400FEFEC6
:02083600FEFEC4
:02083800FEFEC2
:02083A00FEFEC0
:02083C00FEFEBE
:02083E00FEFEBC
:02084000FEFEBA
:02084200FEFEB8
:02084400FEFEB6
:02084600FEFEB4
:02084800FEFEB2
:02084A00FEFEB0
:02084C00FEFEAE
:02084E00FEFEAC
:02085000FEAEFA
:02085200BAA149
:02085400C2BA26
:02085600BABA2C
:02085800BABA2A
:02085A00AEA14D
:02085C00BABA26
:02085E00AEBA30
:02086000AEAE3A
:02086200AEAE38
:02086400AEAE36
:02086600BAB521
:02086800AEBA26
:02086A00A0C22A
:02086C00AEBA22
:02086E00B5BA19
:02087000BAA12B
:02087200B5AE21
:02087400AEBA1A
:02087600AEBA18
:02087800A0C21C
:02087A00AEAE20
:02087C00A1C217
:02087E00AEBA10
:02088000AEAE1A
:02088200AEAE18
:02088400AEAE16
:02088600A1FED1
:02088800FEFE72
:02088A00FEFE70
:02088C00FEFE6E
:02088E00FEFE6C
:02089000FEFE6A
:02089200FEFE68
:02089400FEFE66
:02089600FEFE64
:02089800FEFE62
:02089A00FEFE60
:02089C00FEFE5E
:02089E00FEFE5C
:0208A000FEFE5A
:0208A200FEFE58
:0208A400FEFE56
:0208A600FEFE54
:0208A800FEFE52
:0208AA00FEFE50
:0208AC00FEFE4E
:0208AE00FEFE4C
:0208B000FEFE4A
:0208B200FEFE48
:0208B400FEFE46
:0208B600FEFE44
:0208B800FEFE42
:0208BA00FEFE40
:0208BC00FEFE3E
:0208BE00FEFE3C
:0208C000FEFE3A
:0208C200FEFE38
:0208C400FEFE36
:0208C600FEFE34
:0208C800FEFE32
:0208CA00FEFE30
:0208CC00FEFE2E
:0208CE00FEFE2C
:0208D000FEFE2A
:0208D200FEFE28
:0208D400FEFE26
:0208D600FEFE24
:0208D800FEFE22
:0208DA00FEFE20
:0208DC00FEFE1E
:0208DE00FEFE1C
:0208E000FEFE1A
:0208E200FEFE18
:0208E400FEFE16
:0208E600FEFE14
:0208E800FEFE12
:0208EA00FEFE10
:0208EC00FEFE0E
:0208EE00FEFE0C
:0208F000FEFE0A
:0208F200FEFE08
:0208F400FEE91B
:0208F600BABA8C
:0208F800AEC28E
:0208FA00BABA88
:0208FC00BAC27E
:0208FE00A1BA9D
:02090000A0BA9B
:02090200AEBA8B
:02090400C2AE81
:02090600AEAE93
:02090800AEAE91
:02090A00BAB57C
:02090C00AEAE8D
:02090E00C2A085
:02091000BAAE7D
:02091200BABA6F
:02091400AEC271
:02091600A1AE90
:02091800AEAE81
:02091A00BAAE73
:02091C00AEAE7D
:02091E00AEAE7B
:02092000AEAE79
:02092200BAAE6B
:02092400C2AE61
:02092600B5AE6C
:02092800AEAE71
:02092A00AEB568
:02092C00B5AE66
:02092E00C1FE08
:02093000FEFEC9
:02093200FEFEC7
:02093400FEFEC5
:02093600FEFEC3
:02093800FEFEC1
:02093A00FEFEBF
:02093C00FEFEBD
:02093E00FEFEBB
:02094000FEFEB9
:02094200FEFEB7
:02094400FEFEB5
:02094600FEFEB3
:02094800FEFEB1
:02094A00FEFEAF
:02094C00FEFEAD
:02094E00FEFEAB
:02095000FEFEA9
:02095200FEFEA7
:02095400FEFEA5
:02095600FEFEA3
:02095800FEFEA1
:02095A00FEFE9F
:02095C00FEFE9D
:02095E00FEFE9B
:02096000FEFE99
:02096200FEFE97
:02096400FEFE95
:02096600FEFE93
:02096800FEFE91
:02096A00FEFE8F
:02096C00FEFE8D
:02096E00FEFE8B
:02097000FEFE89
:02097200FEFE87
:02097400FEFE85
:02097600FEFE83
:02097800FEFE81
:02097A00FEFE7F
:02097C00FEFE7D
:02097E00FEFE7B
:02098000FEFE79
:02098200FEFE77
:02098400FEFE75
:02098600FEFE73
:02098800FEFE71
:02098A00FEFE6F
:02098C00FEFE6D
:02098E00FEFE6B
:02099000FEFE69
:02099200FEFE67
:02099400FEFE65
:02099600FEFE63
:02099800FEFE61
:02099A00FEFE5F
:02099C00BBBAE4
:02099E00A1C2F4
:0209A000BAA0FB
:0209A200C2A1F0
:0209A400C2A0EF
:0209A600C2AEDF
:0209A800BAC2D1
:0209AA00AEBAE3
:0209AC00A0C2E7
:0209AE00AEB5E4
:0209B000AEAEE9
:0209B200B5AEE0
:0209B400AEAEE5
:0209B600C2AECF
:0209B800BAAED5
:0209BA00AEB5D8
:0209BC00AEAEDD
:0209BE00BAAECF
:0209C000BAAECD
:0209C200BAB5C4
:0209C400BAAEC9
:0209C600B5AECC
:0209C800AEAED1
:0209CA00AEAECF
:0209CC00AEA1DA
:0209CE00C2AEB7
:0209D000AEAEC9
:0209D200AEAEC7
:0209D400A0AED3
:0209D600AEF37E
:0209D800FEFE21
:0209DA00FEFE1F
:0209DC00FEFE1D
:0209DE00FEFE1B
:0209E000FEFE19
:0209E200FEFE17
:0209E400FEFE15
:0209E600FEFE13
:0209E800FEFE11
:0209EA00FEFE0F
:0209EC00FEFE0D
:0209EE00FEFE0B
:0209F000FEFE09
:0209F200FEFE07
:0209F400FEFE05
:0209F600FEFE03
:0209F800FEFE01
:0209FA00FEFEFF
:0209FC00FEFEFD
:0209FE00FEFEFB
:020A0000FEFEF8
:020A0200FEFEF6
:020A0400FEFEF4
:020A0600FEFEF2
:020A0800FEFEF0
:020A0A00FEFEEE
:020A0C00FEFEEC
:020A0E00FEFEEA
:020A1000FEFEE8
:020A1200FEFEE6
:020A1400FEFEE4
:020A1600FEFEE2
:020A1800FEFEE0
:020A1A00FEFEDE
:020A1C00FEFEDC
:020A1E00FEFEDA
:020A2000FEFED8
:020A2200FEFED6
:020A2400FEFED4
:020A2600FEFED2
:020A2800FEFED0
:020A2A00FEFECE
:020A2C00FEFECC
:020A2E00FEFECA
:020A3000FEFEC8
:020A3200FEFEC6
:020A3400FEFEC4
:020A3600FEFEC2
:020A3800FEFEC0
:020A3A00FEFEBE
:020A3C00FEFEBC
:020A3E00FEFEBA
:020A4000FEE9CD
:020A4200BBA156
:020A4400B5C239
:020A4600BAAE46
:020A4800AEBA44
:020A4A00AEBA42
:020A4C00AEBA40
:020A4E00AEAE4A
:020A5000C2A042
:020A5200BAAE3A
:020A5400BAAE38
:020A5600C2AE2E
:020A5800AEBA34
:020A5A00AEAE3E
:020A5C00BAAE30
:020A5E00AEAE3A
:020A6000AEAE38
:020A6200BAAE2A
:020A6400AEAE34
:020A6600AEB52B
:020A6800AEBA24
:020A6A00B5A035
:020A6C00AEAE2C
:020A6E00AEAE2A
:020A7000AEAE28
:020A7200B5C20B
:020A7400AEBA18
:020A7600B5AE1B
:020A7800AEAE20
:020A7A00B5AE17
:020A7C00AEAE1C
:020A7E00AEFECA
:020A8000FEFE78
:020A8200FEFE76
:020A8400FEFE74
:020A8600FEFE72
:020A8800FEFE70
:020A8A00FEFE6E
:020A8C00FEFE6C
:020A8E00FEFE6A
:020A9000FEFE68
:020A9200FEFE66
:020A9400FEFE64
:020A9600FEFE62
:020A9800FEFE60
:020A9A00FEFE5E
:020A9C00FEFE5C
:020A9E00FEFE5A
:020AA000FEFE58
:020AA200FEFE56
:020AA400FEFE54
:020AA600FEFE52
:020AA800FEFE50
:020AAA00FEFE4E
:020AAC00FEFE4C
:020AAE00FEFE4A
:020AB000FEFE48
:020AB200FEFE46
:020AB400FEFE44
:020AB600FEFE42
:020AB800FEFE40
:020ABA00FEFE3E
:020ABC00FEFE3C
:020ABE00FEFE3A
:020AC000FEFE38
:020AC200FEFE36
:020AC400FEFE34
:020AC600FEFE32
:020AC800FEFE30
:020ACA00FEFE2E
:020ACC00FEFE2C
:020ACE00FEFE2A
:020AD000FEFE28
:020AD200FEFE26
:020AD400FEFE24
:020AD600FEFE22
:020AD800FEFE20
:020ADA00FEFE1E
:020ADC00FEFE1C
:020ADE00FEFE1A
:020AE000FEFE18
:020AE200FEFE16
:020AE400FEFE14
:020AE600FEBA56
:020AE800BABB97
:020AEA00C2C286
:020AEC00AEBAA0
:020AEE00A1C2A3
:020AF000AEBA9C
:020AF200AEAEA6
:020AF400AEBA98
:020AF600AEBA96
:020AF800AEBA94
:020AFA00AEAE9E
:020AFC00AEBA90
:020AFE00AEAE9A
:020B0000AEAE97
:020B0200AEAE95
:020B0400AEAE93
:020B0600AEAE91
:020B0800AEB588
:020B0A00AEBA81
:020B0C00AEAE8B
:020B0E00AEAE89
:020B1000AEAE87
:020B1200AEAE85
:020B1400C2AE6F
:020B1600AEAE81
:020B1800AEAE7F
:020B1A00BAAE71
:020B1C00A0C275
:020B1E00AEAE79
:020B2000AEAE77
:020B2200AEAE75
:020B2400AEAE73
:020B2600AEF32C
:020B2800FEFECF
:020B2A00FEFECD
:020B2C00FEFECB
:020B2E00FEFEC9
:020B3000FEFEC7
:020B3200FEFEC5
:020B3400FEFEC3
:020B3600FEFEC1
:020B3800FEFEBF
:020B3A00FEFEBD
:020B3C00FEFEBB
:020B3E00FEFEB9
:020B4000FEFEB7
:020B4200FEFEB5
:020B4400FEFEB3
:020B4600FEFEB1
:020B4800FEFEAF
:020B4A00FEFEAD
:020B4C00FEFEAB
:020B4E00FEFEA9
:020B5000FEFEA7
:020B5200FEFEA5
:020B5400FEFEA3
:020B5600FEFEA1
:020B5800FEFE9F
:020B5A00FEFE9D
:020B5C00FEFE9B
:020B5E00FEFE99
:020B6000FEFE97
:020B6200FEFE95
:020B6400FEFE93
:020B6600FEFE91
:020B6800FEFE8F
:020B6A00FEFE8D
:020B6C00FEFE8B
:020B6E00FEFE89
:020B7000FEFE87
:020B7200FEFE85
:020B7400FEFE83
:020B7600FEFE81
:020B7800FEFE7F
:020B7A00FEFE7D
:020B7C00FEFE7B
:020B7E00FEFE79
:020B8000FEFE77
:020B8200FEFE75
:020B8400FEFE73
:020B8600FEFE71
:020B8800FEFE6F
:020B8A00FEFE6D
:020B8C00FEE980
:020B8E00AEC2F5
:020B9000C2C2DF
:020B9200A1AE12
:020B9400BABAEB
:020B9600AEAE01
:020B9800AEAEFF
:020B9A00BAAEF1
:020B9C00AEAEFB
:020B9E00AEBAED
:020BA000AEAEF7
:020BA200BAAEE9
:020BA400BAAEE7
:020BA600AEAEF1
:020BA800BAAEE3
:020BAA00B5AEE6
:020BAC00AEAEEB
:020BAE00B5AEE2
:020BB000AEBADB
:020BB200AEAEE5
:020BB400AEC2CF
:020BB600AEB5DA
:020BB800AEAEDF
:020BBA00AEAEDD
:020BBC00AEAEDB
:020BBE00AEAED9
:020BC000AEAED7
:020BC200B5AECE
:020BC400BAAEC7
:020BC600AEAED1
:020BC800AEAECF
:020BCA00AEAECD
:020BCC00AEB5C4
:020BCE00AEFE79
:020BD000FEFE27
:020BD200FEFE25
:020BD400FEFE23
:020BD600FEFE21
:020BD800FEFE1F
:020BDA00FEFE1D
:020BDC00FEFE1B
:020BDE00FEFE19
:020BE000FEFE17
:020BE200FEFE15
:020BE400FEFE13
:020BE600FEFE11
:020BE800FEFE0F
:020BEA00FEFE0D
:020BEC00FEFE0B
:020BEE00FEFE09
:020BF000FEFE07
:020BF200FEFE05
:020BF400FEFE03
:020BF600FEFE01
:020BF800FEFEFF
:020BFA00FEFEFD
:020BFC00FEFEFB
:020BFE00FEFEF9
:020C0000FEFEF6
:020C0200FEFEF4
:020C0400FEFEF2
:020C0600FEFEF0
:020C0800FEFEEE
:020C0A00FEFEEC
:020C0C00FEFEEA
:020C0E00FEFEE8
:020C1000FEFEE6
:020C1200FEFEE4
:020C1400FEFEE2
:020C1600FEFEE0
:020C1800FEFEDE
:020C1A00FEFEDC
:020C1C00FEFEDA
:020C1E00FEFED8
:020C2000FEFED6
:020C2200FEFED4
:020C2400FEFED2
:020C2600FEFED0
:020C2800FEFECE
:020C2A00FEFECC
:020C2C00FEFECA
:020C2E00FEFEC8
:020C3000FEFEC6
:020C3200FEBA08
:020C3400BAAE56
:020C3600BABA48
:020C3800BAA15F
:020C3A00C2BA3C
:020C3C00BAAE4E
:020C3E00AEC244
:020C4000C2B53B
:020C4200AEAE54
:020C4400AEBA46
:020C4600AEAE50
:020C4800AEAE4E
:020C4A00AEAE4C
:020C4C00AEB543
:020C4E00BAAE3C
:020C5000AEAE46
:020C5200AEBA38
:020C5400AEBA36
:020C5600AEAE40
:020C5800AEBA32
:020C5A00AEAE3C
:020C5C00B5AE33
:020C5E00AEAE38
:020C6000AEAE36
:020C6200AEAE34
:020C6400BAAE26
:020C6600AEB529
:020C6800AEAE2E
:020C6A00AEAE2C
:020C6C00AEAE2A
:020C6E00AEBA1C
:020C7000AEAE26
:020C7200AEAE24
:020C7400B5AE1B
:020C7600A0F3E9
:020C7800FEFE7E
:020C7A00FEFE7C
:020C7C00FEFE7A
:020C7E00FEFE78
:020C8000FEFE76
:020C8200FEFE74
:020C8400FEFE72
:020C8600FEFE70
:020C8800FEFE6E
:020C8A00FEFE6C
:020C8C00FEFE6A
:020C8E00FEFE68
:020C9000FEFE66
:020C9200FEFE64
:020C9400FEFE62
:020C9600FEFE60
:020C9800FEFE5E
:020C9A00FEFE5C
:020C9C00FEFE5A
:020C9E00FEFE58
:020CA000FEFE56
:020CA200FEFE54
:020CA400FEFE52
:020CA600FEFE50
:020CA800FEFE4E
:020CAA00FEFE4C
:020CAC00FEFE4A
:020CAE00FEFE48
:020CB000FEFE46
:020CB200FEFE44
:020CB400FEFE42
:020CB600FEFE40
:020CB800FEFE3E
:020CBA00FEFE3C
:020CBC00FEFE3A
:020CBE00FEFE38
:020CC000FEFE36
:020CC200FEFE34
:020CC400FEFE32
:020CC600FEFE30
:020CC800FEFE2E
:020CCA00FEFE2C
:020CCC00FEFE2A
:020CCE00FEFE28
:020CD000FEFE26
:020CD200FEFE24
:020CD400FEFE22
:020CD600FEFE20
:020CD800FEF329
:020CDA00AEAEBC
:020CDC00BABAA2
:020CDE00AEBAAC
:020CE000AEBAAA
:020CE200AEBAA8
:020CE400AEBAA6
:020CE600AEC29C
:020CE800A0BAB0
:020CEA00AEBAA0
:020CEC00AEAEAA
:020CEE00AEB5A1
:020CF000AEAEA6
:020CF200AEAEA4
:020CF400BAAE96
:020CF600AEBA94
:020CF800AEAE9E
:020CFA00B5AE95
:020CFC00AEAE9A
:020CFE00B5AE91
:020D0000AEAE95
:020D0200AEB58C
:020D0400AEAE91
:020D0600AEAE8F
:020D0800AEAE8D
:020D0A00B5BA78
:020D0C00B5A18F
:020D0E00B5AE80
:020D1000AEAE85
:020D1200AEAE83
:020D1400BAAE75
:020D1600AEAE7F
:020D1800AEAE7D
:020D1A00AEB574
:020D1C00A0AE87
:020D1E00AEB96C
:020D2000FEFED5
:020D2200FEFED3
:020D2400FEFED1
:020D2600FEFECF
:020D2800FEFECD
:020D2A00FEFECB
:020D2C00FEFEC9
:020D2E00FEFEC7
:020D3000FEFEC5
:020D3200FEFEC3
:020D3400FEFEC1
:020D3600FEFEBF
:020D3800FEFEBD
:020D3A00FEFEBB
:020D3C00FEFEB9
:020D3E00FEFEB7
:020D4000FEFEB5
:020D4200FEFEB3
:020D4400FEFEB1
:020D4600FEFEAF
:020D4800FEFEAD
:020D4A00FEFEAB
:020D4C00FEFEA9
:020D4E00FEFEA7
:020D5000FEFEA5
:020D5200FEFEA3
:020D5400FEFEA1
:020D5600FEFE9F
:020D5800FEFE9D
:020D5A00FEFE9B
:020D5C00FEFE99
:020D5E00FEFE97
:020D6000FEFE95
:020D6200FEFE93
:020D6400FEFE91
:020D6600FEFE8F
:020D6800FEFE8D
:020D6A00FEFE8B
:020D6C00FEFE89
:020D6E00FEFE87
:020D7000FEFE85
:020D7200FEFE83
:020D7400FEFE81
:020D7600FEFE7F
:020D7800FEFE7D
:020D7A00FEFE7B
:020D7C00FEFE79
:020D7E00FEE98C
:020D8000BAAE09
:020D8200BAB500
:020D8400BAAE05
:020D8600C2BAEF
:020D8800BAAE01
:020D8A00BABAF3
:020D8C00AEBAFD
:020D8E00AEBAFB
:020D9000AEBAF9
:020D9200AEAE03
:020D9400B5AEFA
:020D9600AEAEFF
:020D9800AEBAF1
:020D9A00AEB5F4
:020D9C00AEAEF9
:020D9E00BAAEEB
:020DA000B5AEEE
:020DA200BAAEE7
:020DA400AEAEF1
:020DA600AEAEEF
:020DA800AEAEED
:020DAA00AEAEEB
:020DAC00BAAEDD
:020DAE00AEB5E0
:020DB000AEAEE5
:020DB200AEAEE3
:020DB400AEB5DA
:020DB600AEAEDF
:020DB800AEAEDD
:020DBA00AEAEDB
:020DBC00AEAED9
:020DBE00B5AED0
:020DC000BAB5C2
:020DC200AEAED3
:020DC400AEB5CA
:020DC600AEA1DC
:020DC800FEFE2D
:020DCA00FEFE2B
:020DCC00FEFE29
:020DCE00FEFE27
:020DD000FEFE25
:020DD200FEFE23
:020DD400FEFE21
:020DD600FEFE1F
:020DD800FEFE1D
:020DDA00FEFE1B
:020DDC00FEFE19
:020DDE00FEFE17
:020DE000FEFE15
:020DE200FEFE13
:020DE400FEFE11
:020DE600FEFE0F
:020DE800FEFE0D
:020DEA00FEFE0B
:020DEC00FEFE09
:020DEE00FEFE07
:020DF000FEFE05
:020DF200FEFE03
:020DF400FEFE01
:020DF600FEFEFF
:020DF800FEFEFD
:020DFA00FEFEFB
:020DFC00FEFEF9
:020DFE00FEFEF7
:020E0000FEFEF4
:020E0200FEFEF2
:020E0400FEFEF0
:020E0600FEFEEE
:020E0800FEFEEC
:020E0A00FEFEEA
:020E0C00FEFEE8
:020E0E00FEFEE6
:020E1000FEFEE4
:020E1200FEFEE2
:020E1400FEFEE0
:020E1600FEFEDE
:020E1800FEFEDC
:020E1A00FEFEDA
:020E1C00FEFED8
:020E1E00FEFED6
:020E2000FEFED4
:020E2200FEFED2
:020E2400FEF3DB
:020E2600BAB55B
:020E2800BAAE60
:020E2A00B5BA57
:020E2C00AEBA5C
:020E2E00AEBA5A
:020E3000AEBA58
:020E3200AEBA56
:020E3400AEBA54
:020E3600AEBA52
:020E3800AEAE5C
:020E3A00AEAE5A
:020E3C00AEAE58
:020E3E00AEB54F
:020E4000AEAE54
:020E4200AEBA46
:020E4400AEAE50
:020E4600AEAE4E
:020E4800AEAE4C
:020E4A00AEAE4A
:020E4C00AEBA3C
:020E4E00B5AE3F
:020E5000AEAE44
:020E5200B5AE3B
:020E5400AEAE40
:020E5600B5AE37
:020E5800AEAE3C
:020E5A00B5AE33
:020E5C00AEAE38
:020E5E00AEAE36
:020E6000BAAE28
:020E6200AEB52B
:020E6400AEAE30
:020E6600AEAE2E
:020E6800B5A033
:020E6A00AEB523
:020E6C00AEAE28
:020E6E00AEB91B
:020E7000FEFE84
:020E7200FEFE82
:020E7400FEFE80
:020E7600FEFE7E
:020E7800FEFE7C
:020E7A00FEFE7A
:020E7C00FEFE78
:020E7E00FEFE76
:020E8000FEFE74
:020E8200FEFE72
:020E8400FEFE70
:020E8600FEFE6E
:020E8800FEFE6C
:020E8A00FEFE6A
:020E8C00FEFE68
:020E8E00FEFE66
:020E9000FEFE64
:020E9200FEFE62
:020E9400FEFE60
:020E9600FEFE5E
:020E9800FEFE5C
:020E9A00FEFE5A
:020E9C00FEFE58
:020E9E00FEFE56
:020EA000FEFE54
:020EA200FEFE52
:020EA400FEFE50
:020EA600FEFE4E
:020EA800FEFE4C
:020EAA00FEFE4A
:020EAC00FEFE48
:020EAE00FEFE46
:020EB000FEFE44
:020EB200FEFE42
:020EB400FEFE40
:020EB600FEFE3E
:020EB800FEFE3C
:020EBA00FEFE3A
:020EBC00FEFE38
:020EBE00FEFE36
:020EC000FEFE34
:020EC200FEFE32
:020EC400FEFE30
:020EC600FEFE2E
:020EC800FEFE2C
:020ECA00FEFE2A
:020ECC00AEB5C1
:020ECE00AEAEC6
:020ED000AEB5BD
:020ED200AEC2AE
:020ED400AEB5B9
:020ED600BAAEB2
:020ED800C2AEA8
:020EDA00C2BA9A
:020EDC00B5AEB1
:020EDE00B5BAA3
:020EE000AEBAA8
:020EE200AEAEB2
:020EE400AEAEB0
:020EE600AEAEAE
:020EE800AEAEAC
:020EEA00AEAEAA
:020EEC00AEAEA8
:020EEE00AEB59F
:020EF000AEBA98
:020EF200B5AE9B
:020EF400AEAEA0
:020EF600AEAE9E
:020EF800AEAE9C
:020EFA00AEAE9A
:020EFC00B5AE91
:020EFE00AEAE96
:020F0000AEAE93
:020F0200AEAE91
:020F0400AEBA83
:020F0600AEAE8D
:020F0800AEAE8B
:020F0A00AEAE89
:020F0C00AEAE87
:020F0E00AEAE85
:020F1000AEB57C
:020F1200AEAE81
:020F1400AEAD80
:020F1600AEA18A
:020F1800FEFEDB
:020F1A00FEFED9
:020F1C00FEFED7
:020F1E00FEFED5
:020F2000FEFED3
:020F2200FEFED1
:020F2400FEFECF
:020F2600FEFECD
:020F2800FEFECB
:020F2A00FEFEC9
:020F2C00FEFEC7
:020F2E00FEFEC5
:020F3000FEFEC3
:020F3200FEFEC1
:020F3400FEFEBF
:020F3600FEFEBD
:020F3800FEFEBB
:020F3A00FEFEB9
:020F3C00FEFEB7
:020F3E00FEFEB5
:020F4000FEFEB3
:020F4200FEFEB1
:020F4400FEFEAF
:020F4600FEFEAD
:020F4800FEFEAB
:020F4A00FEFEA9
:020F4C00FEFEA7
:020F4E00FEFEA5
:020F5000FEFEA3
:020F5200FEFEA1
:020F5400FEFE9F
:020F5600FEFE9D
:020F5800FEFE9B
:020F5A00FEFE99
:020F5C00FEFE97
:020F5E00FEFE95
:020F6000FEFE93
:020F6200FEFE91
:020F6400FEFE8F
:020F6600FEFE8D
:020F6800FEFE8B
:020F6A00FEFE89
:020F6C00FEFE87
:020F6E00FEFE85
:020F7000FEFE83
:020F7200AEAE21
:020F7400B5AE18
:020F7600AEBA11
:020F7800B5BA08
:020F7A00AEAE19
:020F7C00AEBA0B
:020F7E00AEBA09
:020F8000AEC2FF
:020F8200AEAE11
:020F8400BABAF7
:020F8600BAAE01
:020F8800AEBAFF
:020F8A00AEAE09
:020F8C00B5AE00
:020F8E00AEAE05
:020F9000AEAE03
:020F9200AEAE01
:020F9400AEAEFF
:020F9600BAAEF1
:020F9800AEAEFB
:020F9A00AEAEF9
:020F9C00BAB5E4
:020F9E00AEAEF5
:020FA000AEB5EC
:020FA200AEAEF1
:020FA400AEAEEF
:020FA600AEAEED
:020FA800B5AEE4
:020FAA00B5AEE2
:020FAC00AEB5E0
:020FAE00A0AEF3
:020FB000B5AEDC
:020FB200AEB5DA
:020FB400AEAEDF
:020FB600B5AED6
:020FB800AEAEDB
:020FBA00AEAED9
:020FBC00AEAED7
:020FBE00AEC1C2
:020FC000FEFE33
:020FC200FEFE31
:020FC400FEFE2F
:020FC600FEFE2D
:020FC800FEFE2B
:020FCA00FEFE29
:020FCC00FEFE27
:020FCE00FEFE25
:020FD000FEFE23
:020FD200FEFE21
:020FD400FEFE1F
:020FD600FEFE1D
:020FD800FEFE1B
:020FDA00FEFE19
:020FDC00FEFE17
:020FDE00FEFE15
:020FE000FEFE13
:020FE200FEFE11
:020FE400FEFE0F
:020FE600FEFE0D
:020FE800FEFE0B
:020FEA00FEFE09
:020FEC00FEFE07
:020FEE00FEFE05
:020FF000FEFE03
:020FF200FEFE01
:020FF400FEFEFF
:020FF600FEFEFD
:020FF800FEFEFB
:020FFA00FEFEF9
:020FFC00FEFEF7
:020FFE00FEFEF5
:02100000FEFEF2
:02100200FEFEF0
:02100400FEFEEE
:02100600FEFEEC
:02100800FEFEEA
:02100A00FEFEE8
:02100C00FEFEE6
:02100E00FEFEE4
:02101000FEFEE2
:02101200FEFEE0
:02101400FEFEDE
:02101600FEFEDC
:02101800AEAE7A
:02101A00B5B56A
:02101C00AEB56F
:02101E00AEB56D
:02102000AEAE72
:02102200B5BA5D
:02102400AEB567
:02102600BAB559
:02102800BAAE5E
:02102A00AEC254
:02102C00AEAE66
:02102E00AEAE64
:02103000BAAE56
:02103200B5AE59
:02103400BAAE52
:02103600BAAE50
:02103800B5AE53
:02103A00AEB551
:02103C00AEAE56
:02103E00AEAE54
:02104000AEBA46
:02104200AEBA44
:02104400B5AE47
:02104600AEAE4C
:02104800AEAE4A
:02104A00AEAE48
:02104C00AEB53F
:02104E00AEBA38
:02105000AEAE42
:02105200AEAE40
:02105400AEAE3E
:02105600AEB535
:02105800AEAE3A
:02105A00AEAE38
:02105C00AEAE36
:02105E00AEAE34
:02106000AEAE32
:02106200AEAE30
:02106400ADAE2F
:02106600AEA139
:02106800FEFE8A
:02106A00FEFE88
:02106C00FEFE86
:02106E00FEFE84
:02107000FEFE82
:02107200FEFE80
:02107400FEFE7E
:02107600FEFE7C
:02107800FEFE7A
:02107A00FEFE78
:02107C00FEFE76
:02107E00FEFE74
:02108000FEFE72
:02108200FEFE70
:02108400FEFE6E
:02108600FEFE6C
:02108800FEFE6A
:02108A00FEFE68
:02108C00FEFE66
:02108E00FEFE64
:02109000FEFE62
:02109200FEFE60
:02109400FEFE5E
:02109600FEFE5C
:02109800FEFE5A
:02109A00FEFE58
:02109C00FEFE56
:02109E00FEFE54
:0210A000FEFE52
:0210A200FEFE50
:0210A400FEFE4E
:0210A600FEFE4C
:0210A800FEFE4A
:0210AA00FEFE48
:0210AC00FEFE46
:0210AE00FEFE44
:0210B000FEFE42
:0210B200FEFE40
:0210B400FEFE3E
:0210B600FEFE3C
:0210B800FEFE3A
:0210BA00FEFE38
:0210BC00FEFE36
:0210BE00FEAE84
:0210C000B5AECB
:0210C200B5AEC9
:0210C400AEAECE
:0210C600AEB5C5
:0210C800AEAECA
:0210CA00B5AEC1
:0210CC00B5BAB3
:0210CE00AEBAB8
:0210D000AEBAB6
:0210D200BAAEB4
:0210D400BABAA6
:0210D600AEC2A8
:0210D800AEB5B3
:0210DA00AEAEB8
:0210DC00C2A1AF
:0210DE00B5AEAD
:0210E000AEAEB2
:0210E200AEAEB0
:0210E400AEAEAE
:0210E600B5AEA5
:0210E800AEAEAA
:0210EA00B5AEA1
:0210EC00AEAEA6
:0210EE00AEAEA4
:0210F000BAAE96
:0210F200AEAEA0
:0210F400B5AE97
:0210F600BAA09E
:0210F800B5AE93
:0210FA00AEAE98
:0210FC00B5AE8F
:0210FE00BAAE88
:02110000AEAE91
:02110200AEAE8F
:02110400AEAE8D
:02110600AEAE8B
:02110800AEAE89
:02110A00B5AD81
:02110C00AEAE85
:02110E00AEC170
:02111000FEFEE1
:02111200FEFEDF
:02111400FEFEDD
:02111600FEFEDB
:02111800FEFED9
:02111A00FEFED7
:02111C00FEFED5
:02111E00FEFED3
:02112000FEFED1
:02112200FEFECF
:02112400FEFECD
:02112600FEFECB
:02112800FEFEC9
:02112A00FEFEC7
:02112C00FEFEC5
:02112E00FEFEC3
:02113000FEFEC1
:02113200FEFEBF
:02113400FEFEBD
:02113600FEFEBB
:02113800FEFEB9
:02113A00FEFEB7
:02113C00FEFEB5
:02113E00FEFEB3
:02114000FEFEB1
:02114200FEFEAF
:02114400FEFEAD
:02114600FEFEAB
:02114800FEFEA9
:02114A00FEFEA7
:02114C00FEFEA5
:02114E00FEFEA3
:02115000FEFEA1
:02115200FEFE9F
:02115400FEFE9D
:02115600FEFE9B
:02115800FEFE99
:02115A00FEFE97
:02115C00FEFE95
:02115E00FEFE93
:02116000FEFE91
:02116200FEFE8F
:02116400FEB5D6
:02116600AEBA1F
:02116800AEB522
:02116A00AEAE27
:02116C00B5B517
:02116E00AEAE23
:02117000AEB51A
:02117200AEAE1F
:02117400BAAE11
:02117600B5BA08
:02117800BAAE0D
:02117A00B5AE10
:02117C00BAB502
:02117E00AEAE13
:02118000AEAE11
:02118200BAAE03
:02118400AEB506
:02118600AEAE0B
:02118800AEAE09
:02118A00AEAE07
:02118C00AEAE05
:02118E00AEBAF7
:02119000AEBAF5
:02119200AEBAF3
:02119400AEAEFD
:02119600AEAEFB
:02119800AEAEF9
:02119A00AEAEF7
:02119C00AEAEF5
:02119E00B5AEEC
:0211A000AEAEF1
:0211A200B5AEE8
:0211A400AEAEED
:0211A600B5A0F2
:0211A800BAAEDD
:0211AA00AEC2D3
:0211AC00AEBAD9
:0211AE00B5AEDC
:0211B000B5AEDA
:0211B200A0AEED
:0211B400AEAEDD
:0211B600AEA1E8
:0211B800FEFE39
:0211BA00FEFE37
:0211BC00FEFE35
:0211BE00FEFE33
:0211C000FEFE31
:0211C200FEFE2F
:0211C400FEFE2D
:0211C600FEFE2B
:0211C800FEFE29
:0211CA00FEFE27
:0211CC00FEFE25
:0211CE00FEFE23
:0211D000FEFE21
:0211D200FEFE1F
:0211D400FEFE1D
:0211D600FEFE1B
:0211D800FEFE19
:0211DA00FEFE17
:0211DC00FEFE15
:0211DE00FEFE13
:0211E000FEFE11
:0211E200FEFE0F
:0211E400FEFE0D
:0211E600FEFE0B
:0211E800FEFE09
:0211EA00FEFE07
:0211EC00FEFE05
:0211EE00FEFE03
:0211F000FEFE01
:0211F200FEFEFF
:0211F400FEFEFD
:0211F600FEFEFB
:0211F800FEFEF9
:0211FA00FEFEF7
:0211FC00FEFEF5
:0211FE00FEFEF3
:02120000FEFEF0
:02120200FEFEEE
:02120400FEFEEC
:02120600FEFEEA
:02120800FEFEE8
:02120A00FEE9FB
:02120C00AEB57D
:02120E00AEAE82
:02121000AEB579
:02121200AEAE7E
:02121400B5AE75
:02121600AEAE7A
:02121800B5B56A
:02121A00AEAE76
:02121C00B5AE6D
:02121E00B5AE6B
:02122000BAB55D
:02122200BABA56
:02122400B5AE65
:02122600BAB557
:02122800BAAE5C
:02122A00AEAE66
:02122C00B5AE5D
:02122E00AEAE62
:02123000AEAE60
:02123200B5AE57
:02123400AEAE5C
:02123600B5AE53
:02123800AEAE58
:02123A00B5AE4F
:02123C00AEAE54
:02123E00BAB53F
:02124000AEAE50
:02124200AEB547
:02124400AEAE4C
:02124600AEAE4A
:02124800B5AE41
:02124A00AEAE46
:02124C00AEAE44
:02124E00AEAE42
:02125000AEB539
:02125200AEAE3E
:02125400AEAE3C
:02125600A0AE48
:02125800AEAE38
:02125A00AEAE36
:02125C00B5AE2D
:02125E00AEC11F
:02126000FEFE90
:02126200FEFE8E
:02126400FEFE8C
:02126600FEFE8A
:02126800FEFE88
:02126A00FEFE86
:02126C00FEFE84
:02126E00FEFE82
:02127000FEFE80
:02127200FEFE7E
:02127400FEFE7C
:02127600FEFE7A
:02127800FEFE78
:02127A00FEFE76
:02127C00FEFE74
:02127E00FEFE72
:02128000FEFE70
:02128200FEFE6E
:02128400FEFE6C
:02128600FEFE6A
:02128800FEFE68
:02128A00FEFE66
:02128C00FEFE64
:02128E00FEFE62
:02129000FEFE60
:02129200FEFE5E
:02129400FEFE5C
:02129600FEFE5A
:02129800FEFE58
:02129A00FEFE56
:02129C00FEFE54
:02129E00FEFE52
:0212A000FEFE50
:0212A200FEFE4E
:0212A400FEFE4C
:0212A600FEFE4A
:0212A800FEFE48
:0212AA00FEFE46
:0212AC00FEFE44
:0212AE00FEFE42
:0212B000FEFE40
:0212B200AEAEDE
:0212B400B5AED5
:0212B600AEB5D3
:0212B800B5AED1
:0212BA00B5AECF
:0212BC00AEB5CD
:0212BE00AEB5CB
:0212C000AEAED0
:0212C200AEB5C7
:0212C400AEB5C5
:0212C600BAAEBE
:0212C800B5AEC1
:0212CA00BAAEBA
:0212CC00AEBAB8
:0212CE00AEAEC2
:0212D000AEAEC0
:0212D200B5AEB7
:0212D400BAAEB0
:0212D600AEAEBA
:0212D800AEAEB8
:0212DA00AEAEB6
:0212DC00B5AEAD
:0212DE00AEAEB2
:0212E000AEAEB0
:0212E200BAAEA2
:0212E400B5AEA5
:0212E600AEAEAA
:0212E800AEAEA8
:0212EA00AEAEA6
:0212EC00AEB59D
:0212EE00AEAEA2
:0212F000AEAEA0
:0212F200B5AE97
:0212F400AEAE9C
:0212F600AEAE9A
:0212F800AEAE98
:0212FA00AEAE96
:0212FC00AEB58D
:0212FE00B5AE8B
:02130000AEAE8F
:02130200AEAD8E
:02130400AEA099
:02130600B5A18F
:02130800FEFEE7
:02130A00FEFEE5
:02130C00FEFEE3
:02130E00FEFEE1
:02131000FEFEDF
:02131200FEFEDD
:02131400FEFEDB
:02131600FEFED9
:02131800FEFED7
:02131A00FEFED5
:02131C00FEFED3
:02131E00FEFED1
:02132000FEFECF
:02132200FEFECD
:02132400FEFECB
:02132600FEFEC9
:02132800FEFEC7
:02132A00FEFEC5
:02132C00FEFEC3
:02132E00FEFEC1
:02133000FEFEBF
:02133200FEFEBD
:02133400FEFEBB
:02133600FEFEB9
:02133800FEFEB7
:02133A00FEFEB5
:02133C00FEFEB3
:02133E00FEFEB1
:02134000FEFEAF
:02134200FEFEAD
:02134400FEFEAB
:02134600FEFEA9
:02134800FEFEA7
:02134A00FEFEA5
:02134C00FEFEA3
:02134E00FEFEA1
:02135000FEFE9F
:02135200FEFE9D
:02135400FEFE9B
:02135600FEFE99
:02135800FEBADB
:02135A00B5AE2E
:02135C00B5AE2C
:02135E00AEB52A
:02136000AEAE2F
:02136200B5AE26
:02136400AEB524
:02136600AEAE29
:02136800AEB520
:02136A00AEB51E
:02136C00AEAE23
:02136E00AEB51A
:02137000AEBA13
:02137200AEB516
:02137400BAB508
:02137600AEB512
:02137800BAB504
:02137A00BAAE09
:02137C00AEAE13
:02137E00AEAE11
:02138000B5AE08
:02138200AEAE0D
:02138400AEAE0B
:02138600AEAE09
:02138800BAAEFB
:02138A00B5AEFE
:02138C00BAAEF7
:02138E00AEB5FA
:02139000AEAEFF
:02139200AEB5F6
:02139400AEAEFB
:02139600AEAEF9
:02139800AEAEF7
:02139A00AEAEF5
:02139C00AEAEF3
:02139E00AEAEF1
:0213A000AEB5E8
:0213A200AEAEED
:0213A400C2A0E5
:0213A600AEAEE9
:0213A800AEAEE7
:0213AA00AEAEE5
:0213AC00AEAEE3
:0213AE00AEB9D6
:0213B000FEFE3F
:0213B200FEFE3D
:0213B400FEFE3B
:0213B600FEFE39
:0213B800FEFE37
:0213BA00FEFE35
:0213BC00FEFE33
:0213BE00FEFE31
:0213C000FEFE2F
:0213C200FEFE2D
:0213C400FEFE2B
:0213C600FEFE29
:0213C800FEFE27
:0213CA00FEFE25
:0213CC00FEFE23
:0213CE00FEFE21
:0213D000FEFE1F
:0213D200FEFE1D
:0213D400FEFE1B
:0213D600FEFE19
:0213D800FEFE17
:0213DA00FEFE15
:0213DC00FEFE13
:0213DE00FEFE11
:0213E000FEFE0F
:0213E200FEFE0D
:0213E400FEFE0B
:0213E600FEFE09
:0213E800FEFE07
:0213EA00FEFE05
:0213EC00FEFE03
:0213EE00FEFE01
:0213F000FEFEFF
:0213F200FEFEFD
:0213F400FEFEFB
:0213F600FEFEF9
:0213F800FEFEF7
:0213FA00FEFEF5
:0213FC00FEFEF3
:0213FE00FEC22D
:02140000BAAE82
:02140200AEAE8C
:02140400AEB583
:02140600BAAE7C
:02140800B5AE7F
:02140A00AEAE84
:02140C00B5AE7B
:02140E00B5AE79
:02141000B5AE77
:02141200B5AE75
:02141400B5AE73
:02141600B5AE71
:02141800B5BA63
:02141A00B5AE6D
:02141C00BAAE66
:02141E00AEAE70
:02142000BAAE62
:02142200AEAE6C
:02142400AEB563
:02142600AEAE68
:02142800AEAE66
:02142A00B5AE5D
:02142C00AEAE62
:02142E00B5AE59
:02143000AEB557
:02143200AEBA50
:02143400AEAE5A
:02143600B5AE51
:02143800AEAE56
:02143A00AEAE54
:02143C00AEAE52
:02143E00AEB549
:02144000AEB547
:02144200AEAE4C
:02144400AEB543
:02144600AEAE48
:02144800AEAE46
:02144A00BAAE38
:02144C00AEB53B
:02144E00AEAE40
:02145000AEAE3E
:02145200AEAD3D
:02145400AEAE3A
:02145600AEA145
:02145800FEFE96
:02145A00FEFE94
:02145C00FEFE92
:02145E00FEFE90
:02146000FEFE8E
:02146200FEFE8C
:02146400FEFE8A
:02146600FEFE88
:02146800FEFE86
:02146A00FEFE84
:02146C00FEFE82
:02146E00FEFE80
:02147000FEFE7E
:02147200FEFE7C
:02147400FEFE7A
:02147600FEFE78
:02147800FEFE76
:02147A00FEFE74
:02147C00FEFE72
:02147E00FEFE70
:02148000FEFE6E
:02148200FEFE6C
:02148400FEFE6A
:02148600FEFE68
:02148800FEFE66
:02148A00FEFE64
:02148C00FEFE62
:02148E00FEFE60
:02149000FEFE5E
:02149200FEFE5C
:02149400FEFE5A
:02149600FEFE58
:02149800FEFE56
:02149A00FEFE54
:02149C00FEFE52
:02149E00FEFE50
:0214A000FEFE4E
:0214A200FEFE4C
:0214A400FEF355
:0214A600A1BAE9
:0214A800AEBADA
:0214AA00B5BAD1
:0214AC00AEB5DB
:0214AE00AEAEE0
:0214B000B5BACB
:0214B200AEB5D5
:0214B400B5AED3
:0214B600AEAED8
:0214B800B5AECF
:0214BA00AEAED4
:0214BC00AEAED2
:0214BE00B5AEC9
:0214C000BAAEC2
:0214C200BAAEC0
:0214C400AEBABE
:0214C600B5BAB5
:0214C800B5AEBF
:0214CA00AEBAB8
:0214CC00B5AEBB
:0214CE00AEB5B9
:0214D000AEAEBE
:0214D200AEAEBC
:0214D400AEAEBA
:0214D600AEBAAC
:0214D800B5AEAF
:0214DA00AEBAA8
:0214DC00AEB5AB
:0214DE00AEAEB0
:0214E000AEAEAE
:0214E200AEAEAC
:0214E400AEAEAA
:0214E600B5AEA1
:0214E800AEAEA6
:0214EA00AEB59D
:0214EC00AEAEA2
:0214EE00AEAEA0
:0214F000AEAE9E
:0214F200AEAE9C
:0214F400A0B5A1
:0214F600AEAE98
:0214F800AEAE96
:0214FA00AEAE94
:0214FC00AEAD93
:0214FE00AEB985
:02150000FEFEED
:02150200FEFEEB
:02150400FEFEE9
:02150600FEFEE7
:02150800FEFEE5
:02150A00FEFEE3
:02150C00FEFEE1
:02150E00FEFEDF
:02151000FEFEDD
:02151200FEFEDB
:02151400FEFED9
:02151600FEFED7
:02151800FEFED5
:02151A00FEFED3
:02151C00FEFED1
:02151E00FEFECF
:02152000FEFECD
:02152200FEFECB
:02152400FEFEC9
:02152600FEFEC7
:02152800FEFEC5
:02152A00FEFEC3
:02152C00FEFEC1
:02152E00FEFEBF
:02153000FEFEBD
:02153200FEFEBB
:02153400FEFEB9
:02153600FEFEB7
:02153800FEFEB5
:02153A00FEFEB3
:02153C00FEFEB1
:02153E00FEFEAF
:02154000FEFEAD
:02154200FEFEAB
:02154400FEFEA9
:02154600FEFEA7
:02154800FEFEA5
:02154A00FEFEA3
:02154C00BABA29
:02154E00AEBA33
:02155000BAAE31
:02155200BAAE2F
:02155400B5BA26
:02155600BAB524
:02155800AEAE35
:02155A00B5AE2C
:02155C00AEAE31
:02155E00B5B521
:02156000AEAE2D
:02156200B5B51D
:02156400AEB522
:02156600AEAE27
:02156800B5AE1E
:02156A00B5BA10
:02156C00AEB51A
:02156E00AEAE1F
:02157000AEAE1D
:02157200B5BA08
:02157400AEAE19
:02157600AEBA0B
:02157800AEB50E
:02157A00AEAE13
:02157C00B5AE0A
:02157E00AEAE0F
:02158000AEAE0D
:02158200BAAEFF
:02158400AEAE09
:02158600AEAE07
:02158800AEAE05
:02158A00AEAE03
:02158C00AEAE01
:02158E00AEAEFF
:02159000AEB5F6
:02159200AEA009
:02159400C2AEE5
:02159600AEB5F0
:02159800AEAEF5
:02159A00AEBAE7
:02159C00B5AEEA
:02159E00AEAEEF
:0215A000AEAEED
:0215A200A0AEF9
:0215A400AEAEE9
:0215A600AEA2F3
:0215A800FEFE45
:0215AA00FEFE43
:0215AC00FEFE41
:0215AE00FEFE3F
:0215B000FEFE3D
:0215B200FEFE3B
:0215B400FEFE39
:0215B600FEFE37
:0215B800FEFE35
:0215BA00FEFE33
:0215BC00FEFE31
:0215BE00FEFE2F
:0215C000FEFE2D
:0215C200FEFE2B
:0215C400FEFE29
:0215C600FEFE27
:0215C800FEFE25
:0215CA00FEFE23
:0215CC00FEFE21
:0215CE00FEFE1F
:0215D000FEFE1D
:0215D200FEFE1B
:0215D400FEFE19
:0215D600FEFE17
:0215D800FEFE15
:0215DA00FEFE13
:0215DC00FEFE11
:0215DE00FEFE0F
:0215E000FEFE0D
:0215E200FEFE0B
:0215E400FEFE09
:0215E600FEFE07
:0215E800FEFE05
:0215EA00FEFE03
:0215EC00FEFE01
:0215EE00FEFEFF
:0215F000FEFEFD
:0215F200E9A16D
:0215F400BAB586
:0215F600BAAE8B
:0215F800C2BA75
:0215FA00BAAE87
:0215FC00BAAE85
:0215FE00B5AE88
:02160000AEBA80
:02160200B5AE83
:02160400B5AE81
:02160600B5AE7F
:02160800AEAE84
:02160A00B5AE7B
:02160C00AEB579
:02160E00AEAE7E
:02161000B5AE75
:02161200B5AE73
:02161400B5BA65
:02161600AEBA6A
:02161800B5AE6D
:02161A00B5AE6B
:02161C00AEAE70
:02161E00C2A068
:02162000B5AE65
:02162200AEAE6A
:02162400AEAE68
:02162600AEAE66
:02162800AEAE64
:02162A00B5AE5B
:02162C00AEB559
:02162E00AEAE5E
:02163000AEAE5C
:02163200AEAE5A
:02163400B5AE51
:02163600AEAE56
:02163800B5AE4D
:02163A00AEAE52
:02163C00B5A057
:02163E00B5AE47
:02164000A0B553
:02164200AEB543
:02164400A0AE56
:02164600AEAE46
:02164800AEAE44
:02164A00AEAD43
:02164C00AEAE40
:02164E00AEB933
:02165000FEFE9C
:02165200FEFE9A
:02165400FEFE98
:02165600FEFE96
:02165800FEFE94
:02165A00FEFE92
:02165C00FEFE90
:02165E00FEFE8E
:02166000FEFE8C
:02166200FEFE8A
:02166400FEFE88
:02166600FEFE86
:02166800FEFE84
:02166A00FEFE82
:02166C00FEFE80
:02166E00FEFE7E
:02167000FEFE7C
:02167200FEFE7A
:02167400FEFE78
:02167600FEFE76
:02167800FEFE74
:02167A00FEFE72
:02167C00FEFE70
:02167E00FEFE6E
:02168000FEFE6C
:02168200FEFE6A
:02168400FEFE68
:02168600FEFE66
:02168800FEFE64
:02168A00FEFE62
:02168C00FEFE60
:02168E00FEFE5E
:02169000FEFE5C
:02169200FEFE5A
:02169400FEFE58
:02169600FEFE56
:02169800FEFE54
:02169A00BAB5DF
:02169C00AEBAE4
:02169E00AEB5E7
:0216A000BAA1ED
:0216A200C2BACA
:0216A400B5BAD5
:0216A600AEB5DF
:0216A800AEB5DD
:0216AA00AEAEE2
:0216AC00AEAEE0
:0216AE00AEB5D7
:0216B000AEB5D5
:0216B200AEAEDA
:0216B400B5AED1
:0216B600B5AECF
:0216B800AEB5CD
:0216BA00AEAED2
:0216BC00BAAEC4
:0216BE00B5AEC7
:0216C000AEAECC
:0216C200BAAEBE
:0216C400B5AEC1
:0216C600AEB5BF
:0216C800AEAEC4
:0216CA00AEB5BB
:0216CC00AEAEC0
:0216CE00B5AEB7
:0216D000AEB5B5
:0216D200BAAEAE
:0216D400BAAEAC
:0216D600AEB5AF
:0216D800AEAEB4
:0216DA00AEAEB2
:0216DC00AEAEB0
:0216DE00AEAEAE
:0216E000ADAEAD
:0216E200AEAEAA
:0216E400AEAEA8
:0216E600AEAEA6
:0216E800B5AE9D
:0216EA00AEAEA2
:0216EC00B5AE99
:0216EE00AEAE9E
:0216F000AEAE9C
:0216F200AEAE9A
:0216F400AEAE98
:0216F600A0A2B0
:0216F800FEFEF4
:0216FA00FEFEF2
:0216FC00FEFEF0
:0216FE00FEFEEE
:02170000FEFEEB
:02170200FEFEE9
:02170400FEFEE7
:02170600FEFEE5
:02170800FEFEE3
:02170A00FEFEE1
:02170C00FEFEDF
:02170E00FEFEDD
:02171000FEFEDB
:02171200FEFED9
:02171400FEFED7
:02171600FEFED5
:02171800FEFED3
:02171A00FEFED1
:02171C00FEFECF
:02171E00FEFECD
:02172000FEFECB
:02172200FEFEC9
:02172400FEFEC7
:02172600FEFEC5
:02172800FEFEC3
:02172A00FEFEC1
:02172C00FEFEBF
:02172E00FEFEBD
:02173000FEFEBB
:02173200FEFEB9
:02173400FEFEB7
:02173600FEFEB5
:02173800FEFEB3
:02173A00FEFEB1
:02173C00FEFEAF
:02173E00FEE9C2
:02174000AEB544
:02174200C2A043
:02174400BAB534
:02174600C2AE31
:02174800BABA2B
:02174A00AEB53A
:02174C00BAAE33
:02174E00AEAE3D
:02175000BAB528
:02175200AEAE39
:02175400B5B529
:02175600AEB52E
:02175800ADAE34
:02175A00AEAD32
:02175C00B5AE28
:02175E00AEAE2D
:02176000B5AE24
:02176200BAB516
:02176400AEB520
:02176600BAAE19
:02176800BAB510
:02176A00AEB51A
:02176C00AEAE1F
:02176E00B5AE16
:02177000AEAE1B
:02177200AEAE19
:02177400AEAE17
:02177600AEAE15
:02177800B5AE0C
:02177A00AEAE11
:02177C00AEAE0F
:02177E00AEAE0D
:02178000AEAE0B
:02178200AEB502
:02178400AEAE07
:02178600AEB5FE
:02178800AEAE03
:02178A00AEB5FA
:02178C00AEAEFF
:02178E00AEAEFD
:02179000AEAEFB
:02179200AEAEF9
:02179400AEAEF7
:02179600AEAEF5
:02179800AEACF5
:02179A00AEADF2
:02179C00AEADF0
:02179E00C1B9CF
:0217A000FEFE4B
:0217A200FEFE49
:0217A400FEFE47
:0217A600FEFE45
:0217A800FEFE43
:0217AA00FEFE41
:0217AC00FEFE3F
:0217AE00FEFE3D
:0217B000FEFE3B
:0217B200FEFE39
:0217B400FEFE37
:0217B600FEFE35
:0217B800FEFE33
:0217BA00FEFE31
:0217BC00FEFE2F
:0217BE00FEFE2D
:0217C000FEFE2B
:0217C200FEFE29
:0217C400FEFE27
:0217C600FEFE25
:0217C800FEFE23
:0217CA00FEFE21
:0217CC00FEFE1F
:0217CE00FEFE1D
:0217D000FEFE1B
:0217D200FEFE19
:0217D400FEFE17
:0217D600FEFE15
:0217D800FEFE13
:0217DA00FEFE11
:0217DC00FEFE0F
:0217DE00FEFE0D
:0217E000FEFE0B
:0217E200FEFE09
:0217E400FEFE07
:0217E600FEBA49
:0217E800AEAEA3
:0217EA00AEB59A
:0217EC00BAAE93
:0217EE00BAA09F
:0217F000C2AE87
:0217F200B5BA86
:0217F400AEB590
:0217F600BAB582
:0217F800AEAE93
:0217FA00BAB57E
:0217FC00AEBA83
:0217FE00AEAE8D
:02180000AEB583
:02180200B5AE81
:02180400AEB57F
:02180600B5AE7D
:02180800AEB57B
:02180A00AEAE80
:02180C00B5AE77
:02180E00AEB575
:02181000AEAE7A
:02181200AEAE78
:02181400BAAE6A
:02181600AEAE74
:02181800AEAE72
:02181A00B5AE69
:02181C00AEAE6E
:02181E00AEAE6C
:02182000AEBA5E
:02182200AEBA5C
:02182400AEB55F
:02182600AEAE64
:02182800BAAE56
:02182A00AEAE60
:02182C00AEAE5E
:02182E00AEAE5C
:02183000AEAE5A
:02183200ADAE59
:02183400AEAE56
:02183600B5AE4D
:02183800AEB54B
:02183A00AEAE50
:02183C00AEAE4E
:02183E00AEAE4C
:02184000AEAE4A
:02184200AEAE48
:02184400ADAE47
:02184600AEA250
:02184800FEFEA2
:02184A00FEFEA0
:02184C00FEFE9E
:02184E00FEFE9C
:02185000FEFE9A
:02185200FEFE98
:02185400FEFE96
:02185600FEFE94
:02185800FEFE92
:02185A00FEFE90
:02185C00FEFE8E
:02185E00FEFE8C
:02186000FEFE8A
:02186200FEFE88
:02186400FEFE86
:02186600FEFE84
:02186800FEFE82
:02186A00FEFE80
:02186C00FEFE7E
:02186E00FEFE7C
:02187000FEFE7A
:02187200FEFE78
:02187400FEFE76
:02187600FEFE74
:02187800FEFE72
:02187A00FEFE70
:02187C00FEFE6E
:02187E00FEFE6C
:02188000FEFE6A
:02188200FEFE68
:02188400FEFE66
:02188600FEFE64
:02188800FEFE62
:02188A00FEFE60
:02188C00FEBAA2
:02188E00AEB5F5
:02189000AEAEFA
:02189200B5AEF1
:02189400BAAEEA
:02189600B5BAE1
:02189800B5BADF
:02189A00AEAEF0
:02189C00BAAEE2
:02189E00BAAEE0
:0218A000AEAEEA
:0218A200B5AEE1
:0218A400C1B5CC
:0218A600AEB5DD
:0218A800AEB5DB
:0218AA00AEAEE0
:0218AC00B5AED7
:0218AE00AEAEDC
:0218B000B5AED3
:0218B200AEB5D1
:0218B400AEAED6
:0218B600B5AECD
:0218B800BAAEC6
:0218BA00BAB5BD
:0218BC00AEBAC2
:0218BE00B5AEC5
:0218C000AEB5C3
:0218C200AEAEC8
:0218C400AEB5BF
:0218C600AEB5BD
:0218C800AEAEC2
:0218CA00AEAEC0
:0218CC00B5AEB7
:0218CE00AEAEBC
:0218D000AEAEBA
:0218D200AEB5B1
:0218D400AEAEB6
:0218D600AEAEB4
:0218D800ADAEB3
:0218DA00AEAEB0
:0218DC00AEAEAE
:0218DE00AEAEAC
:0218E000A0B5B1
:0218E200AEAEA8
:0218E400ADAEA7
:0218E600AEAEA4
:0218E800AEACA4
:0218EA00AEADA1
:0218EC00AEAE9E
:0218EE00C1A196
:0218F000FEFEFA
:0218F200FEFEF8
:0218F400FEFEF6
:0218F600FEFEF4
:0218F800FEFEF2
:0218FA00FEFEF0
:0218FC00FEFEEE
:0218FE00FEFEEC
:02190000FEFEE9
:02190200FEFEE7
:02190400FEFEE5
:02190600FEFEE3
:02190800FEFEE1
:02190A00FEFEDF
:02190C00FEFEDD
:02190E00FEFEDB
:02191000FEFED9
:02191200FEFED7
:02191400FEFED5
:02191600FEFED3
:02191800FEFED1
:02191A00FEFECF
:02191C00FEFECD
:02191E00FEFECB
:02192000FEFEC9
:02192200FEFEC7
:02192400FEFEC5
:02192600FEFEC3
:02192800FEFEC1
:02192A00FEFEBF
:02192C00FEFEBD
:02192E00FEFEBB
:02193000FEFEB9
:02193200FEFEB7
:02193400BAB542
:02193600AEAE53
:02193800AEB54A
:02193A00AEAE4F
:02193C00B5AE46
:02193E00AEAE4B
:02194000BAAE3D
:02194200AEBA3B
:02194400B5BA32
:02194600B5AE3C
:02194800C2B526
:02194A00AEB538
:02194C00B5AE36
:02194E00BAAE2F
:02195000B5AE32
:02195200AEB530
:02195400AEB52E
:02195600B5AE2C
:02195800AEB52A
:02195A00AEAE2F
:02195C00AEAE2D
:02195E00AEBA1F
:02196000B5AE22
:02196200B5AE20
:02196400AEB51E
:02196600AEAE23
:02196800B5AE1A
:02196A00AEAE1F
:02196C00AEAE1D
:02196E00AEAE1B
:02197000AEB512
:02197200AEAE17
:02197400AEAE15
:02197600AEB50C
:02197800AEAE11
:02197A00AEAE0F
:02197C00AEAE0D
:02197E00AEAE0B
:02198000AEAE09
:02198200AEB500
:02198400AEAD06
:02198600AEAE03
:02198800AEAE01
:02198A00AEAEFF
:02198C00AEAEFD
:02198E00AEAEFB
:02199000AEADFA
:02199200AEACF9
:02199400AEADF6
:02199600AEA2FF
:02199800FEFE51
:02199A00FEFE4F
:02199C00FEFE4D
:02199E00FEFE4B
:0219A000FEFE49
:0219A200FEFE47
:0219A400FEFE45
:0219A600FEFE43
:0219A800FEFE41
:0219AA00FEFE3F
:0219AC00FEFE3D
:0219AE00FEFE3B
:0219B000FEFE39
:0219B200FEFE37
:0219B400FEFE35
:0219B600FEFE33
:0219B800FEFE31
:0219BA00FEFE2F
:0219BC00FEFE2D
:0219BE00FEFE2B
:0219C000FEFE29
:0219C200FEFE27
:0219C400FEFE25
:0219C600FEFE23
:0219C800FEFE21
:0219CA00FEFE1F
:0219CC00FEFE1D
:0219CE00FEFE1B
:0219D000FEFE19
:0219D200FEFE17
:0219D400FEFE15
:0219D600FEFE13
:0219D800FEFE11
:0219DA00B5AEA8
:0219DC00B5BA9A
:0219DE00AEBA9F
:0219E000B5AEA2
:0219E200BAAE9B
:0219E400B5AE9E
:0219E600B5AE9C
:0219E800B5AE9A
:0219EA00AEB598
:0219EC00AEBA91
:0219EE00AEBA8F
:0219F000AEAE99
:0219F200BAAE8B
:0219F400AEAE95
:0219F600AEB58C
:0219F800AEAE91
:0219FA00AEB588
:0219FC00AEAD8E
:0219FE00AEAE8B
:021A0000AEB581
:021A0200AEAE86
:021A0400B5B576
:021A0600AEB57B
:021A0800AEBA74
:021A0A00AEAE7E
:021A0C00BAAE70
:021A0E00AEAE7A
:021A1000AEAE78
:021A1200AEAE76
:021A1400B5AE6D
:021A1600AEAE72
:021A1800AEAE70
:021A1A00AEAE6E
:021A1C00B5AE65
:021A1E00B5AE63
:021A2000AEAE68
:021A2200AEB55F
:021A2400AEAE64
:021A2600AEAE62
:021A2800AEAE60
:021A2A00AEA06C
:021A2C00AEAE5C
:021A2E00AEAE5A
:021A3000B5AE51
:021A3200ADAE57
:021A3400AEAE54
:021A3600AEAE52
:021A3800ACAE52
:021A3A00AEAE4E
:021A3C00AEAE4C
:021A3E00AEA157
:021A4000FEFEA8
:021A4200FEFEA6
:021A4400FEFEA4
:021A4600FEFEA2
:021A4800FEFEA0
:021A4A00FEFE9E
:021A4C00FEFE9C
:021A4E00FEFE9A
:021A5000FEFE98
:021A5200FEFE96
:021A5400FEFE94
:021A5600FEFE92
:021A5800FEFE90
:021A5A00FEFE8E
:021A5C00FEFE8C
:021A5E00FEFE8A
:021A6000FEFE88
:021A6200FEFE86
:021A6400FEFE84
:021A6600FEFE82
:021A6800FEFE80
:021A6A00FEFE7E
:021A6C00FEFE7C
:021A6E00FEFE7A
:021A7000FEFE78
:021A7200FEFE76
:021A7400FEFE74
:021A7600FEFE72
:021A7800FEFE70
:021A7A00FEFE6E
:021A7C00FEFE6C
:021A7E00FEFE6A
:021A8000FEBAAC
:021A8200AEAE06
:021A8400BAAEF8
:021A8600B5AEFB
:021A8800AEAE00
:021A8A00B5AEF7
:021A8C00AEAEFC
:021A8E00AEAEFA
:021A9000AEAEF8
:021A9200B5AEEF
:021A9400C2AEE0
:021A9600B5AEEB
:021A9800B5AEE9
:021A9A00B5AEE7
:021A9C00AEB5E5
:021A9E00AEAEEA
:021AA000AEB5E1
:021AA200AEAEE6
:021AA400B5AEDD
:021AA600AEB5DB
:021AA800ADAEE1
:021AAA00AEB5D7
:021AAC00AEAEDC
:021AAE00AEAEDA
:021AB000B5AED1
:021AB200B5AECF
:021AB400BAB5C1
:021AB600AEBAC6
:021AB800B5AEC9
:021ABA00AEAECE
:021ABC00AEADCD
:021ABE00AEAECA
:021AC000B5AEC1
:021AC200AEAEC6
:021AC400AEAEC4
:021AC600AEAEC2
:021AC800AEB5B9
:021ACA00AEAEBE
:021ACC00AEAEBC
:021ACE00AEAEBA
:021AD000AEADB9
:021AD200AEAEB6
:021AD400AEAEB4
:021AD600AEB5AB
:021AD800AEAEB0
:021ADA00AEAEAE
:021ADC00AEAEAC
:021ADE00AEADAB
:021AE000AEAEA8
:021AE200ACAEA8
:021AE400ADADA6
:021AE600C1B984
:021AE800FEFE00
:021AEA00FEFEFE
:021AEC00FEFEFC
:021AEE00FEFEFA
:021AF000FEFEF8
:021AF200FEFEF6
:021AF400FEFEF4
:021AF600FEFEF2
:021AF800FEFEF0
:021AFA00FEFEEE
:021AFC00FEFEEC
:021AFE00FEFEEA
:021B0000FEFEE7
:021B0200FEFEE5
:021B0400FEFEE3
:021B0600FEFEE1
:021B0800FEFEDF
:021B0A00FEFEDD
:021B0C00FEFEDB
:021B0E00FEFED9
:021B1000FEFED7
:021B1200FEFED5
:021B1400FEFED3
:021B1600FEFED1
:021B1800FEFECF
:021B1A00FEFECD
:021B1C00FEFECB
:021B1E00FEFEC9
:021B2000FEFEC7
:021B2200FEFEC5
:021B2400FEFEC3
:021B2600FEFEC1
:021B2800AEAE5F
:021B2A00B5AE56
:021B2C00B5AE54
:021B2E00C2AE45
:021B3000B5AE50
:021B3200B5AE4E
:021B3400AEB54C
:021B3600AEAE51
:021B3800B5AE48
:021B3A00B5AE46
:021B3C00AEBA3F
:021B3E00AEBA3D
:021B4000AEBA3B
:021B4200AEAE45
:021B4400B5B535
:021B4600AEAE41
:021B4800B5AE38
:021B4A00AEAE3D
:021B4C00B5AE34
:021B4E00B5B52B
:021B5000AEB530
:021B5200AEB52E
:021B5400AEB52C
:021B5600AEB52A
:021B5800AEAE2F
:021B5A00B5AE26
:021B5C00B5AE24
:021B5E00AEB522
:021B6000AEAE27
:021B6200AEB51E
:021B6400AEAE23
:021B6600AEB51A
:021B6800AEAE1F
:021B6A00AEB516
:021B6C00AEAE1B
:021B6E00AEAE19
:021B7000AEAE17
:021B7200AEAE15
:021B7400AEAE13
:021B7600AEAD12
:021B7800AEAE0F
:021B7A00ADAE0E
:021B7C00AEAE0B
:021B7E00B5A010
:021B8000AEAE07
:021B8200AEAE05
:021B8400AEAE03
:021B8600AEAE01
:021B8800ACAE01
:021B8A00ACAEFF
:021B8C00AEAEFB
:021B8E00B9A1FB
:021B9000FEFE57
:021B9200FEFE55
:021B9400FEFE53
:021B9600FEFE51
:021B9800FEFE4F
:021B9A00FEFE4D
:021B9C00FEFE4B
:021B9E00FEFE49
:021BA000FEFE47
:021BA200FEFE45
:021BA400FEFE43
:021BA600FEFE41
:021BA800FEFE3F
:021BAA00FEFE3D
:021BAC00FEFE3B
:021BAE00FEFE39
:021BB000FEFE37
:021BB200FEFE35
:021BB400FEFE33
:021BB600FEFE31
:021BB800FEFE2F
:021BBA00FEFE2D
:021BBC00FEFE2B
:021BBE00FEFE29
:021BC000FEFE27
:021BC200FEFE25
:021BC400FEFE23
:021BC600FEFE21
:021BC800FEFE1F
:021BCA00FEFE1D
:021BCC00FEFE1B
:021BCE00FEB562
:021BD000B5BAA4
:021BD200AEAEB5
:021BD400BAAEA7
:021BD600AEAEB1
:021BD800AEBAA3
:021BDA00AEB5A6
:021BDC00AEAEAB
:021BDE00AEB5A2
:021BE000AEAEA7
:021BE200AEAEA5
:021BE400B5AE9C
:021BE600B5BA8E
:021BE800B5AE98
:021BEA00B5AE96
:021BEC00BAAE8F
:021BEE00AEB592
:021BF000AEB590
:021BF200AEB58E
:021BF400AEAE93
:021BF600ADAE92
:021BF800AEAE8F
:021BFA00B5AE86
:021BFC00AEAE8B
:021BFE00AEAE89
:021C0000B5AE7F
:021C0200AEAE84
:021C0400AEAE82
:021C0600B5AE79
:021C0800AEAE7E
:021C0A00AEAE7C
:021C0C00AEAE7A
:021C0E00AEAE78
:021C1000AEAE76
:021C1200AEAE74
:021C1400AEB56B
:021C1600AEB569
:021C1800AEAE6E
:021C1A00AEAE6C
:021C1C00AEAE6A
:021C1E00AEAE68
:021C2000B5AE5F
:021C2200AEAE64
:021C2400AEAE62
:021C2600ADAE61
:021C2800AEAE5E
:021C2A00AEAD5D
:021C2C00AEAD5B
:021C2E00AEAC5A
:021C3000AEAE56
:021C3200AEAC56
:021C3400AEAC54
:021C3600AEA15D
:021C3800FEFEAE
:021C3A00FEFEAC
:021C3C00FEFEAA
:021C3E00FEFEA8
:021C4000FEFEA6
:021C4200FEFEA4
:021C4400FEFEA2
:021C4600FEFEA0
:021C4800FEFE9E
:021C4A00FEFE9C
:021C4C00FEFE9A
:021C4E00FEFE98
:021C5000FEFE96
:021C5200FEFE94
:021C5400FEFE92
:021C5600FEFE90
:021C5800FEFE8E
:021C5A00FEFE8C
:021C5C00FEFE8A
:021C5E00FEFE88
:021C6000FEFE86
:021C6200FEFE84
:021C6400FEFE82
:021C6600FEFE80
:021C6800FEFE7E
:021C6A00FEFE7C
:021C6C00FEFE7A
:021C6E00FEFE78
:021C7000FEFE76
:021C7200FEFE74
:021C7400FEAEC2
:021C7600AEAE10
:021C7800AEAE0E
:021C7A00B5AE05
:021C7C00B5AE03
:021C7E00B5C2ED
:021C8000AEB5FF
:021C8200AEB5FD
:021C8400AEAE02
:021C8600B5AEF9
:021C8800AEB5F7
:021C8A00AEB5F5
:021C8C00AEBAEE
:021C8E00AEAEF8
:021C9000AEAEF6
:021C9200BAAEE8
:021C9400B5AEEB
:021C9600B5AEE9
:021C9800AEAEEE
:021C9A00AEAEEC
:021C9C00AEAEEA
:021C9E00B5AEE1
:021CA000B5AEDF
:021CA200B5ADDE
:021CA400AEB5DB
:021CA600ADB5DA
:021CA800AEAEDE
:021CAA00AEB5D5
:021CAC00AEB5D3
:021CAE00AEBACC
:021CB000AEAED6
:021CB200AEB5CD
:021CB400AEADD3
:021CB600AEAED0
:021CB800AEAECE
:021CBA00B5AEC5
:021CBC00AEAECA
:021CBE00AEAEC8
:021CC000AEAEC6
:021CC200AEB5BD
:021CC400AEAEC2
:021CC600AEADC1
:021CC800AEA0CC
:021CCA00AEAEBC
:021CCC00ADAEBB
:021CCE00AEAEB8
:021CD000ADAEB7
:021CD200AEADB5
:021CD400AEAEB2
:021CD600AEAEB0
:021CD800AEAEAE
:021CDA00ACAEAE
:021CDC00ADAEAB
:021CDE00B9A1AA
:021CE000FEFE06
:021CE200FEFE04
:021CE400FEFE02
:021CE600FEFE00
:021CE800FEFEFE
:021CEA00FEFEFC
:021CEC00FEFEFA
:021CEE00FEFEF8
:021CF000FEFEF6
:021CF200FEFEF4
:021CF400FEFEF2
:021CF600FEFEF0
:021CF800FEFEEE
:021CFA00FEFEEC
:021CFC00FEFEEA
:021CFE00FEFEE8
:021D0000FEFEE5
:021D0200FEFEE3
:021D0400FEFEE1
:021D0600FEFEDF
:021D0800FEFEDD
:021D0A00FEFEDB
:021D0C00FEFED9
:021D0E00FEFED7
:021D1000FEFED5
:021D1200FEFED3
:021D1400FEFED1
:021D1600FEFECF
:021D1800FEFECD
:021D1A00FEFECB
:021D1C00FEAE19
:021D1E00B5AE60
:021D2000AEB55E
:021D2200AEAE63
:021D2400BAAE55
:021D2600BAAE53
:021D2800AEBA51
:021D2A00AEAE5B
:021D2C00C2B53E
:021D2E00AEB550
:021D3000AEAE55
:021D3200AEAE53
:021D3400B5AE4A
:021D3600B5AE48
:021D3800BAB53A
:021D3A00AEBA3F
:021D3C00AEAE49
:021D3E00AEB540
:021D4000AEB53E
:021D4200AEB53C
:021D4400B5AE3A
:021D4600AEB538
:021D4800AEAE3D
:021D4A00AEAE3B
:021D4C00B5AE32
:021D4E00B5AE30
:021D5000AEB52E
:021D5200AEAE33
:021D5400AEAE31
:021D5600B5AE28
:021D5800B5AE26
:021D5A00B5AE24
:021D5C00AEAE29
:021D5E00B5AE20
:021D6000AEB51E
:021D6200AEAE23
:021D6400AEB51A
:021D6600AEAE1F
:021D6800AEB516
:021D6A00AEAE1B
:021D6C00AEAE19
:021D6E00AEAE17
:021D7000AEAE15
:021D7200AEAE13
:021D7400ADAE12
:021D7600AEAE0F
:021D7800AEAE0D
:021D7A00AEAE0B
:021D7C00AEAE09
:021D7E00AEAC09
:021D8000AEAC07
:021D8200C1ACF2
:021D8400AEAD02
:021D8600C1B9E1
:021D8800FEFE5D
:021D8A00FEFE5B
:021D8C00FEFE59
:021D8E00FEFE57
:021D9000FEFE55
:021D9200FEFE53
:021D9400FEFE51
:021D9600FEFE4F
:021D9800FEFE4D
:021D9A00FEFE4B
:021D9C00FEFE49
:021D9E00FEFE47
:021DA000FEFE45
:021DA200FEFE43
:021DA400FEFE41
:021DA600FEFE3F
:021DA800FEFE3D
:021DAA00FEFE3B
:021DAC00FEFE39
:021DAE00FEFE37
:021DB000FEFE35
:021DB200FEFE33
:021DB400FEFE31
:021DB600FEFE2F
:021DB800FEFE2D
:021DBA00FEFE2B
:021DBC00FEFE29
:021DBE00FEFE27
:021DC000FEFE25
:021DC200FEAE73
:021DC400B5AEBA
:021DC600AEAEBF
:021DC800B5AEB6
:021DCA00BAAEAF
:021DCC00B5AEB2
:021DCE00B5BAA4
:021DD000AEB5AE
:021DD200AEB5AC
:021DD400AEAEB1
:021DD600AEAEAF
:021DD800AEB5A6
:021DDA00BAB598
:021DDC00AEAEA9
:021DDE00AEAEA7
:021DE000B5AE9E
:021DE200AEB59C
:021DE400AEB59A
:021DE600AEB598
:021DE800AEAE9D
:021DEA00AEAE9B
:021DEC00AEAE99
:021DEE00B5AE90
:021DF000AEB58E
:021DF200ADB58D
:021DF400AEAE91
:021DF600AEAE8F
:021DF800AEB586
:021DFA00AEB584
:021DFC00AEB582
:021DFE00AEAE87
:021E0000AEAE84
:021E0200AEAE82
:021E0400AEAE80
:021E0600AEAE7E
:021E0800ADAE7D
:021E0A00AEAE7A
:021E0C00AEAE78
:021E0E00AEAE76
:021E1000B5AE6D
:021E1200AEAE72
:021E1400AEAE70
:021E1600AEAE6E
:021E1800AEAE6C
:021E1A00ADAE6B
:021E1C00AEAE68
:021E1E00AEAD67
:021E2000AEAE64
:021E2200AEAD63
:021E2400AE9F6F
:021E2600AEAE5E
:021E2800ACC14B
:021E2A00ACAE5C
:021E2C00AEAD59
:021E2E00B9A158
:021E3000FEFEB4
:021E3200FEFEB2
:021E3400FEFEB0
:021E3600FEFEAE
:021E3800FEFEAC
:021E3A00FEFEAA
:021E3C00FEFEA8
:021E3E00FEFEA6
:021E4000FEFEA4
:021E4200FEFEA2
:021E4400FEFEA0
:021E4600FEFE9E
:021E4800FEFE9C
:021E4A00FEFE9A
:021E4C00FEFE98
:021E4E00FEFE96
:021E5000FEFE94
:021E5200FEFE92
:021E5400FEFE90
:021E5600FEFE8E
:021E5800FEFE8C
:021E5A00FEFE8A
:021E5C00FEFE88
:021E5E00FEFE86
:021E6000FEFE84
:021E6200FEFE82
:021E6400FEFE80
:021E6600FEFE7E
:021E6800FEFE7C
:021E6A00B5AE13
:021E6C00AEB511
:021E6E00B5AE0F
:021E7000AEAE14
:021E7200B5AE0B
:021E7400AEB509
:021E7600AEAE0E
:021E7800B5AE05
:021E7A00C2AEF6
:021E7C00B5AE01
:021E7E00BAB5F3
:021E8000AEAE04
:021E8200B5A009
:021E8400B5AEF9
:021E8600B5AEF7
:021E8800AEBAF0
:021E8A00B5AEF3
:021E8C00AEAEF8
:021E8E00AEAEF6
:021E9000AEB5ED
:021E9200AEB5EB
:021E9400AEAEF0
:021E9600AEB5E7
:021E9800ADAEED
:021E9A00B5AEE3
:021E9C00B5ADE2
:021E9E00B5ADE0
:021EA000B5AEDD
:021EA200AEAEE2
:021EA400AEAEE0
:021EA600AEB5D7
:021EA800AEAEDC
:021EAA00B5AED3
:021EAC00AEB5D1
:021EAE00ADAED7
:021EB000AEAED4
:021EB200AEAED2
:021EB400AEAED0
:021EB600AEAECE
:021EB800AEAECC
:021EBA00AEAECA
:021EBC00AEAEC8
:021EBE00AEAEC6
:021EC000ADAEC5
:021EC200ACAEC4
:021EC400AEAEC0
:021EC600ADAEBF
:021EC800AEAEBC
:021ECA00AEACBC
:021ECC00AEAEB8
:021ECE00AEAEB6
:021ED000ACAEB6
:021ED200ACAEB4
:021ED400ACADB3
:021ED600C1A2A7
:021ED800FEFE0C
:021EDA00FEFE0A
:021EDC00FEFE08
:021EDE00FEFE06
:021EE000FEFE04
:021EE200FEFE02
:021EE400FEFE00
:021EE600FEFEFE
:021EE800FEFEFC
:021EEA00FEFEFA
:021EEC00FEFEF8
:021EEE00FEFEF6
:021EF000FEFEF4
:021EF200FEFEF2
:021EF400FEFEF0
:021EF600FEFEEE
:021EF800FEFEEC
:021EFA00FEFEEA
:021EFC00FEFEE8
:021EFE00FEFEE6
:021F0000FEFEE3
:021F0200FEFEE1
:021F0400FEFEDF
:021F0600FEFEDD
:021F0800FEFEDB
:021F0A00FEFED9
:021F0C00FEFED7
:021F0E00FEFED5
:021F1000FEAE23
:021F1200B5AE6A
:021F1400B5AE68
:021F1600AEAE6D
:021F1800B5B55D
:021F1A00AEAE69
:021F1C00B5BA54
:021F1E00AEB55E
:021F2000BAAE57
:021F2200AEBA55
:021F2400AEAE5F
:021F2600B5B54F
:021F2800AEAE5B
:021F2A00B5AE52
:021F2C00B5AE50
:021F2E00AEBA49
:021F3000AEB54C
:021F3200AEAE51
:021F3400AEB548
:021F3600ADAE4E
:021F3800B5AE44
:021F3A00AEAE49
:021F3C00AEB540
:021F3E00AEB53E
