:02000000EFEF20
:02000100EFEF1F
:02000200EFEF1E
:02000300EFEF1D
:02000400EFEF1C
:02000500EFEF1B
:02000600EFEF1A
:02000700EFEF19
:02000800EFEF18
:02000900EFEF17
:02000A00EFEF16
:02000B00EFEF15
:02000C00EFEF14
:02000D00EFEF13
:02000E00EFEF12
:02000F00EFEF11
:02001000EFEF10
:02001100EFEF0F
:02001200EFEF0E
:02001300EFEF0D
:02001400EFEF0C
:02001500EFEF0B
:02001600EFEF0A
:02001700EFEF09
:02001800EFEF08
:02001900EFEF07
:02001A00EFEF06
:02001B00EFEF05
:02001C00EFEF04
:02001D00EFEF03
:02001E00EFEF02
:02001F00EFEF01
:02002000EFEF00
:02002100EFEFFF
:02002200EFEFFE
:02002300EFEFFD
:02002400EFEFFC
:02002500EFEFFB
:02002600EFEFFA
:02002700EFEFF9
:02002800EFEFF8
:02002900EFEFF7
:02002A00EFEFF6
:02002B00EFEFF5
:02002C00EFEFF4
:02002D00EFEFF3
:02002E00EFEFF2
:02002F00EFEFF1
:02003000EFEFF0
:02003100EFEFEF
:02003200EFEFEE
:02003300EFEFED
:02003400EFEFEC
:02003500EFEFEB
:02003600EFEFEA
:02003700EFEFE9
:02003800EFEFE8
:02003900EFEFE7
:02003A00EFEFE6
:02003B00EFEFE5
:02003C00EFEFE4
:02003D00EFEFE3
:02003E00EFEFE2
:02003F00EFEFE1
:02004000EFEFE0
:02004100EFEFDF
:02004200EFEFDE
:02004300EFEFDD
:02004400EFEFDC
:02004500EFEFDB
:02004600EFEFDA
:02004700EFEFD9
:02004800EFEFD8
:02004900EFEFD7
:02004A00EFEFD6
:02004B00EFEFD5
:02004C00EFEFD4
:02004D00EFEFD3
:02004E00EFEFD2
:02004F00EFEFD1
:02005000EFEFD0
:02005100EFEFCF
:02005200EFEFCE
:02005300EFEFCD
:02005400EFEFCC
:02005500EFEFCB
:02005600EFEFCA
:02005700EFEFC9
:02005800EFEFC8
:02005900EFEFC7
:02005A00EFEFC6
:02005B00EFEFC5
:02005C00EFEFC4
:02005D00EFEFC3
:02005E00EFEFC2
:02005F00EFEFC1
:02006000EFEFC0
:02006100EFEFBF
:02006200EFEFBE
:02006300EFEFBD
:02006400EFEFBC
:02006500EFEFBB
:02006600EFEFBA
:02006700EFEFB9
:02006800EFEFB8
:02006900EFEFB7
:02006A00EFEFB6
:02006B00EFEFB5
:02006C00EFEFB4
:02006D00EFEFB3
:02006E00EFEFB2
:02006F00EFEFB1
:02007000EFEFB0
:02007100EFEFAF
:02007200EFEFAE
:02007300EFEFAD
:02007400EFEFAC
:02007500EFEFAB
:02007600EFEFAA
:02007700EFEFA9
:02007800EFEFA8
:02007900EFEFA7
:02007A00EFEFA6
:02007B00EFEFA5
:02007C00EFEFA4
:02007D00EFEFA3
:02007E00EFEFA2
:02007F00EFEFA1
:02008000EFEFA0
:02008100EFEF9F
:02008200EFEF9E
:02008300EFEF9D
:02008400EFEF9C
:02008500EFEF9B
:02008600EFEF9A
:02008700EFEF99
:02008800EFEF98
:02008900EFEF97
:02008A00EFEF96
:02008B00EFEF95
:02008C00EFEF94
:02008D00EFEF93
:02008E00EFEF92
:02008F00EFEF91
:02009000EFEF90
:02009100EFEF8F
:02009200EFEF8E
:02009300EFEF8D
:02009400EFEF8C
:02009500EFEF8B
:02009600EFEF8A
:02009700EFEF89
:02009800EFEF88
:02009900EFEF87
:02009A00EFEF86
:02009B00EFEF85
:02009C00EFEF84
:02009D00EFEF83
:02009E00EFEF82
:02009F00EFEF81
:0200A000EFEF80
:0200A100EFEF7F
:0200A200EFEF7E
:0200A300EFEF7D
:0200A400EFEF7C
:0200A500EFEF7B
:0200A600EFEF7A
:0200A700EFEF79
:0200A800EFEF78
:0200A900EFEF77
:0200AA00EFEF76
:0200AB00EFEF75
:0200AC00EFEF74
:0200AD00EFEF73
:0200AE00EFEF72
:0200AF00EFEF71
:0200B000EFEF70
:0200B100EFEF6F
:0200B200EFEF6E
:0200B300EFEF6D
:0200B400EFEF6C
:0200B500EFEF6B
:0200B600EFEF6A
:0200B700EFEF69
:0200B800EFEF68
:0200B900EFEF67
:0200BA00EFEF66
:0200BB00EFEF65
:0200BC00EFEF64
:0200BD00EFEF63
:0200BE00EFEF62
:0200BF00EFEF61
:0200C000EFEF60
:0200C100EFEF5F
:0200C200EFEF5E
:0200C300EFEF5D
:0200C400EFEF5C
:0200C500EFEF5B
:0200C600EFEF5A
:0200C700EFEF59
:0200C800EFEF58
:0200C900EFEF57
:0200CA00EFEF56
:0200CB00EFEF55
:0200CC00EFEF54
:0200CD00EFEF53
:0200CE00EFEF52
:0200CF00EFEF51
:0200D000EFEF50
:0200D100EFEF4F
:0200D200EFEF4E
:0200D300EFEF4D
:0200D400EFEF4C
:0200D500EFEF4B
:0200D600EFEF4A
:0200D700EFEF49
:0200D800EFEF48
:0200D900EFEF47
:0200DA00EFEF46
:0200DB00EFEF45
:0200DC00EFEF44
:0200DD00EFEF43
:0200DE00EFEF42
:0200DF00EFEF41
:0200E000EFEF40
:0200E100EFEF3F
:0200E200EFEF3E
:0200E300EFEF3D
:0200E400EFEF3C
:0200E500EFEF3B
:0200E600EFEF3A
:0200E700EFEF39
:0200E800EFEF38
:0200E900EFEF37
:0200EA00EFEF36
:0200EB00EFEF35
:0200EC00EFEF34
:0200ED00EFEF33
:0200EE00EFEF32
:0200EF00EFEF31
:0200F000EFEF30
:0200F100EFEF2F
:0200F200EFEF2E
:0200F300EFEF2D
:0200F400EFEF2C
:0200F500EFEF2B
:0200F600EFEF2A
:0200F700EFEF29
:0200F800EFEF28
:0200F900EFEF27
:0200FA00EFEF26
:0200FB00EFEF25
:0200FC00EFEF24
:0200FD00EFEF23
:0200FE00EFEF22
:0200FF00EFEF21
:02010000EFEF1F
:02010100EFEF1E
:02010200EFEF1D
:02010300EFEF1C
:02010400EFEF1B
:02010500EFEF1A
:02010600EFEF19
:02010700EFEF18
:02010800EFEF17
:02010900EFEF16
:02010A00EFEF15
:02010B00EFEF14
:02010C00EFEF13
:02010D00EFEF12
:02010E00EFEF11
:02010F00EFEF10
:02011000EFEF0F
:02011100EFEF0E
:02011200EFEF0D
:02011300EFEF0C
:02011400EFEF0B
:02011500EFEF0A
:02011600EFEF09
:02011700EFEF08
:02011800EFEF07
:02011900EFEF06
:02011A00EFEF05
:02011B00EFEF04
:02011C00EFEF03
:02011D00EFEF02
:02011E00EFEF01
:02011F00EFEF00
:02012000EFEFFF
:02012100EFEFFE
:02012200EFEFFD
:02012300EFEFFC
:02012400EFEFFB
:02012500EFEFFA
:02012600EFEFF9
:02012700EFEFF8
:02012800EFEFF7
:02012900EFEFF6
:02012A00EFEFF5
:02012B00EFEFF4
:02012C00EFEFF3
:02012D00EFEFF2
:02012E00EFEFF1
:02012F00EFEFF0
:02013000EFEFEF
:02013100EFEFEE
:02013200EFEFED
:02013300EFEFEC
:02013400EFEFEB
:02013500EFEFEA
:02013600EFEFE9
:02013700EFEFE8
:02013800EFEFE7
:02013900EFEFE6
:02013A00EFEFE5
:02013B00EFEFE4
:02013C00EFEFE3
:02013D00EFEFE2
:02013E00EFEFE1
:02013F00EFEFE0
:02014000EFEFDF
:02014100EFEFDE
:02014200EFEFDD
:02014300EFEFDC
:02014400EFEFDB
:02014500EFEFDA
:02014600EFEFD9
:02014700EFEFD8
:02014800EFEFD7
:02014900EFEFD6
:02014A00EFEFD5
:02014B00EFEFD4
:02014C00EFEFD3
:02014D00EFEFD2
:02014E00EFEFD1
:02014F00EFEFD0
:02015000EFEFCF
:02015100EFEFCE
:02015200EFEFCD
:02015300EFEFCC
:02015400EFEFCB
:02015500EFEFCA
:02015600EFEFC9
:02015700EFEFC8
:02015800EFEFC7
:02015900EFEFC6
:02015A00EFEFC5
:02015B00EFEFC4
:02015C00EFEFC3
:02015D00EFEFC2
:02015E00EFEFC1
:02015F00EFEFC0
:02016000EFEFBF
:02016100EFEFBE
:02016200EFEFBD
:02016300EFEFBC
:02016400EFEFBB
:02016500EFEFBA
:02016600EFEFB9
:02016700EFEFB8
:02016800EFEFB7
:02016900EFEFB6
:02016A00EFEFB5
:02016B00EFEFB4
:02016C00EFEFB3
:02016D00EFEFB2
:02016E00EFEFB1
:02016F00EFEFB0
:02017000EFEFAF
:02017100EFEFAE
:02017200EFEFAD
:02017300EFEFAC
:02017400EFEFAB
:02017500EFEFAA
:02017600EFEFA9
:02017700EFEFA8
:02017800EFEFA7
:02017900EFEFA6
:02017A00EFEFA5
:02017B00EFEFA4
:02017C00EFEFA3
:02017D00EFEFA2
:02017E00EFEFA1
:02017F00EFEFA0
:02018000EFEF9F
:02018100EFEF9E
:02018200EFEF9D
:02018300EFEF9C
:02018400EFEF9B
:02018500EFEF9A
:02018600EFEF99
:02018700EFEF98
:02018800EFEF97
:02018900EFEF96
:02018A00EFEF95
:02018B00EFEF94
:02018C00EFEF93
:02018D00EFEF92
:02018E00EFEF91
:02018F00EFEF90
:02019000EFEF8F
:02019100EFEF8E
:02019200EFEF8D
:02019300EFEF8C
:02019400EFEF8B
:02019500EFEF8A
:02019600EFEF89
:02019700EFEF88
:02019800EFEF87
:02019900EFEF86
:02019A00EFEF85
:02019B00EFEF84
:02019C00EFEF83
:02019D00EFEF82
:02019E00EFEF81
:02019F00EFEF80
:0201A000EFEF7F
:0201A100EFEF7E
:0201A200EFEF7D
:0201A300EFEF7C
:0201A400EFEF7B
:0201A500EFEF7A
:0201A600EFEF79
:0201A700EFEF78
:0201A800EFEF77
:0201A900EFEF76
:0201AA00EFEF75
:0201AB00EFEF74
:0201AC00EFEF73
:0201AD00EFEF72
:0201AE00EFEF71
:0201AF00EFEF70
:0201B000EFEF6F
:0201B100EFEF6E
:0201B200EFEF6D
:0201B300EFEF6C
:0201B400EFEF6B
:0201B500EFEF6A
:0201B600EFEF69
:0201B700EFEF68
:0201B800EFEF67
:0201B900EFEF66
:0201BA00EFEF65
:0201BB00EFEF64
:0201BC00EFEF63
:0201BD00EFEF62
:0201BE00EFEF61
:0201BF00EFEF60
:0201C000EFEF5F
:0201C100EFEF5E
:0201C200EFEF5D
:0201C300EFEF5C
:0201C400EFEF5B
:0201C500EFEF5A
:0201C600EFEF59
:0201C700EFEF58
:0201C800EFEF57
:0201C900EFEF56
:0201CA00EFEF55
:0201CB00EFEF54
:0201CC00EFEF53
:0201CD00EFEF52
:0201CE00EFEF51
:0201CF00EFEF50
:0201D000EFEF4F
:0201D100EFEF4E
:0201D200EFEF4D
:0201D300EFEF4C
:0201D400EFEF4B
:0201D500EFEF4A
:0201D600EFEF49
:0201D700EFEF48
:0201D800EFEF47
:0201D900EFEF46
:0201DA00EFEF45
:0201DB00EFEF44
:0201DC00EFEF43
:0201DD00EFEF42
:0201DE00EFEF41
:0201DF00EFEF40
:0201E000EFEF3F
:0201E100EFEF3E
:0201E200EFEF3D
:0201E300EFEF3C
:0201E400EFEF3B
:0201E500EFEF3A
:0201E600EFEF39
:0201E700EFEF38
:0201E800EFEF37
:0201E900EFEF36
:0201EA00EFEF35
:0201EB00EFEF34
:0201EC00EFEF33
:0201ED00EFEF32
:0201EE00EFEF31
:0201EF00EFEF30
:0201F000EFEF2F
:0201F100EFEF2E
:0201F200EFEF2D
:0201F300EFEF2C
:0201F400EFEF2B
:0201F500EFEF2A
:0201F600EFEF29
:0201F700EFEF28
:0201F800EFEF27
:0201F900EFEF26
:0201FA00EFEF25
:0201FB00EFEF24
:0201FC00EFEF23
:0201FD00EFEF22
:0201FE00EFEF21
:0201FF00EFEF20
:02020000EFEF1E
:02020100EFEF1D
:02020200EFEF1C
:02020300EFEF1B
:02020400EFEF1A
:02020500EFEF19
:02020600EFEF18
:02020700EFEF17
:02020800EFEF16
:02020900EFEF15
:02020A00EFEF14
:02020B00EFEF13
:02020C00EFEF12
:02020D00EFEF11
:02020E00EFEF10
:02020F00EFEF0F
:02021000EFEF0E
:02021100EFEF0D
:02021200EFEF0C
:02021300EFEF0B
:02021400EFEF0A
:02021500EFEF09
:02021600EFEF08
:02021700EFEF07
:02021800EFEF06
:02021900EFEF05
:02021A00EFEF04
:02021B00EFEF03
:02021C00EFEF02
:02021D00EFEF01
:02021E00EFEF00
:02021F00EFEFFF
:02022000EFEFFE
:02022100EFEFFD
:02022200EFEFFC
:02022300EFEFFB
:02022400EFEFFA
:02022500EFEFF9
:02022600EFEFF8
:02022700EFEFF7
:02022800EFEFF6
:02022900EFEFF5
:02022A00EFEFF4
:02022B00EFEFF3
:02022C00EFEFF2
:02022D00EFEFF1
:02022E00EFEFF0
:02022F00EFEFEF
:02023000EFEFEE
:02023100EFEFED
:02023200EFEFEC
:02023300EFEFEB
:02023400EFEFEA
:02023500EFEFE9
:02023600EFEFE8
:02023700EFEFE7
:02023800EFEFE6
:02023900EFEFE5
:02023A00EFEFE4
:02023B00EFEFE3
:02023C00EFEFE2
:02023D00EFEFE1
:02023E00EFEFE0
:02023F00EFEFDF
:02024000EFEFDE
:02024100EFEFDD
:02024200EFEFDC
:02024300EFEFDB
:02024400EFEFDA
:02024500EFEFD9
:02024600EFEFD8
:02024700EFEFD7
:02024800EFEFD6
:02024900EFEFD5
:02024A00EFEFD4
:02024B00EFEFD3
:02024C00EFEFD2
:02024D00EFEFD1
:02024E00EFEFD0
:02024F00EFEFCF
:02025000EFEFCE
:02025100EFEFCD
:02025200EFEFCC
:02025300EFEFCB
:02025400EFEFCA
:02025500EFEFC9
:02025600EFEFC8
:02025700EFEFC7
:02025800EFEFC6
:02025900EFEFC5
:02025A00EFEFC4
:02025B00EFEFC3
:02025C00EFEFC2
:02025D00EFEFC1
:02025E00EFEFC0
:02025F00EFEFBF
:02026000EFEFBE
:02026100EFEFBD
:02026200EFEFBC
:02026300EFEFBB
:02026400EFEFBA
:02026500EFEFB9
:02026600EFEFB8
:02026700EFEFB7
:02026800EFEFB6
:02026900EFEFB5
:02026A00EFEFB4
:02026B00EFEFB3
:02026C00EFEFB2
:02026D00EFEFB1
:02026E00EFEFB0
:02026F00EFEFAF
:02027000EFEFAE
:02027100EFEFAD
:02027200EFEFAC
:02027300EFEFAB
:02027400EFEFAA
:02027500EFEFA9
:02027600EFEFA8
:02027700EFEFA7
:02027800EFEFA6
:02027900EFEFA5
:02027A00EFEFA4
:02027B00EFEFA3
:02027C00EFEFA2
:02027D00EFEFA1
:02027E00EFEFA0
:02027F00EFEF9F
:02028000EFEF9E
:02028100EFEF9D
:02028200EFEF9C
:02028300EFEF9B
:02028400EFEF9A
:02028500EFEF99
:02028600EFEF98
:02028700EFEF97
:02028800EFEF96
:02028900EFEF95
:02028A00EFEF94
:02028B00EFEF93
:02028C00EFEF92
:02028D00EFEF91
:02028E00EFEF90
:02028F00EFEF8F
:02029000EFEF8E
:02029100EFEF8D
:02029200EFEF8C
:02029300EFEF8B
:02029400EFEF8A
:02029500EFEF89
:02029600EFEF88
:02029700EFEF87
:02029800EFEF86
:02029900EFEF85
:02029A00EFEF84
:02029B00EFEF83
:02029C00EFEF82
:02029D00EFEF81
:02029E00EFEF80
:02029F00EFEF7F
:0202A000EFEF7E
:0202A100EFEF7D
:0202A200EFEF7C
:0202A300EFEF7B
:0202A400EFEF7A
:0202A500EFEF79
:0202A600EFEF78
:0202A700EFEF77
:0202A800EFEF76
:0202A900EFEF75
:0202AA00EFEF74
:0202AB00EFEF73
:0202AC00EFEF72
:0202AD00EFEF71
:0202AE00EFEF70
:0202AF00EFEF6F
:0202B000EFEF6E
:0202B100EFEF6D
:0202B200EFEF6C
:0202B300EFEF6B
:0202B400EFEF6A
:0202B500EFEF69
:0202B600EFEF68
:0202B700EFEF67
:0202B800EFEF66
:0202B900EFEF65
:0202BA00EFEF64
:0202BB00EFEF63
:0202BC00EFEF62
:0202BD00EFEF61
:0202BE00EFEF60
:0202BF00EFEF5F
:0202C000EFEF5E
:0202C100EFEF5D
:0202C200EFEF5C
:0202C300EFEF5B
:0202C400EFEF5A
:0202C500EFEF59
:0202C600EFEF58
:0202C700EFEF57
:0202C800EFEF56
:0202C900EFEF55
:0202CA00EFEF54
:0202CB00EFEF53
:0202CC00EFEF52
:0202CD00EFEF51
:0202CE00EFEF50
:0202CF00EFEF4F
:0202D000EFEF4E
:0202D100EFEF4D
:0202D200EFEF4C
:0202D300EFEF4B
:0202D400EFEF4A
:0202D500EFEF49
:0202D600EFEF48
:0202D700EFEF47
:0202D800EFEF46
:0202D900EFEF45
:0202DA00EFEF44
:0202DB00EFEF43
:0202DC00EFEF42
:0202DD00EFEF41
:0202DE00EFEF40
:0202DF00EFEF3F
:0202E000EFEF3E
:0202E100EFEF3D
:0202E200EFEF3C
:0202E300EFEF3B
:0202E400EFEF3A
:0202E500EFEF39
:0202E600EFEF38
:0202E700EFEF37
:0202E800EFEF36
:0202E900EFEF35
:0202EA00EFEF34
:0202EB00EFEF33
:0202EC00EFEF32
:0202ED00EFEF31
:0202EE00EFEF30
:0202EF00EFEF2F
:0202F000EFEF2E
:0202F100EFEF2D
:0202F200EFEF2C
:0202F300EFEF2B
:0202F400EFEF2A
:0202F500EFEF29
:0202F600EFEF28
:0202F700EFEF27
:0202F800EFEF26
:0202F900EFEF25
:0202FA00EFEF24
:0202FB00EFEF23
:0202FC00EFEF22
:0202FD00EFEF21
:0202FE00EFEF20
:0202FF00EFEF1F
:02030000EFEF1D
:02030100EFEF1C
:02030200EFEF1B
:02030300EFEF1A
:02030400EFEF19
:02030500EFEF18
:02030600EFEF17
:02030700EFEF16
:02030800EFEF15
:02030900EFEF14
:02030A00EFEF13
:02030B00EFEF12
:02030C00EFEF11
:02030D00EFEF10
:02030E00EFEF0F
:02030F00EFEF0E
:02031000EFEF0D
:02031100EFEF0C
:02031200EFEF0B
:02031300EFEF0A
:02031400EFEF09
:02031500EFEF08
:02031600EFEF07
:02031700EFEF06
:02031800EFEF05
:02031900EFEF04
:02031A00EFEF03
:02031B00EFEF02
:02031C00EFEF01
:02031D00EFEF00
:02031E00EFEFFF
:02031F00EFEFFE
:02032000EFEFFD
:02032100EFEFFC
:02032200EFEFFB
:02032300EFEFFA
:02032400EFEFF9
:02032500EFEFF8
:02032600EFEFF7
:02032700EFEFF6
:02032800EFEFF5
:02032900EFEFF4
:02032A00EFEFF3
:02032B00EFEFF2
:02032C00EFEFF1
:02032D00EFEFF0
:02032E00EFEFEF
:02032F00EFEFEE
:02033000EFEFED
:02033100EFEFEC
:02033200EFEFEB
:02033300EFEFEA
:02033400EFEFE9
:02033500EFEFE8
:02033600EFEFE7
:02033700EFEFE6
:02033800EFEFE5
:02033900EFEFE4
:02033A00EFEFE3
:02033B00EFEFE2
:02033C00EFEFE1
:02033D00EFEFE0
:02033E00EFEFDF
:02033F00EFEFDE
:02034000EFEFDD
:02034100EFEFDC
:02034200EFEFDB
:02034300EFEFDA
:02034400EFEFD9
:02034500EFEFD8
:02034600EFEFD7
:02034700EFEFD6
:02034800EFEFD5
:02034900EFEFD4
:02034A00EFEFD3
:02034B00EFEFD2
:02034C00EFEFD1
:02034D00EFEFD0
:02034E00EFEFCF
:02034F00EFEFCE
:02035000EFEFCD
:02035100EFEFCC
:02035200EFEFCB
:02035300EFEFCA
:02035400EFEFC9
:02035500EFEFC8
:02035600EFEFC7
:02035700EFEFC6
:02035800EFEFC5
:02035900EFEFC4
:02035A00EFEFC3
:02035B00EFEFC2
:02035C00EFEFC1
:02035D00EFEFC0
:02035E00EFEFBF
:02035F00EFEFBE
:02036000EFEFBD
:02036100EFEFBC
:02036200EFEFBB
:02036300EFEFBA
:02036400EFEFB9
:02036500EFEFB8
:02036600EFEFB7
:02036700EFEFB6
:02036800EFEFB5
:02036900EFEFB4
:02036A00EFEFB3
:02036B00EFEFB2
:02036C00EFEFB1
:02036D00EFEFB0
:02036E00EFEFAF
:02036F00EFEFAE
:02037000EFEFAD
:02037100EFEFAC
:02037200EFEFAB
:02037300EFEFAA
:02037400EFEFA9
:02037500EFEFA8
:02037600EFEFA7
:02037700EFEFA6
:02037800EFEFA5
:02037900EFEFA4
:02037A00EFEFA3
:02037B00EFEFA2
:02037C00EFEFA1
:02037D00EFEFA0
:02037E00EFEF9F
:02037F00EFEF9E
:02038000EFEF9D
:02038100EFEF9C
:02038200EFEF9B
:02038300EFEF9A
:02038400EFEF99
:02038500EFEF98
:02038600EFEF97
:02038700EFEF96
:02038800EFEF95
:02038900EFEF94
:02038A00EFEF93
:02038B00EFEF92
:02038C00EFEF91
:02038D00EFEF90
:02038E00EFEF8F
:02038F00EFEF8E
:02039000EFEF8D
:02039100EFEF8C
:02039200EFEF8B
:02039300EFEF8A
:02039400EFEF89
:02039500EFEF88
:02039600EFEF87
:02039700EFEF86
:02039800EFEF85
:02039900EFEF84
:02039A00EFEF83
:02039B00EFEF82
:02039C00EFEF81
:02039D00EFEF80
:02039E00EFEF7F
:02039F00EFEF7E
:0203A000EFEF7D
:0203A100EFEF7C
:0203A200EFEF7B
:0203A300EFEF7A
:0203A400EFEF79
:0203A500EFEF78
:0203A600EFEF77
:0203A700EFEF76
:0203A800EFEF75
:0203A900EFEF74
:0203AA00EFEF73
:0203AB00EFEF72
:0203AC00EFEF71
:0203AD00EFEF70
:0203AE00EFEF6F
:0203AF00EFEF6E
:0203B000EFEF6D
:0203B100EFEF6C
:0203B200EFEF6B
:0203B300EFEF6A
:0203B400EFEF69
:0203B500EFEF68
:0203B600EFEF67
:0203B700EFEF66
:0203B800EFEF65
:0203B900EFEF64
:0203BA00EFEF63
:0203BB00EFEF62
:0203BC00EFEF61
:0203BD00EFEF60
:0203BE00EFEF5F
:0203BF00EFEF5E
:0203C000EFEF5D
:0203C100EFEF5C
:0203C200EFEF5B
:0203C300EFEF5A
:0203C400EFEF59
:0203C500EFEF58
:0203C600EFEF57
:0203C700EFEF56
:0203C800EFEF55
:0203C900EFEF54
:0203CA00EFEF53
:0203CB00EFEF52
:0203CC00EFEF51
:0203CD00EFEF50
:0203CE00EFEF4F
:0203CF00EFEF4E
:0203D000EFEF4D
:0203D100EFEF4C
:0203D200EFEF4B
:0203D300EFEF4A
:0203D400EFEF49
:0203D500EFEF48
:0203D600EFEF47
:0203D700EFEF46
:0203D800EFEF45
:0203D900EFEF44
:0203DA00EFEF43
:0203DB00EFEF42
:0203DC00EFEF41
:0203DD00EFEF40
:0203DE00EFEF3F
:0203DF00EFEF3E
:0203E000EFEF3D
:0203E100EFEF3C
:0203E200EFEF3B
:0203E300EFEF3A
:0203E400EFEF39
:0203E500EFEF38
:0203E600EFEF37
:0203E700EFEF36
:0203E800EFEF35
:0203E900EFEF34
:0203EA00EFEF33
:0203EB00EFEF32
:0203EC00EFEF31
:0203ED00EFEF30
:0203EE00EFEF2F
:0203EF00EFEF2E
:0203F000EFEF2D
:0203F100EFEF2C
:0203F200EFEF2B
:0203F300EFEF2A
:0203F400EFEF29
:0203F500EFEF28
:0203F600EFEF27
:0203F700EFEF26
:0203F800EFEF25
:0203F900EFEF24
:0203FA00EFEF23
:0203FB00EFEF22
:0203FC00EFEF21
:0203FD00EFEF20
:0203FE00EFEF1F
:0203FF00EFEF1E
:02040000EFEF1C
:02040100EFEF1B
:02040200EFEF1A
:02040300EFEF19
:02040400EFEF18
:02040500EFEF17
:02040600EFEF16
:02040700EFEF15
:02040800EFEF14
:02040900EFEF13
:02040A00EFEF12
:02040B00EFEF11
:02040C00EFEF10
:02040D00EFEF0F
:02040E00EFEF0E
:02040F00EFEF0D
:02041000EFEF0C
:02041100EFEF0B
:02041200EFEF0A
:02041300EFEF09
:02041400EFEF08
:02041500EFEF07
:02041600EFEF06
:02041700EFEF05
:02041800EFEF04
:02041900EFEF03
:02041A00EFEF02
:02041B00EFEF01
:02041C00EFEF00
:02041D00EFEFFF
:02041E00EFEFFE
:02041F00EFEFFD
:02042000EFEFFC
:02042100EFEFFB
:02042200EFEFFA
:02042300EFEFF9
:02042400EFEFF8
:02042500EFEFF7
:02042600EFEFF6
:02042700EFEFF5
:02042800EFEFF4
:02042900EFEFF3
:02042A00EFEFF2
:02042B00EFEFF1
:02042C00EFEFF0
:02042D00EFEFEF
:02042E00EFEFEE
:02042F00EFEFED
:02043000EFEFEC
:02043100EFEFEB
:02043200EFEFEA
:02043300EFEFE9
:02043400EFEFE8
:02043500EFEFE7
:02043600EFEFE6
:02043700EFEFE5
:02043800EFEFE4
:02043900EFEFE3
:02043A00EFEFE2
:02043B00EFEFE1
:02043C00EFEFE0
:02043D00EFEFDF
:02043E00EFEFDE
:02043F00EFEFDD
:02044000EFEFDC
:02044100EFEFDB
:02044200EFEFDA
:02044300EFEFD9
:02044400EFEFD8
:02044500EFEFD7
:02044600EFEFD6
:02044700EFEFD5
:02044800EFEFD4
:02044900EFEFD3
:02044A00EFEFD2
:02044B00EFEFD1
:02044C00EFEFD0
:02044D00EFEFCF
:02044E00EFEFCE
:02044F00EFEFCD
:02045000EFEFCC
:02045100EFEFCB
:02045200EFEFCA
:02045300EFEFC9
:02045400EFEFC8
:02045500EFEFC7
:02045600EFEFC6
:02045700EFEFC5
:02045800EFEFC4
:02045900EFEFC3
:02045A00EFEFC2
:02045B00EFEFC1
:02045C00EFEFC0
:02045D00EFEFBF
:02045E00EFEFBE
:02045F00EFEFBD
:02046000EFEFBC
:02046100EFEFBB
:02046200EFEFBA
:02046300EFEFB9
:02046400EFEFB8
:02046500EFEFB7
:02046600EFEFB6
:02046700EFEFB5
:02046800EFEFB4
:02046900EFEFB3
:02046A00EFEFB2
:02046B00EFEFB1
:02046C00EFEFB0
:02046D00EFEFAF
:02046E00EFEFAE
:02046F00EFEFAD
:02047000EFEFAC
:02047100EFEFAB
:02047200EFEFAA
:02047300EFEFA9
:02047400EFEFA8
:02047500EFEFA7
:02047600EFEFA6
:02047700EFEFA5
:02047800EFEFA4
:02047900EFEFA3
:02047A00EFEFA2
:02047B00EFEFA1
:02047C00EFEFA0
:02047D00EFEF9F
:02047E00EFEF9E
:02047F00EFEF9D
:02048000EFEF9C
:02048100EFEF9B
:02048200EFEF9A
:02048300EFEF99
:02048400EFEF98
:02048500EFEF97
:02048600EFEF96
:02048700EFEF95
:02048800EFEF94
:02048900EFEF93
:02048A00EFEF92
:02048B00EFEF91
:02048C00EFEF90
:02048D00EFEF8F
:02048E00EFEF8E
:02048F00EFEF8D
:02049000EFEF8C
:02049100EFEF8B
:02049200EFEF8A
:02049300EFEF89
:02049400EFEF88
:02049500EFEF87
:02049600EFEF86
:02049700EFEF85
:02049800EFEF84
:02049900EFEF83
:02049A00EFEF82
:02049B00EFEF81
:02049C00EFEF80
:02049D00EFEF7F
:02049E00EFEF7E
:02049F00EFEF7D
:0204A000EFEF7C
:0204A100EFEF7B
:0204A200EFEF7A
:0204A300EFEF79
:0204A400EFEF78
:0204A500EFEF77
:0204A600EFEF76
:0204A700EFEF75
:0204A800EFEF74
:0204A900EFEF73
:0204AA00EFEF72
:0204AB00EFEF71
:0204AC00EFEF70
:0204AD00EFEF6F
:0204AE00EFEF6E
:0204AF00EFEF6D
:0204B000EFEF6C
:0204B100EFEF6B
:0204B200EFEF6A
:0204B300EFEF69
:0204B400EFEF68
:0204B500EFEF67
:0204B600EFEF66
:0204B700EFEF65
:0204B800EFEF64
:0204B900EFEF63
:0204BA00EFEF62
:0204BB00EFEF61
:0204BC00EFEF60
:0204BD00EFEF5F
:0204BE00EFEF5E
:0204BF00EFEF5D
:0204C000EFEF5C
:0204C100EFEF5B
:0204C200EFEF5A
:0204C300EFEF59
:0204C400EFEF58
:0204C500EFEF57
:0204C600EFEF56
:0204C700EFEF55
:0204C800EFEF54
:0204C900EFEF53
:0204CA00EFEF52
:0204CB00EFEF51
:0204CC00EFEF50
:0204CD00EFEF4F
:0204CE00EFEF4E
:0204CF00EFEF4D
:0204D000EFEF4C
:0204D100EFEF4B
:0204D200EFEF4A
:0204D300EFEF49
:0204D400EFEF48
:0204D500EFEF47
:0204D600EFEF46
:0204D700EFEF45
:0204D800EFEF44
:0204D900EFEF43
:0204DA00EFEF42
:0204DB00EFEF41
:0204DC00EFEF40
:0204DD00EFEF3F
:0204DE00EFEF3E
:0204DF00EFEF3D
:0204E000EFEF3C
:0204E100EFEF3B
:0204E200EFEF3A
:0204E300EFEF39
:0204E400EFEF38
:0204E500EFEF37
:0204E600EFEF36
:0204E700EFEF35
:0204E800EFEF34
:0204E900EFEF33
:0204EA00EFEF32
:0204EB00EFEF31
:0204EC00EFEF30
:0204ED00EFEF2F
:0204EE00EFEF2E
:0204EF00EFEF2D
:0204F000EFEF2C
:0204F100EFEF2B
:0204F200EFEF2A
:0204F300EFEF29
:0204F400EFEF28
:0204F500EFEF27
:0204F600EFEF26
:0204F700EFEF25
:0204F800EFEF24
:0204F900EFEF23
:0204FA00EFEF22
:0204FB00EFEF21
:0204FC00EFEF20
:0204FD00EFEF1F
:0204FE00EFEF1E
:0204FF00EFEF1D
:02050000EFEF1B
:02050100EFEF1A
:02050200EFEF19
:02050300EFEF18
:02050400EFEF17
:02050500EFEF16
:02050600EFEF15
:02050700EFEF14
:02050800EFEF13
:02050900EFEF12
:02050A00EFEF11
:02050B00EFEF10
:02050C00EFEF0F
:00000001FF
