:020000000109F4
:020001000109F3
:020002000109F2
:020003000109F1
:020004000109F0
:020005000109EF
:020006000109EE
:020007000109ED
:020008000109EC
:020009000109EB
:02000A000109EA
:02000B000109E9
:02000C000109E8
:02000D000109E7
:02000E000109E6
:02000F000109E5
:020010000109E4
:020011000109E3
:020012000109E2
:020013000109E1
:020014000109E0
:020015000109DF
:020016000109DE
:020017000109DD
:020018000109DC
:020019000109DB
:02001A000109DA
:02001B000109D9
:02001C000109D8
:02001D000109D7
:02001E000109D6
:02001F000109D5
:020020000109D4
:020021000109D3
:020022000109D2
:020023000109D1
:020024000109D0
:020025000109CF
:020026000109CE
:020027000109CD
:020028000109CC
:020029000109CB
:02002A000109CA
:02002B000109C9
:02002C000109C8
:02002D000109C7
:02002E000109C6
:02002F000109C5
:020030000109C4
:020031000109C3
:020032000109C2
:020033000109C1
:020034000109C0
:020035000109BF
:020036000109BE
:020037000109BD
:020038000109BC
:020039000109BB
:02003A000109BA
:02003B000109B9
:02003C000109B8
:02003D000109B7
:02003E000109B6
:02003F000109B5
:020040000109B4
:020041000109B3
:020042000109B2
:020043000109B1
:020044000109B0
:020045000109AF
:020046000109AE
:020047000109AD
:020048000109AC
:020049000109AB
:02004A000109AA
:02004B000109A9
:02004C000109A8
:02004D000109A7
:02004E000109A6
:02004F000109A5
:020050000109A4
:020051000109A3
:020052000109A2
:020053000109A1
:020054000109A0
:0200550001099F
:0200560001099E
:0200570001099D
:0200580001099C
:0200590001099B
:02005A0001099A
:02005B00010999
:02005C00010998
:02005D00010997
:02005E00010996
:02005F00010995
:02006000010994
:02006100010993
:02006200010992
:02006300010991
:02006400010990
:0200650001098F
:0200660001098E
:0200670001098D
:0200680001098C
:0200690001098B
:02006A0001098A
:02006B00010989
:02006C00010988
:02006D00010987
:02006E00010986
:02006F00010985
:02007000010984
:02007100010983
:02007200010982
:02007300010981
:02007400010980
:0200750001097F
:0200760001097E
:0200770001097D
:0200780001097C
:0200790001097B
:02007A0001097A
:02007B00010979
:02007C00010978
:02007D00010977
:02007E00010976
:02007F00010975
:02008000010974
:02008100010973
:02008200010972
:02008300010971
:02008400010970
:0200850001096F
:0200860001096E
:0200870001096D
:0200880001096C
:0200890001096B
:02008A0001096A
:02008B00010969
:02008C00010968
:02008D00010967
:02008E00010966
:02008F00010965
:02009000010964
:02009100010963
:02009200010962
:02009300010961
:02009400010960
:0200950001095F
:0200960001095E
:0200970001095D
:0200980001095C
:0200990001095B
:02009A0001095A
:02009B00010959
:02009C00010958
:02009D00010957
:02009E00010956
:02009F00010955
:0200A000010954
:0200A100010953
:0200A200010952
:0200A300010951
:0200A400010950
:0200A50001094F
:0200A60001094E
:0200A70001094D
:0200A80001094C
:0200A90001094B
:0200AA0001094A
:0200AB00010949
:0200AC00010948
:0200AD00010947
:0200AE00010946
:0200AF00010945
:0200B000010944
:0200B100010943
:0200B200010942
:0200B300010941
:0200B400010940
:0200B50001093F
:0200B60001093E
:0200B70001093D
:0200B80001093C
:0200B90001093B
:0200BA0001093A
:0200BB00010939
:0200BC00010938
:0200BD00010937
:0200BE00010936
:0200BF00010935
:0200C000010934
:0200C100010933
:0200C200010932
:0200C300010931
:0200C400010930
:0200C50001092F
:0200C60001092E
:0200C70001092D
:0200C80001092C
:0200C90001092B
:0200CA0001092A
:0200CB00010929
:0200CC00010928
:0200CD00010927
:0200CE00010926
:0200CF00010925
:0200D000010924
:0200D100010923
:0200D200010922
:0200D300010921
:0200D400010920
:0200D50001091F
:0200D60001091E
:0200D70001091D
:0200D80001091C
:0200D90001091B
:0200DA0001091A
:0200DB00010919
:0200DC00010918
:0200DD00010917
:0200DE00010916
:0200DF00010915
:0200E000010914
:0200E100010913
:0200E200010912
:0200E300010911
:0200E400010910
:0200E50001090F
:0200E60001090E
:0200E70001090D
:0200E80001090C
:0200E90001090B
:0200EA0001090A
:0200EB00010909
:0200EC00010908
:0200ED00010907
:0200EE00010906
:0200EF00010905
:0200F000010904
:0200F100010903
:0200F200010902
:0200F300010901
:0200F400010900
:0200F5000109FF
:0200F6000109FE
:0200F7000109FD
:0200F8000109FC
:0200F9000109FB
:0200FA000109FA
:0200FB000109F9
:0200FC000109F8
:0200FD000109F7
:0200FE000109F6
:0200FF000109F5
:020100000109F3
:020101000109F2
:020102000109F1
:020103000109F0
:020104000109EF
:020105000109EE
:020106000109ED
:020107000109EC
:020108000109EB
:020109000109EA
:02010A000109E9
:02010B000109E8
:02010C000109E7
:02010D000109E6
:02010E000109E5
:02010F000109E4
:020110000109E3
:020111000109E2
:020112000109E1
:020113000109E0
:020114000109DF
:020115000109DE
:020116000109DD
:020117000109DC
:020118000109DB
:020119000109DA
:02011A000109D9
:00000001FF
