:02000000FEFE02
:02000100FEFE01
:02000200FEFE00
:02000300FEFEFF
:02000400FEFEFE
:02000500FEFEFD
:02000600FEFEFC
:02000700FEFEFB
:02000800FEFEFA
:02000900FEFEF9
:02000A00FEFEF8
:02000B00FEFEF7
:02000C00FEFEF6
:02000D00FEFEF5
:02000E00FEFEF4
:02000F00FEFEF3
:02001000FEFEF2
:02001100FEFEF1
:02001200FEFEF0
:02001300FEFEEF
:02001400FEFEEE
:02001500FEFEED
:02001600FEFEEC
:02001700FEFEEB
:02001800FEFEEA
:02001900FEFEE9
:02001A00FEFEE8
:02001B00FEFEE7
:02001C00FEFEE6
:02001D00FEFEE5
:02001E00FEFEE4
:02001F00FEFEE3
:02002000FEFEE2
:02002100FEFEE1
:02002200FEFEE0
:02002300FEFEDF
:02002400FEFEDE
:02002500FEFEDD
:02002600FEFEDC
:02002700FEFEDB
:02002800FEFEDA
:02002900FEFED9
:02002A00FEFED8
:02002B00FEFED7
:02002C00FEFED6
:02002D00FEFED5
:02002E00FEFED4
:02002F00FEFED3
:02003000FEFED2
:02003100FEFED1
:02003200FEFED0
:02003300FEFECF
:02003400FEFECE
:02003500FEFECD
:02003600FEFECC
:02003700FEF0D9
:02003800EEEFE9
:02003900EFF1E5
:02003A00F2F8DA
:02003B00E2EFF2
:02003C00E2EFF1
:02003D00EEEEE5
:02003E00E2EFEF
:02003F00E2EFEE
:02004000EFEEE1
:02004100EFEFDF
:02004200EFEFDE
:02004300EEEFDE
:02004400EEEFDD
:02004500E2EFE8
:02004600EEEFDB
:02004700E2EFE6
:02004800EEEFD9
:02004900E2EFE4
:02004A00EFEED7
:02004B00E2EFE2
:02004C00EEEFD5
:02004D00F6E2D9
:02004E00EF2B96
:02004F00EFF6CA
:02005000EFEED1
:02005100EFEFCF
:02005200EEEFCF
:02005300F6EFC6
:02005400FEFEAE
:02005500FEFEAD
:02005600FEFEAC
:02005700FEF3B6
:02005800FEF3B5
:02005900FEE9BE
:02005A00FEE9BD
:02005B00F3F3BD
:02005C00FEF3B1
:02005D00F3FEB0
:02005E00F3F3BA
:02005F00FEF3AE
:02006000F3FEAD
:02006100F3F3B7
:02006200FEF3AB
:02006300F3FEAA
:02006400E9FEB3
:02006500F3F3B3
:02006600F3F3B2
:02006700FEE9B0
:02006800FEF3A5
:02006900F3FEA4
:02006A00E9FEAD
:02006B00F3FEA2
:02006C00F3FEA1
:02006D00F3FEA0
:02006E00F3FE9F
:02006F00F3FE9E
:02007000F3FE9D
:02007100F3FE9C
:02007200F3FE9B
:02007300F3F3A5
:02007400FEE9A3
:02007500FEF398
:02007600F3FE97
:02007700F3F3A1
:02007800FEF395
:02007900F3FE94
:02007A00F3F39E
:02007B00FEF392
:02007C00F3F39C
:02007D00E9F3A5
:02007E00F3FE8F
:02007F00FEFE83
:02008000FEFE82
:02008100FEFE81
:02008200FEFE80
:02008300FEFE7F
:02008400FEFE7E
:02008500FEFE7D
:02008600FEFE7C
:02008700FEFE7B
:02008800FEFE7A
:02008900FEFE79
:02008A00FEFE78
:02008B00FEF085
:02008C00EEEF95
:02008D00EFF191
:02008E00F2EF8F
:02008F00EFEE92
:02009000EFEF90
:02009100EEEF90
:02009200EEEF8F
:02009300EEE29B
:02009400EFEE8D
:02009500E2EE99
:02009600EEEF8B
:02009700EEEF8A
:02009800E2EF95
:02009900EEEF88
:02009A00F6EF7F
:02009B00F6EF7E
:02009C00EEEF85
:02009D0080EFF2
:02009E00EEEF83
:02009F00F6EF7A
:0200A000EEEF81
:0200A100EEEF80
:0200A200EEEF7F
:0200A300EEEF7E
:0200A400EEEF7D
:0200A500EEF675
:0200A600EFEE7B
:0200A7002BEF3D
:0200A800FEFE5A
:0200A900FEFE59
:0200AA00F3E978
:0200AB00A3A30D
:0200AC00A3A30C
:0200AD00A3A30B
:0200AE00A3A30A
:0200AF00A3A309
:0200B000A3E4C7
:0200B100A3A307
:0200B200A3E4C5
:0200B300A3A305
:0200B400A3A304
:0200B500E5A3C1
:0200B600E6A3BF
:0200B700E7A3BD
:0200B800E7A3BC
:0200B900E6A3BC
:0200BA00E5A3BC
:0200BB00A3E5BB
:0200BC00A3A3FC
:0200BD00A3A3FB
:0200BE00A3A3FA
:0200BF00A3A3F9
:0200C000A3A2F9
:0200C100A3A2F8
:0200C200A3A2F7
:0200C300A2A2F7
:0200C400A2A2F6
:0200C500A2A2F5
:0200C6009DA2F9
:0200C700A2B8DD
:0200C800A29CF8
:0200C900A2B8DB
:0200CA00A29CF6
:0200CB00B89DDE
:0200CC00CE9DC7
:0200CD009CB8DD
:0200CE009C9DF7
:0200CF00B89ED9
:0200D0009EC0D0
:0200D1009DB7D9
:0200D2009CB7D9
:0200D3009CA2ED
:0200D400A2F395
:0200D500FEFE2D
:0200D600FEFE2C
:0200D700FEFE2B
:0200D800FEFE2A
:0200D900FEFE29
:0200DA00FEFE28
:0200DB00FEFE27
:0200DC00FEFE26
:0200DD00FEFE25
:0200DE00FEFE24
:0200DF00FEF130
:0200E000EFEE41
:0200E100EEF13E
:0200E200F2F03A
:0200E300EEEE3F
:0200E400EFEF3C
:0200E500EEEF3C
:0200E600E2E254
:0200E700EEEF3A
:0200E800E2EE46
:0200E900EFEF37
:0200EA00EFE243
:0200EB00EFEE36
:0200EC00EFE241
:0200ED00EFEE34
:0200EE00EFEF32
:0200EF00EFEE32
:0200F000EFEE31
:0200F100EFEE30
:0200F200EFEE2F
:0200F300EFEE2E
:0200F400EFE239
:0200F500EFEE2C
:0200F600EFEF2A
:0200F7002BEFED
:0200F800EEEF29
:0200F900EFEE28
:0200FA00EFEF26
:0200FB00EEEF26
:0200FC00FEFE06
:0200FD00F3E727
:0200FE00AFA1B0
:0200FF00AFA1AF
:02010000A1AFAD
:02010100A1AFAC
:02010200AFAF9D
:02010300AEAE9E
:02010400AEA0AB
:02010500AEAE9C
:02010600A1C195
:02010700A1AFA6
:02010800A1B59F
:02010900A0C292
:02010A00A0AEA5
:02010B00AEC282
:02010C00AEB58E
:02010D00B5B586
:02010E00BAAE87
:02010F00B5AE8B
:02011000BAC172
:02011100C1C16A
:02011200C1C169
:02011300ACAC92
:02011400ACAC91
:02011500ACAC90
:02011600ACAC8F
:02011700ABAC8F
:02011800ABAB8F
:02011900ABAB8E
:02011A00ABAB8D
:02011B00ABAB8C
:02011C00ABAB8B
:02011D00B29D91
:02011E00AB9D97
:02011F009D9DA4
:020120009DC080
:020121009D9DA2
:02012200C09C7F
:02012300AAAA86
:02012400AA9C93
:020125009C9BA1
:02012600B7B769
:02012700A9A984
:02012800A99B91
:02012900E9FEED
:02012A00FEFED7
:02012B00FEFED6
:02012C00FEFED5
:02012D00FEFED4
:02012E00FEFED3
:02012F00FEFED2
:02013000FEFED1
:02013100FEFED0
:02013200FEFECF
:02013300FEF1DB
:02013400EFEEEC
:02013500EEF0EA
:02013600F2F0E5
:02013700EFEEE9
:02013800EFE2F4
:02013900EEEFE7
:02013A00EFE2F2
:02013B00EFE2F1
:02013C00EFEEE4
:02013D00EFEEE3
:02013E00EEEFE2
:02013F00EEEFE1
:02014000EEEFE0
:02014100F6EFD7
:02014200EEEFDE
:02014300EEEEDE
:02014400EFEEDC
:02014500EFEEDB
:02014600EFEEDA
:02014700EFEED9
:02014800EFF6D0
:02014900EFEED7
:02014A00EFEED6
:02014B00EFEFD4
:02014C002BEF97
:02014D002BEF96
:02014E002BEF95
:02014F00E22BA1
:02015000FEF3BC
:02015100AFA15C
:02015200BAAE43
:02015300A0B555
:02015400B59F55
:02015500B5A053
:02015600ADA05A
:02015700B5A051
:02015800B5A050
:02015900B5A04F
:02015A00B5B539
:02015B009FB54E
:02015C00ADB53F
:02015D00B4A04C
:02015E00B5B436
:02015F00A0B44A
:02016000ADB53B
:020161009FB449
:02016200B4AD3A
:02016300B4AD39
:02016400ADAD3F
:02016500ADAD3E
:02016600ADB436
:02016700ADAD3C
:02016800B5AD33
:02016900AEAD39
:02016A00ADAE38
:02016B00ADAD38
:02016C00ADAD37
:02016D00ADAD36
:02016E00ADAD35
:02016F00ACAD35
:02017000A5AC3C
:02017100ACAC34
:02017200ACAC33
:02017300ACAC32
:02017400AB9E40
:02017500ABA439
:02017600ABA438
:02017700ACB228
:02017800B2AA29
:02017900B29D35
:02017A00AAAA2F
:02017B00AAAA2E
:02017C009CA93C
:02017D009B9C49
:02017E00F3FE8E
:02017F00FEFE82
:02018000FEFE81
:02018100FEFE80
:02018200FEFE7F
:02018300FEFE7E
:02018400FEFE7D
:02018500FEFE7C
:02018600FEFE7B
:02018700FEF286
:02018800EFE2A4
:02018900EEF096
:02018A00F1F092
:02018B00EFEE95
:02018C00EFEF93
:02018D00EFEE93
:02018E00EFEE92
:02018F00EEEF91
:02019000EEEF90
:02019100E2EF9B
:02019200EEEF8E
:02019300F6EF85
:02019400EFEE8C
:02019500EFEE8B
:02019600EFEE8A
:02019700EFEF88
:02019800EEEF88
:02019900EEEF87
:02019A00EEEF86
:02019B00F6EF7D
:02019C00EEEF84
:02019D00EEEF83
:02019E00EEEF82
:02019F00EEEF81
:0201A000E2EF8C
:0201A100E2EF8B
:0201A200EFEE7E
:0201A300EFEF7C
:0201A400F3E680
:0201A500AEBAF0
:0201A600A1AE08
:0201A700AEA008
:0201A800B5A000
:0201A900AEB5F1
:0201AA00A0B5FE
:0201AB00A0B5FD
:0201AC00A0B5FC
:0201AD00A0B5FB
:0201AE00A0B5FA
:0201AF00A0B5F9
:0201B000A0B5F8
:0201B100A0B5F7
:0201B200A1B5F5
:0201B300A1B5F4
:0201B400A1C2E6
:0201B500A1B5F2
:0201B600A1AEF8
:0201B700A0B5F1
:0201B800A0B5F0
:0201B900A0B5EF
:0201BA00A0AEF5
:0201BB00AEAEE6
:0201BC00AEAEE5
:0201BD00AEAEE4
:0201BE00AEADE4
:0201BF00AEAEE2
:0201C000AEADE2
:0201C100AEAEE0
:0201C200ACADE2
:0201C300ACACE2
:0201C400ACA5E8
:0201C500AC9FED
:0201C600ACACDF
:0201C7009EACEC
:0201C800ACACDD
:0201C900ACACDC
:0201CA009EACE9
:0201CB00AB9DEA
:0201CC00C0B2BF
:0201CD00B2ABD3
:0201CE009EACE5
:0201CF00ACA4DE
:0201D000ACAAD7
:0201D100A9B6CD
:0201D2009BF39D
:0201D300FEFE2E
:0201D400FEFE2D
:0201D500FEFE2C
:0201D600FEFE2B
:0201D700FEFE2A
:0201D800FEFE29
:0201D900FEFE28
:0201DA00FEFE27
:0201DB00FEF331
:0201DC00F0EF42
:0201DD00EEF042
:0201DE00F1F13D
:0201DF00EFEE41
:0201E000EEEF40
:0201E100EEEF3F
:0201E200EFEE3E
:0201E300EFE249
:0201E400EEEF3C
:0201E500EEEF3B
:0201E600EEEF3A
:0201E700E2F63E
:0201E800EF2BFB
:0201E900EFEE37
:0201EA00EFEE36
:0201EB00EEEF35
:0201EC00EEEF34
:0201ED00E2F638
:0201EE00EFEE32
:0201EF00E2EF3D
:0201F000EE2BF4
:0201F100EFEF2E
:0201F2002BEFF1
:0201F300E2F632
:0201F400EFEE2C
:0201F500EFEE2B
:0201F600E2F62F
:0201F700EFEE29
:0201F800E7B965
:0201F900A0B9AB
:0201FA00C1A0A2
:0201FB00C1C180
:0201FC00AEAEA5
:0201FD00A0BAA6
:0201FE00AEAEA3
:0201FF00AEBA96
:02020000AEAEA0
:02020100AEBA93
:02020200A1C297
:02020300A1C296
:02020400A1C295
:02020500B5BA88
:02020600B5B58C
:02020700AEC285
:02020800AEB591
:02020900AEB590
:02020A00B5B588
:02020B00AEAE95
:02020C00AEAE94
:02020D00AEAE93
:02020E00AE9FA1
:02020F00AEAE91
:02021000AEAE90
:02021100AEAC91
:02021200C1AC7D
:02021300B9AC84
:02021400B9AB84
:02021500ACAB90
:02021600AB9E9D
:02021700B9AB81
:02021800C0AB79
:02021900ABB286
:02021A00B2B27E
:02021B00AAB285
:02021C00AAAA8C
:02021D009CAA99
:02021E00AA9C98
:02021F00AAA98A
:02022000A9B77C
:02022100A9AA88
:02022200B2A484
:02022300ABAC82
:02022400A4B282
:02022500AAA984
:02022600A99C91
:02022700F3FEE4
:02022800FEFED8
:02022900FEFED7
:02022A00FEFED6
:02022B00FEFED5
:02022C00FEFED4
:02022D00FEFED3
:02022E00FEFED2
:02022F00FEFED1
:02023000F2EEEC
:02023100EEEFEE
:02023200F1F2E7
:02023300EFEFEB
:02023400EEEEEC
:02023500EFEEEA
:02023600EFEEE9
:02023700EFEEE8
:02023800E2E200
:02023900EEEFE6
:02023A00EEEFE5
:02023B00EFE2F0
:02023C00EFEFE2
:02023D00EEEFE2
:02023E00EEEFE1
:02023F00EFEEE0
:02024000EFF6D7
:02024100EFEEDE
:02024200EFEFDC
:020243002BEF9F
:02024400EFEFDA
:02024500E2EFE6
:02024600EEEFD9
:02024700EEEFD8
:02024800EEEFD7
:02024900F6EFCE
:02024A002BE2A5
:02024B00F6EFCC
:02024C0095AB70
:02024D00C0AB44
:02024E00ABB94A
:02024F009EB956
:02025000A0B953
:02025100B9A151
:02025200B9A051
:02025300AEA15A
:02025400AEA05A
:02025500AEAE4B
:02025600AEAE4A
:02025700AEAE49
:02025800AEA056
:02025900AEA055
:02025A00C1AE33
:02025B00A0AE53
:02025C00AEA052
:02025D00ACB93A
:02025E009EB947
:02025F00ABA052
:02026000ABAC45
:02026100ABAB45
:02026200C0C01A
:02026300C0AB2E
:020264009DB249
:02026500B2C025
:020266009DAA4F
:02026700AAAA41
:020268009CAA4E
:02026900AAAA3F
:02026A00AAB731
:02026B009CB73E
:02026C009CA94B
:02026D00A9B72F
:02026E00B7A92E
:02026F00A99B49
:020270009BA948
:02027100A9A939
:02027200A9B62B
:020273009BB638
:020274009BA845
:020275009BA844
:02027600A9A934
:02027700A9A933
:02027800AAAA30
:020279009DAA3C
:02027A00A9AA2F
:02027B00A1FEE2
:02027C00FEFE84
:02027D00FEFE83
:02027E00FEFE82
:02027F00FEFE81
:02028000FEFE80
:02028100FEFE7F
:02028200FEFE7E
:02028300FEFE7D
:02028400F2EE98
:02028500EEEF9A
:02028600F0F393
:02028700F0EF96
:02028800EFEE97
:02028900EEEF96
:02028A00EEE2A2
:02028B00EFEE94
:02028C00EFE29F
:02028D00EEEF92
:02028E00EEEF91
:02028F002BEF53
:02029000F6E294
:02029100EFEE8E
:02029200EFEE8D
:02029300EFEE8C
:02029400EFEE8B
:02029500EF2B4D
:02029600EFEE89
:02029700EFEE88
:02029800E23949
:02029900EFEE86
:02029A00EFEE85
:02029B002BEF47
:02029C00EFEE83
:02029D00EFEF81
:02029E00EFEF80
:02029F00EEEF80
:0202A000C0ABF1
:0202A100C0ABF0
:0202A200ABC0EF
:0202A300C0ABEE
:0202A400C0ABED
:0202A500ABB9F3
:0202A600B9C0DD
:0202A700B9B9E3
:0202A800B9B9E2
:0202A9009EB9FC
:0202AA00ABABFC
:0202AB00B9ABED
:0202AC00B9ABEC
:0202AD00ABC0E4
:0202AE00ABC0E3
:0202AF00C09DF0
:0202B000C0C0CC
:0202B100C0C0CB
:0202B200AAAAF6
:0202B300B8AAE7
:0202B400CE9CDE
:0202B500CE9CDD
:0202B600B7B7D8
:0202B7009CB7F2
:0202B800AAB7E3
:0202B9009CA9FE
:0202BA00AAA9EF
:0202BB009CB7EE
:0202BC00B7A9E0
:0202BD00A99BFB
:0202BE00A99BFA
:0202BF00A99BF9
:0202C000A9A9EA
:0202C1009B9B05
:0202C200B69BE9
:0202C300A9B6DA
:0202C400B6B6CC
:0202C500B6B6CB
:0202C600B6B6CA
:0202C700A8B6D7
:0202C800A8A8E4
:0202C900B6B6C7
:0202CA00B6A8D4
:0202CB00A9A8E0
:0202CC00A9A9DE
:0202CD00B7B7C1
:0202CE00A9AADB
:0202CF00ABFE84
:0202D000FEFE30
:0202D100FEFE2F
:0202D200FEFE2E
:0202D300FEFE2D
:0202D400FEFE2C
:0202D500FEFE2B
:0202D600FEFE2A
:0202D700FEFE29
:0202D800F2EF43
:0202D900E2EE53
:0202DA00EFFD36
:0202DB00F1EF41
:0202DC00EFEE43
:0202DD00EFEE42
:0202DE00EFEE41
:0202DF00EFEE40
:0202E000E2EE4C
:0202E100EFE24A
:0202E200EFF635
:0202E300E2EF48
:0202E4002BEFFE
:0202E500EEEF3A
:0202E600EEEF39
:0202E700EEEF38
:0202E800F6E23C
:0202E900EFEF35
:0202EA00E2EF41
:0202EB00F6EF2C
:0202EC00EFE23F
:0202ED00EF2BF5
:0202EE00EFEF30
:0202EF00E2EF3C
:0202F0002BEFF2
:0202F100EEEE2F
:0202F200EF2BF0
:0202F300E2EF38
:0202F400ABA1BC
:0202F500AB9EBE
:0202F600C09EA8
:0202F700ABC09A
:0202F800ACC098
:0202F900ABABAD
:0202FA00ABABAC
:0202FB009DABB9
:0202FC00C0AB95
:0202FD00C0C07F
:0202FE00ABABA8
:0202FF00C09DA0
:02030000C0C07B
:02030100ABC08F
:02030200C0B287
:02030300C0AA8E
:02030400C0AA8D
:02030500AAAAA2
:02030600AAAAA1
:02030700AAB793
:02030800AAB792
:02030900AAB791
:02030A009CB79E
:02030B00A99CAB
:02030C009C9CB7
:02030D00A9A99C
:02030E009CA9A8
:02030F00A9A99A
:02031000A99BA7
:02031100A9A998
:020312009BA9A5
:02031300A9B689
:02031400A9B688
:02031500A9B687
:02031600A9B686
:02031700B6B678
:02031800A9A892
:02031900A8A892
:02031A00A8B683
:02031B00B69A90
:02031C009AC481
:02031D00A89A9C
:02031E00A8A88D
:02031F00A8A88C
:02032000B6A87D
:02032100A9AA87
:020322009CAA93
:020323009DF348
:02032400FEFEDB
:02032500FEFEDA
:02032600FEFED9
:02032700FEFED8
:02032800FEFED7
:02032900FEFED6
:02032A00FEFED5
:02032B00FEFED4
:02032C00FDEFE3
:02032D00EFEEF1
:02032E00EFF2EC
:02032F00F2EFEB
:02033000EEEFEE
:02033100EEEFED
:02033200EFEEEC
:02033300EEEFEB
:02033400E2EFF6
:02033500EEEEEA
:02033600EFEFE7
:02033700EEEFE7
:02033800EFE2F2
:02033900F6EFDD
:02033A002BEFA7
:02033B00EEEFE3
:02033C002BEFA5
:02033D00EEEEE2
:02033E00EF2BA3
:02033F00EFEEDF
:02034000EFF6D6
:02034100EFE2E9
:02034200EFF6D4
:02034300E2EFE7
:02034400EFEEDA
:02034500EF2B9C
:02034600EFEFD7
:02034700EFEED7
:02034800ABAC5C
:02034900B99E5B
:02034A00B9AC4C
:02034B00A0AC64
:02034C009EB958
:02034D009EAB65
:02034E009EB956
:02034F00AB9E63
:02035000ABAC54
:020351009EAB61
:02035200AB9E60
:02035300C0AB3D
:02035400ABAB51
:02035500AB9D5E
:02035600ABAB4F
:02035700ABC039
:02035800B2C031
:02035900C0C022
:02035A00AAB83F
:02035B009CAA5A
:02035C009CB74C
:02035D00AAB73D
:02035E00AAB73C
:02035F00AAA949
:02036000AA9C55
:020361009CA955
:020362009C9C61
:020363009CA953
:020364009CA952
:02036500A99B52
:02036600A99B51
:02036700A9A942
:02036800A9A941
:02036900A9B633
:02036A00A9A840
:02036B009BB63F
:02036C00A8A93E
:02036D00A89B4B
:02036E00B6A82F
:02036F00A8B62E
:02037000A8A83B
:020371009A9A56
:020372009A8C63
:02037300C4A81C
:02037400B6A829
:02037500A8AA34
:02037600AAB229
:02037700ABA336
:02037800FEFE87
:02037900FEFE86
:02037A00FEFE85
:02037B00FEFE84
:02037C00FEFE83
:02037D00FEFE82
:02037E00FEFE81
:02037F00FEFE80
:02038000FEF18C
:02038100EEEE9E
:02038200EEF09B
:02038300F2F096
:02038400EFEE9A
:02038500EEEF99
:02038600EEEF98
:02038700EEEF97
:02038800EEEF96
:02038900EF2B58
:02038A00EFF68C
:02038B00E2F698
:02038C00EF2B55
:02038D00E2EF9D
:02038E00EF2B53
:02038F00E2EF9B
:02039000EFEF8D
:020391002BEF50
:02039200E2EF98
:02039300E22B5B
:02039400EFEE8A
:02039500EFF681
:02039600E2F78C
:02039700EEEF87
:02039800EEEF86
:02039900EFE291
:02039A00EFEE84
:02039B00EEEF83
:02039C00A0C1FE
:02039D00ACAE04
:02039E00A0AC11
:02039F00ACB9F7
:0203A000ACAC03
:0203A100A0C1F9
:0203A200AC9E0F
:0203A300ACAC00
:0203A4009EB900
:0203A5009EB9FF
:0203A6009EAC0B
:0203A700A0AC08
:0203A800A0AC07
:0203A9009EAC08
:0203AA009E9E15
:0203AB009EAC06
:0203AC009E9E13
:0203AD009E9E12
:0203AE009E9D12
:0203AF00ABABF6
:0203B000A4C0E7
:0203B1009DB2FB
:0203B2009CAA03
:0203B300AAAAF4
:0203B400AAAAF3
:0203B500AAAAF2
:0203B600B7AAE4
:0203B700AA9CFE
:0203B800B7AAE2
:0203B900A9B7E2
:0203BA00A9A9EF
:0203BB00A99BFC
:0203BC00A9A9ED
:0203BD00A9A9EC
:0203BE009BA9F9
:0203BF00A9A9EA
:0203C0009BA8F8
:0203C100A9A8E9
:0203C200A8A8E9
:0203C300A9A8E7
:0203C400A8A8E7
:0203C500A89AF4
:0203C6009AC4D7
:0203C7008C9A0E
:0203C800A8A8E3
:0203C900A8A9E1
:0203CA009CB2E3
:0203CB00B29CE2
:0203CC00FEFE33
:0203CD00FEFE32
:0203CE00FEFE31
:0203CF00FEFE30
:0203D000FEFE2F
:0203D100FEFE2E
:0203D200FEFE2D
:0203D300FEFE2C
:0203D400FEF336
:0203D500EFEF48
:0203D600EEEF48
:0203D700F2F141
:0203D800EFEE46
:0203D900EEEF45
:0203DA00EEEF44
:0203DB00EEEF43
:0203DC00EEE24F
:0203DD00EFE24D
:0203DE00EFEE40
:0203DF00EFEF3E
:0203E000EEEF3E
:0203E100EFEE3D
:0203E200EFEF3B
:0203E300EFF633
:0203E400E2EF46
:0203E500EFEE39
:0203E600EFF630
:0203E700EFEF36
:0203E800E2EE43
:0203E900EF2BF8
:0203EA00EFE240
:0203EB002BEFF6
:0203EC00EEEF32
:0203ED00F6EE2A
:0203EE00EFEE30
:0203EF00EFEE2F
:0203F000AEACB1
:0203F100AEAEAE
:0203F200AEAEAD
:0203F300AEA0BA
:0203F400AEAEAB
:0203F500ACAEAC
:0203F600ACAEAB
:0203F700B9A0AB
:0203F800ACACAB
:0203F900AC9FB7
:0203FA00C1AC94
:0203FB00ACACA8
:0203FC00ACACA7
:0203FD00A0ACB2
:0203FE00ACACA5
:0203FF00AC9FB1
:02040000ACABA3
:02040100ACACA1
:02040200AC9EAE
:020403009EABAE
:02040400AB9DAE
:02040500AB9DAD
:02040600AB9DAC
:02040700C0B281
:02040800B8C07A
:02040900AAAA9D
:02040A00AAAA9C
:02040B00B7AA8E
:02040C00AAB78D
:02040D00AAAA99
:02040E00B7AA8B
:02040F00B7A98B
:02041000A9A998
:02041100A9A997
:020412009B9BB2
:020413009BA9A3
:02041400A99BA2
:020415009B9BAF
:02041600A9A893
:020417009BA99F
:02041800A99B9E
:02041900B6A883
:02041A00B69A90
:02041B00C49A81
:02041C009AA89C
:02041D00A8A98C
:02041E00A9B281
:02041F00AA9B96
:02042000FEFEDE
:02042100FEFEDD
:02042200FEFEDC
:02042300FEFEDB
:02042400FEFEDA
:02042500FEFED9
:02042600FEFED8
:02042700FEFED7
:02042800FEF3E1
:02042900EFEEF4
:02042A00EEEFF3
:02042B00F1F2EC
:02042C00F0EEF0
:02042D00EEF6E9
:02042E00EFEEEF
:02042F00EF2BB1
:02043000EFF6E5
:02043100E2F6F1
:02043200EF2BAE
:02043300EFEEEA
:02043400EFEEE9
:02043500EFF6E0
:02043600E2EEF4
:02043700EEEFE6
:02043800EEF6DE
:02043900EFEEE4
:02043A00EFEEE3
:02043B00EFEEE2
:02043C00F7E2E5
:02043D00EFEFDF
:02043E00F6EFD7
:02043F00EFEEDE
:02044000EFEEDD
:02044100EFEFDB
:020442002BEF9E
:02044300EF2B9D
:02044400A0AE68
:02044500AEAD5A
:02044600AEAD59
:02044700AEAE57
:02044800ACAE58
:02044900AEAE55
:02044A00AEAC56
:02044B00AEAE53
:02044C00AEAE52
:02044D00ACAE53
:02044E00ACAE52
:02044F00A0C14A
:02045000ACC13D
:02045100ACAE4F
:02045200ACAC50
:02045300ACAC4F
:020454009EAC5C
:02045500AB9E5C
:02045600ABAC4D
:02045700ABAB4D
:02045800ABC037
:02045900ABC036
:02045A00C0AA36
:02045B00C0AA35
:02045C00C0AA34
:02045D00AAB83B
:02045E00AAAA48
:02045F00AAB73A
:02046000B7AA39
:02046100A9A947
:02046200B7A938
:02046300A9A945
:020464009CA951
:02046500A9A943
:02046600A99B50
:02046700A99B4F
:02046800A9A841
:020469009BA84E
:02046A009BA84D
:02046B00A89B4C
:02046C009BA84B
:02046D00A89B4A
:02046E00A8A83C
:02046F009AC42D
:02047000A8A83A
:02047100A8A938
:020472009CAB41
:02047300AAA934
:02047400FEFE8A
:02047500FEFE89
:02047600FEFE88
:02047700FEFE87
:02047800FEFE86
:02047900FEFE85
:02047A00FEFE84
:02047B00FEFE83
:02047C00FEFE82
:02047D00F2EF9C
:02047E00EEEF9F
:02047F00EFF29A
:02048000F1EF9A
:02048100EEEF9C
:02048200E2EFA7
:02048300EEEF9A
:02048400EFEE99
:02048500EFEE98
:02048600EFEF96
:02048700EEEF96
:020488002BEF58
:02048900EFEE94
:02048A00EF2B56
:02048B00EFEF91
:02048C00EEE29E
:02048D002BEF53
:02048E00EF2B52
:02048F00EFEE8E
:02049000EF2B50
:02049100EFEE8C
:02049200EFEE8B
:02049300EFF682
:02049400EEEF89
:02049500EEEF88
:02049600E2F68C
:02049700E2EF92
:02049800AEAE06
:02049900AEAE05
:02049A00AEAE04
:02049B00AEAE03
:02049C00AEAE02
:02049D00AEAE01
:02049E00AEAE00
:02049F00AEAEFF
:0204A000C1AEEB
:0204A100AEAEFD
:0204A200C1AEE9
:0204A300ACAEFD
:0204A400C1ACE9
:0204A500C1ACE8
:0204A600C1B9DA
:0204A700ACC1E6
:0204A800ACACFA
:0204A900ACB9EC
:0204AA00ABACF9
:0204AB00ABB9EB
:0204AC00ABABF8
:0204AD00C0ABE2
:0204AE00C0C0CC
:0204AF00C0AAE1
:0204B000C0C0CA
:0204B100AAAAF5
:0204B200AAB8E6
:0204B300AAAAF3
:0204B400AAAAF2
:0204B500AAB7E4
:0204B600AAA9F1
:0204B700B7A9E3
:0204B800A9A9F0
:0204B900A9A9EF
:0204BA00A9A9EE
:0204BB00A9A8EE
:0204BC00A9B6DF
:0204BD00A9B6DE
:0204BE00A8A9EB
:0204BF00B6A8DD
:0204C000A9A8E9
:0204C100A9A8E8
:0204C200B6A8DA
:0204C300A89AF5
:0204C400B6A8D8
:0204C500B6A9D6
:0204C6009CB2E6
:0204C700AAB6D3
:0204C800E8FE4C
:0204C900FEFE35
:0204CA00FEFE34
:0204CB00FEFE33
:0204CC00FEFE32
:0204CD00FEFE31
:0204CE00FEFE30
:0204CF00FEFE2F
:0204D000FEFE2E
:0204D100FEF03B
:0204D200EEEF4B
:0204D300EFF246
:0204D400F1F045
:0204D500EEF641
:0204D600EFF63F
:0204D700EFEE46
:0204D800EF2B08
:0204D900EFEE44
:0204DA00EF2B06
:0204DB00EFEF41
:0204DC00EEEF41
:0204DD00EEEF40
:0204DE00EFEE3F
:0204DF00EFEE3E
:0204E000EFEF3C
:0204E100EFF634
:0204E200E2EF47
:0204E300EEEF3A
:0204E400E2EF45
:0204E500EEEF38
:0204E6002BEFFA
:0204E700EEEF36
:0204E800EF2BF8
:0204E900EFEE34
:0204EA00EFEF32
:0204EB00F6EF2A
:0204EC00AEAEB2
:0204ED00AEAEB1
:0204EE00AEAEB0
:0204EF00B5AEA8
:0204F000AEAEAE
:0204F100AEAEAD
:0204F200AEAEAC
:0204F300AEACAD
:0204F400AEAEAA
:0204F500AEACAB
:0204F600AEC195
:0204F700AEC194
:0204F800ACAEA8
:0204F900C1AC94
:0204FA00C1AC93
:0204FB00C1AC92
:0204FC00C1AC91
:0204FD00B9AC98
:0204FE00ACB997
:0204FF00ABB997
:02050000ABABA3
:02050100ABC08D
:02050200ABC08C
:02050300C0C076
:02050400B2AA99
:02050500C0AA8A
:02050600AAAA9F
:02050700AA9CAC
:020508009CB79E
:020509009CAAAA
:02050A00A99CAA
:02050B00AAA99B
:02050C00A9A99B
:02050D00A9A99A
:02050E009BA9A7
:02050F00A9A998
:02051000A9A898
:02051100A9B689
:020512009BA8A4
:02051300B6B67A
:02051400A8B687
:02051500B6B678
:02051600A8B685
:02051700A8A892
:02051800A8A891
:02051900A8A98F
:02051A00AAA491
:02051B00AA9B99
:02051C00B7F333
:02051D00FEFEE0
:02051E00FEFEDF
:02051F00FEFEDE
:02052000FEFEDD
:02052100FEFEDC
:02052200FEFEDB
:02052300FEFEDA
:02052400FEFED9
:02052500FEF1E5
:02052600EFEEF6
:02052700EEF0F4
:02052800F2F1EE
:02052900EFEEF3
:02052A00EEEFF2
:02052B002BEFB4
:02052C00EFEFEF
:02052D00E2EFFB
:02052E00E2EFFA
:02052F00EEEFED
:02053000E22BBC
:02053100EFEEEB
:02053200EFEEEA
:02053300EF2BAC
:02053400EFEEE8
:02053500EFE2F3
:02053600F6EFDE
:020537002BEFA8
:02053800EEEFE4
:02053900EEE2F0
:02053A00EFEFE1
:02053B00EEE2EE
:02053C00EEEFE0
:02053D00EEEFDF
:02053E002BEFA1
:02053F00E2EFE9
:02054000F2A126
:02054100BAAE50
:02054200AEAE5B
:02054300AEB553
:02054400AEAE59
:02054500AEAE58
:02054600AEAE57
:02054700AEAE56
:02054800AEAE55
:02054900AEAE54
:02054A00AEAC55
:02054B00AEAE52
:02054C00ACC140
:02054D00ACAE52
:02054E00ACC13E
:02054F00ACB945
:02055000ACC13C
:02055100ACB943
:02055200ABAC50
:02055300B9AB42
:02055400B9AB41
:02055500ABC039
:02055600C0C023
:02055700B29D53
:020558009DB252
:020559009CAA5A
:02055A009D9C66
:02055B00AAAA4A
:02055C00AA9C57
:02055D00A9AA49
:02055E00A99C56
:02055F00A9B73A
:02056000B7A939
:02056100A9A946
:02056200A9A945
:02056300B6A937
:02056400A9B636
:02056500A9B635
:02056600A9A941
:02056700B6B626
:02056800B6B625
:02056900B6A832
:02056A00B6B623
:02056B00B6A830
:02056C00B69B3C
:02056D00B6A82E
:02056E00AAAB36
:02056F00AA9B45
:020570009BE905
:02057100FEFE8C
:02057200FEFE8B
:02057300FEFE8A
:02057400FEFE89
:02057500FEFE88
:02057600FEFE87
:02057700FEFE86
:02057800FEFE85
:02057900FEF191
:02057A00EFEEA2
:02057B00EFEFA0
:02057C00F2F299
:02057D00EFEE9F
:02057E00EEEF9E
:02057F00EFE2A9
:020580002BEF5F
:02058100F6EE94
:02058200EF2B5D
:02058300EFF691
:02058400EFEF97
:020585002BEF5A
:020586002BE266
:02058700EFEF94
:02058800EEEF94
:020589002BEF56
:02058A00E2EF9E
:02058B00EFEE91
:02058C00EFEE90
:02058D00EFEE8F
:02058E00EFEE8E
:02058F00EFF685
:02059000EFEE8C
:02059100EFE297
:02059200EFF682
:02059300F6E28E
:02059400E8A1DC
:02059500AEAE08
:02059600AEAE07
:02059700AEAE06
:02059800AEB5FE
:02059900AEB5FD
:02059A00AEAE03
:02059B00AEAD03
:02059C00AEAE01
:02059D00AEAE00
:02059E00ACAE01
:02059F00AEAC00
:0205A000AEAEFD
:0205A100ACC1EB
:0205A200ACC1EA
:0205A300ACACFE
:0205A400B9ACF0
:0205A500ACB9EF
:0205A600ACABFC
:0205A700ABACFB
:0205A800ABABFB
:0205A900ABABFA
:0205AA00ABC0E4
:0205AB00C0AAE4
:0205AC00C0AAE3
:0205AD00B2AAF0
:0205AE00AAAAF7
:0205AF009CAA04
:0205B000AAAAF5
:0205B100A9AAF5
:0205B200AAB7E6
:0205B300A9AAF3
:0205B400A9A9F3
:0205B500A9A9F2
:0205B600A9A9F1
:0205B700A9B6E3
:0205B800A9A9EF
:0205B900A9A9EE
:0205BA00B6B6D3
:0205BB00A9B6DF
:0205BC00A8A8ED
:0205BD00A8A9EB
:0205BE00A8A8EB
:0205BF00B6A8DC
:0205C000B6B6CD
:0205C100A8B6DA
:0205C200A99CF2
:0205C300B2A9DB
:0205C400A9A2EA
:0205C500FEFE38
:0205C600FEFE37
:0205C700FEFE36
:0205C800FEFE35
:0205C900FEFE34
:0205CA00FEFE33
:0205CB00FEFE32
:0205CC00FEFE31
:0205CD00FEFE30
:0205CE00F0EE4D
:0205CF00EEEF4D
:0205D000F0F346
:0205D100F0EF49
:0205D200EFEE4A
:0205D300EEEF49
:0205D400EEEF48
:0205D500EFEE47
:0205D600EFE252
:0205D700EFE251
:0205D800EFEE44
:0205D900EFEF42
:0205DA00EFEF41
:0205DB00F6E246
:0205DC00EFEE40
:0205DD00EFEF3E
:0205DE0039EFF3
:0205DF00EEEF3D
:0205E0002BEFFF
:0205E100EFEE3B
:0205E200EF2BFD
:0205E300EFEF38
:0205E400EEEF38
:0205E500EEF630
:0205E600EFE242
:0205E700EEEF35
:0205E800E9BA6E
:0205E900B5AEAD
:0205EA00B5B5A5
:0205EB00A0B5B9
:0205EC00AEADB2
:0205ED00AEAEB0
:0205EE00AEB5A8
:0205EF00A0AEBC
:0205F000AEAEAD
:0205F1009FAEBB
:0205F200AEAEAB
:0205F300AEAEAA
:0205F400ACAEAB
:0205F500AEAEA8
:0205F600ACC196
:0205F700ACACAA
:0205F800ACACA9
:0205F900ACACA8
:0205FA00ACB99A
:0205FB009EB9A7
:0205FC00ABABA7
:0205FD00ABC091
:0205FE009DABB3
:0205FF00B2AB9D
:02060000C0C078
:02060100C0AA8D
:02060200AAAAA2
:02060300AAAAA1
:02060400B7AA93
:02060500AAA9A0
:02060600AAA99F
:020607009CA9AC
:02060800A9B790
:02060900A9A99D
:02060A00A99BAA
:02060B00A9A99B
:02060C00A8A99B
:02060D00B6A98C
:02060E00A9A899
:02060F00A9A898
:02061000A9B689
:02061100B6A889
:02061200A8A995
:02061300A8B687
:02061400B6A886
:02061500A9A892
:02061600A9A990
:02061700AAB285
:02061800A9AA8D
:02061900FEFEE3
:02061A00FEFEE2
:02061B00FEFEE1
:02061C00FEFEE0
:02061D00FEFEDF
:02061E00FEFEDE
:02061F00FEFEDD
:02062000FEFEDC
:02062100FEFEDB
:02062200F2EFF5
:02062300EEEFF8
:02062400EFF2F3
:02062500F2EFF2
:02062600EEF6EE
:02062700E2EF00
:020628002BEFB6
:02062900EEEFF2
:02062A00EEEFF1
:02062B00EEF6E9
:02062C00EFE2FB
:02062D00F6E2F3
:02062E00EEEFED
:02062F002BEFAF
:02063000EEEFEB
:02063100F6E2EF
:02063200EFEEE9
:02063300EFEFE7
:02063400EEEFE7
:020635002BE2B6
:02063600EFEFE4
:02063700EEEFE4
:02063800EEEFE3
:02063900E2EFEE
:02063A00EEEFE1
:02063B00EEE2ED
:02063C00F3C207
:02063D00A1AE6C
:02063E00AEAE5E
:02063F00B5AE56
:02064000B5A063
:02064100B5AD55
:02064200AEB553
:02064300AEAD5A
:02064400AEAE58
:02064500AEAE57
:02064600A0AE64
:02064700AEAE55
:02064800A0AE62
:02064900ACAE55
:02064A00ACAE54
:02064B00ACC140
:02064C00B9AC47
:02064D00B9AC46
:02064E00ACAB53
:02064F00ACAB52
:020650009EAB5F
:02065100ABAB51
:02065200AB9D5E
:02065300C0C025
:02065400B2AA48
:02065500B2AA47
:02065600C0AA38
:02065700AAAA4D
:02065800AAA94D
:02065900AA9C59
:02065A00A9AA4B
:02065B00A9AA4A
:02065C00A9A94A
:02065D00A9A949
:02065E00A9A948
:02065F00A9A947
:020660009BA954
:02066100A9A945
:02066200B69B45
:02066300B69B44
:02066400B6A836
:02066500A9A842
:02066600A8A842
:02066700B6A833
:02066800A8A840
:02066900A8A83F
:02066A00A99B4A
:02066B00AAAA39
:02066C00A99B48
:02066D00E9FEA4
:02066E00FEFE8E
:02066F00FEFE8D
:02067000FEFE8C
:02067100FEFE8B
:02067200FEFE8A
:02067300FEFE89
:02067400FEFE88
:02067500FEFE87
:02067600F3EFA0
:02067700EEEEA5
:02067800EFF0A1
:02067900F3F09C
:02067A00E2EFAD
:02067B00EEEFA0
:02067C00EFEE9F
:02067D00EF2B61
:02067E00EFEE9D
:02067F00EF2B5F
:02068000EFEF9A
:02068100EEEF9A
:02068200EEEF99
:02068300EFE2A4
:02068400F6EF8F
:02068500E2F69B
:02068600EF2B58
:02068700E2EFA0
:02068800EEEF93
:02068900EFEE92
:02068A00EEEF91
:02068B00EEEF90
:02068C00EEE29C
:02068D0039EF43
:02068E00EEEF8D
:02068F00EFF684
:02069000F387EE
:02069100BAB5F8
:02069200AEAE0A
:02069300B5AE02
:02069400B5AE01
:02069500B5A00E
:02069600B5AEFF
:02069700AEB5FE
:02069800AEAE04
:02069900AEAE03
:02069A00AEAE02
:02069B00AEAE01
:02069C00AEAE00
:02069D00AEAEFF
:02069E00A0AE0C
:02069F00ACAEFF
:0206A000ACAC00
:0206A100C1ACEA
:0206A200ACB9F1
:0206A300ACABFE
:0206A400ACABFD
:0206A500ABABFD
:0206A600C0ABE7
:0206A7009DC0F4
:0206A8009DC0F3
:0206A900C0AAE5
:0206AA00AAAAFA
:0206AB00AAAAF9
:0206AC00AAAAF8
:0206AD00B7AAEA
:0206AE00B7A9EA
:0206AF00B7A9E9
:0206B000A9B7E8
:0206B100A9A9F5
:0206B200A9A9F4
:0206B300A9B6E6
:0206B400A9B6E5
:0206B500A9A9F1
:0206B600B6A9E3
:0206B700B6A8E3
:0206B800A9B6E1
:0206B900A89BFC
:0206BA00A8A8EE
:0206BB00B6A8DF
:0206BC00B6A8DE
:0206BD00A8B6DD
:0206BE00A9A9E8
:0206BF00A9AAE6
:0206C000B79BE6
:0206C100A2FE97
:0206C200FEFE3A
:0206C300FEFE39
:0206C400FEFE38
:0206C500FEFE37
:0206C600FEFE36
:0206C700FEFE35
:0206C800FEFE34
:0206C900FEFE33
:0206CA00FEF23E
:0206CB00EFEE50
:0206CC00EEEF4F
:0206CD00F2F148
:0206CE00F8EE44
:0206CF00EEEF4C
:0206D0002BE21B
:0206D100EFEF49
:0206D200EEEF49
:0206D300EFE254
:0206D400EF2B0A
:0206D500EFEE46
:0206D600EFEE45
:0206D700EF2B07
:0206D800EFEF42
:0206D9002BE212
:0206DA00EFEF40
:0206DB00EEEF40
:0206DC00EEEF3F
:0206DD00EEEF3E
:0206DE00EFEE3D
:0206DF00EFF634
:0206E000EFEF3A
:0206E100E2EF46
:0206E200E2EE46
:0206E300EFE244
:0206E400FEE72F
:0206E500A1BAB8
:0206E600AEB5AF
:0206E700A0AEC3
:0206E800AEB4AE
:0206E900AEB5AC
:0206EA00AEAEB2
:0206EB00B5A0B8
:0206EC00AEAEB0
:0206ED00ADAEB0
:0206EE00AEADAF
:0206EF00AEADAE
:0206F000AEACAE
:0206F100AEAEAB
:0206F200AEAEAA
:0206F300ACAEAB
:0206F400ACACAC
:0206F500C1AC96
:0206F600ACACAA
:0206F700ACABAA
:0206F800B9AB9C
:0206F900ABABA9
:0206FA00ABC093
:0206FB00C0B28B
:0206FC00C0C07C
:0206FD00B2AA9F
:0206FE00C0AA90
:0206FF00AAAAA5
:02070000AAAAA3
:02070100AAA9A3
:02070200AAAAA1
:02070300B7AA93
:02070400AAA9A0
:02070500B7A992
:02070600A9A99F
:02070700A9A99E
:02070800A9A99D
:02070900A9A99C
:02070A00A8A99C
:02070B00B69B9B
:02070C00B6A98C
:02070D00A8B68C
:02070E00B69B98
:02070F00A8B68A
:02071000A8B689
:02071100A8A896
:02071200B69B94
:02071300A99C9F
:02071400AAA990
:020715009CF353
:02071600FEFEE5
:02071700FEFEE4
:02071800FEFEE3
:02071900FEFEE2
:02071A00FEFEE1
:02071B00FEFEE0
:02071C00FEFEDF
:02071D00FEFEDE
:02071E00FEFEDD
:02071F00F0EFF9
:02072000EEEFFA
:02072100F0F2F4
:02072200F2EFF4
:02072300F6E2FC
:02072400F7EEEE
:02072500EFEEF5
:020726002BEFB7
:02072700F6EFEB
:02072800EEEFF2
:02072900EF2BB4
:02072A00EFEEF0
:02072B00EFEFEE
:02072C00EEEFEE
:02072D00EFF6E5
:02072E00E2F6F1
:02072F00EF2BAE
:02073000EFEEEA
:02073100EFEEE9
:02073200EFEEE8
:02073300EFEEE7
:02073400EEEFE6
:02073500F6F6D6
:02073600EFF6DC
:02073700EEEFE3
:02073800FEF2CF
:02073900BABA4A
:02073A00A0C25B
:02073B00B5B552
:02073C00AEAE5F
:02073D00AEAD5F
:02073E00AEAE5D
:02073F00B5B54E
:02074000ADB555
:02074100AEAD5B
:02074200AEAE59
:02074300AEAE58
:02074400AEAE57
:02074500ACAE58
:02074600AEAE55
:02074700AE9F63
:02074800C1AC42
:02074900C1AC41
:02074A00C1AC40
:02074B00ACAC54
:02074C00AC9D62
:02074D00ABAB54
:02074E00AB9D61
:02074F00B2C036
:02075000B2AA4B
:02075100C0AA3C
:02075200C0AA3B
:02075300AAAA50
:02075400AAB742
:02075500AAAA4E
:02075600A9AA4E
:02075700A9A94E
:02075800A9A94D
:02075900A9A94C
:02075A00A9A94B
:02075B00A9A94A
:02075C00A8A94A
:02075D00B69B49
:02075E00B6A83B
:02075F00A9B639
:02076000B69B46
:02076100A8A846
:02076200B6B629
:02076300A8B636
:02076400A8B635
:02076500A8A941
:02076600A8A841
:02076700A9AA3D
:02076800AAB72E
:02076900A9E9FC
:02076A00FEFE91
:02076B00FEFE90
:02076C00FEFE8F
:02076D00FEFE8E
:02076E00FEFE8D
:02076F00FEFE8C
:02077000FEFE8B
:02077100FEFE8A
:02077200FEFE89
:02077300F1EFA4
:02077400EEEFA6
:02077500E2F1AF
:02077600F3F09E
:02077700EF1D74
:02077800EF2B65
:02077900EFEFA0
:02077A00EFEEA0
:02077B00EFEE9F
:02077C00EFEE9E
:02077D00EFE2A9
:02077E00EFEE9C
:02077F00EFEE9B
:02078000EFEE9A
:02078100EFEF98
:020782002BE268
:02078300EFEF96
:020784002BEF59
:02078500EF2B58
:02078600EEEF94
:02078700EEEF93
:02078800E22B62
:02078900EFEF90
:02078A00E2EF9C
:02078B00EEEF8F
:02078C00FEE984
:02078D00A1C207
:02078E00BAAE01
:02078F00B5A013
:02079000B5B5FD
:02079100A0B511
:02079200ADAE0A
:02079300ADAE09
:02079400AEAD08
:02079500AEAE06
:02079600A0AE13
:02079700AEAE04
:02079800ADAE04
:02079900AEAE02
:02079A00ACAE03
:02079B00AEAE00
:02079C00AEAC01
:02079D00C1ACED
:02079E00ACAC01
:02079F00B9ABF4
:0207A000ACAB00
:0207A100ABAB00
:0207A200ABC0EA
:0207A300C09DF7
:0207A400C0C0D3
:0207A500ABC0E7
:0207A600AAAAFD
:0207A700AAAAFC
:0207A800AAAAFB
:0207A900AAAAFA
:0207AA00AAA9FA
:0207AB00AAAAF8
:0207AC00AAA9F8
:0207AD00B7A9EA
:0207AE00A9A9F7
:0207AF00A9A9F6
:0207B000A9A9F5
:0207B1009BA902
:0207B2009BA901
:0207B300B6B6D8
:0207B400A9B6E4
:0207B500B69BF1
:0207B600A8A9F0
:0207B700B6A8E2
:0207B800A8A8EF
:0207B900B6B6D2
:0207BA00A8A8ED
:0207BB009BAAF7
:0207BC00B2B2D7
:0207BD00A99CF5
:0207BE00F3FE48
:0207BF00FEFE3C
:0207C000FEFE3B
:0207C100FEFE3A
:0207C200FEFE39
:0207C300FEFE38
:0207C400FEFE37
:0207C500FEFE36
:0207C600FEFE35
:0207C700F3F14C
:0207C800EEEF52
:0207C900EEF050
:0207CA00F2F14A
:0207CB00F0EF4D
:0207CC00EFEE4E
:0207CD00EFEE4D
:0207CE00EF2B0F
:0207CF00EFE257
:0207D000F6EF42
:0207D100EEF741
:0207D2002BE218
:0207D300EFEE47
:0207D400EF2B09
:0207D500EFE251
:0207D600EFF63C
:0207D700E2EF4F
:0207D800E2F647
:0207D900EFEF40
:0207DA00EF2B03
:0207DB00EFF637
:0207DC00EFEF3D
:0207DD00EEEE3E
:0207DE00F6EF34
:0207DF00EEEF3B
:0207E000FEE831
:0207E100AFA1C6
:0207E200C2AEA5
:0207E300B5AEB1
:0207E400B5AEB0
:0207E500B5B5A8
:0207E600ADAEB6
:0207E700AEADB5
:0207E800AEA0C1
:0207E900B5AEAB
:0207EA00AEADB2
:0207EB00AEAEB0
:0207EC00AEAEAF
:0207ED00ADAEAF
:0207EE00AEACAF
:0207EF00AEACAE
:0207F000AEA0B9
:0207F100ACAEAC
:0207F200ACACAD
:0207F300ACACAC
:0207F400B99EAC
:0207F500ABABAC
:0207F600ABABAB
:0207F700ABC095
:0207F800B2AAA3
:0207F900B2AAA2
:0207FA00C0AA93
:0207FB00AAAAA8
:0207FC00AA9CB5
:0207FD00B7AA99
:0207FE00AAA9A6
:0207FF00A9A9A6
:020800009CA9B1
:02080100A9A9A3
:02080200A9A9A2
:02080300A9A9A1
:020804009BA9AE
:02080500A9B692
:02080600A9A99E
:02080700A8A99E
:02080800B6A98F
:02080900B6B681
:02080A00B6A88E
:02080B00B6B67F
:02080C00A8B68C
:02080D00B6B67D
:02080E00A8B68A
:02080F00A8A996
:02081000AAB28A
:02081100AAA992
:02081200F3FEF3
:02081300FEFEE7
:02081400FEFEE6
:02081500FEFEE5
:02081600FEFEE4
:02081700FEFEE3
:02081800FEFEE2
:02081900FEFEE1
:02081A00FEFEE0
:02081B00FEF2EB
:02081C00EFF6F5
:02081D00E1EF09
:02081E00F0FDEB
:02081F00F0EFF8
:020820002BEFBC
:02082100EEEFF8
:02082200E2EF03
:02082300EF2BB9
:02082400EFEEF5
:02082500E2EF00
:02082600EFEFF2
:020827002BEFB5
:02082800E2EFFD
:02082900F6EFE8
:02082A00EFF6E7
:02082B00EFEEEE
:02082C00EFEEED
:02082D00EFEEEC
:02082E00EFE2F7
:02082F00F6E2EF
:02083000EEEFE9
:02083100EFEFE7
:020832002BEFAA
:02083300E2F6EB
:02083400FEF3D1
:02083500A3AF6F
:02083600BAAE58
:02083700AEB55C
:02083800AEAE62
:02083900B5A068
:02083A00B5B552
:02083B00A0B566
:02083C00B5AE57
:02083D00ADB557
:02083E00AEAE5C
:02083F00AEA069
:02084000AEAE5A
:02084100AEAD5A
:02084200AEAE58
:02084300AEAE57
:02084400ACAE58
:02084500AEAC57
:02084600ACC143
:02084700ACAB58
:02084800ACAB57
:02084900ABAB57
:02084A00ABC041
:02084B009DAB63
:02084C00C09D4D
:02084D00C0C029
:02084E00AAC03E
:02084F00AAAA53
:02085000AAAA52
:02085100AAA952
:02085200AAAA50
:02085300A9AA50
:02085400A9AA4F
:02085500A9A94F
:02085600A9A94E
:02085700A9A94D
:02085800A99B5A
:02085900A9A94B
:02085A00A9A84B
:02085B00A9B63C
:02085C00A89B57
:02085D00A8A948
:02085E00A89B55
:02085F00B6A839
:02086000B6A838
:02086100B6A837
:02086200A8B636
:020863009BA94F
:02086400B2AB35
:020865009CAA4B
:020866009EF3FF
:02086700FEFE93
:02086800FEFE92
:02086900FEFE91
:02086A00FEFE90
:02086B00FEFE8F
:02086C00FEFE8E
:02086D00FEFE8D
:02086E00FEFE8C
:02086F00FEFE8B
:02087000F1EFA6
:02087100EEEEA9
:02087200EFF1A4
:02087300F3F0A0
:020874001DEF76
:02087500EEEFA4
:02087600F6EE9C
:02087700E2EFAE
:02087800EFEEA1
:020879002BEF63
:02087A00EEEF9F
:02087B00EEEF9E
:02087C00F6EF95
:02087D00EEE2A9
:02087E00F6E2A0
:02087F002BEF5D
:02088000EFEE99
:02088100EF2B5B
:02088200EFEF96
:02088300EFEE96
:02088400EF2B58
:02088500EFE2A0
:02088600EFEF92
:02088700EEEF92
:02088800FEFE72
:0208890095BA1E
:02088A00BAB5FD
:02088B00AEB508
:02088C00ADAE0F
:02088D00B5AE06
:02088E00ADB506
:02088F00AEB504
:02089000ADAE0B
:02089100AEAE09
:02089200ADAE09
:02089300AEAE07
:02089400ADAE07
:02089500AEAE05
:02089600A0AE12
:02089700ACAE05
:02089800ACC1F1
:02089900ACAE03
:02089A00A0AC10
:02089B00ACB9F6
:02089C009EAB11
:02089D00ABAB03
:02089E009DAB10
:02089F00C0B2E5
:0208A000C0ABEB
:0208A100AAAB00
:0208A200AAC0EA
:0208A300AAAAFF
:0208A400AAAAFE
:0208A500AAAAFD
:0208A6009CAA0A
:0208A700B7AAEE
:0208A800A9A9FC
:0208A900AAA9FA
:0208AA00A9A9FA
:0208AB00A9A9F9
:0208AC00A9A9F8
:0208AD00A9A8F8
:0208AE00A9A9F6
:0208AF00A9A8F6
:0208B000B6A9E7
:0208B100A8A9F4
:0208B200B6A8E6
:0208B300A8A8F3
:0208B400B6A8E4
:0208B500A8A8F1
:0208B600A8B6E2
:0208B700A8A9EE
:0208B8009CAAF8
:0208B900AAA9EA
:0208BA00AAE9A9
:0208BB00FEFE3F
:0208BC00FEFE3E
:0208BD00FEFE3D
:0208BE00FEFE3C
:0208BF00FEFE3B
:0208C000FEFE3A
:0208C100FEFE39
:0208C200FEFE38
:0208C300FEFE37
:0208C400F3EF50
:0208C500EFEE54
:0208C600EFEF52
:0208C700F2F24B
:0208C800F0EE50
:0208C900EEEF50
:0208CA00EFEE4F
:0208CB00EFEE4E
:0208CC00EFEF4C
:0208CD00EEEF4C
:0208CE00EEEF4B
:0208CF00E2EF56
:0208D0002BEF0C
:0208D100EEEF48
:0208D200EFEF46
:0208D300EF2B09
:0208D400EEEF45
:0208D500E2EF50
:0208D6002BEF06
:0208D700EEEF42
:0208D800EEEF41
:0208D900F6EF38
:0208DA00EEEF3F
:0208DB002BEE02
:0208DC00FEFE1E
:0208DD00E7AF83
:0208DE00AFAEBB
:0208DF00AEAEBB
:0208E000B5AEB3
:0208E100AEB5B2
:0208E200AEADB9
:0208E300AEAEB7
:0208E400AEADB7
:0208E500AEAEB5
:0208E600B5AEAD
:0208E700ADAEB4
:0208E800AEAEB2
:0208E900ACAEB3
:0208EA00AEAEB0
:0208EB00ADAEB0
:0208EC00AEACB0
:0208ED00AEACAF
:0208EE00ACAEAE
:0208EF00ACABB0
:0208F000B99EAF
:0208F100ABABAF
:0208F200ABABAE
:0208F300ABC098
:0208F400ABC097
:0208F500C09DA4
:0208F600C0AA96
:0208F700AAAAAB
:0208F800AAAAAA
:0208F900AAAAA9
:0208FA00AAA9A9
:0208FB00AAAAA7
:0208FC00A9AAA7
:0208FD00A9A9A7
:0208FE00A9A9A6
:0208FF00A9A9A5
:02090000A9A9A3
:02090100A99BB0
:02090200A9B694
:02090300A99BAE
:02090400A89BAE
:02090500A8A99F
:02090600B69B9E
:02090700B6B682
:02090800A8B68F
:02090900B6A88E
:02090A00A8B68D
:02090B00A8A999
:02090C00A9AA96
:02090D00B29C9A
:02090E00A9A19D
:02090F00FEFEEA
:02091000FEFEE9
:02091100FEFEE8
:02091200FEFEE7
:02091300FEFEE6
:02091400FEFEE5
:02091500FEFEE4
:02091600FEFEE3
:02091700FEFEE2
:02091800FEF2ED
:02091900EFEFFE
:02091A00EEEEFF
:02091B00F0F2F8
:02091C00F2E304
:02091D0039E2BD
:02091E00EF2BBD
:02091F00EFEEF9
:02092000EFEEF8
:02092100EFEEF7
:02092200EFEEF6
:020923002BEFB8
:02092400EFE200
:020925002BEFB6
:02092600EEE2FF
:02092700EFEFF0
:02092800EFF6E8
:02092900E2EFFB
:02092A00EEEFEE
:02092B00EEEFED
:02092C002BEFAF
:02092D00EEEFEB
:02092E002BEFAD
:02092F00EFE2F5
:02093000FEFEC9
:02093100FEAF17
:02093200BABA4F
:02093300B5AE5F
:02093400B5A06C
:02093500B5AE5D
:02093600B5AE5C
:02093700ADAE63
:02093800ADAE62
:02093900B5A067
:02093A00AEAE5F
:02093B00AEAE5E
:02093C00A0AE6B
:02093D00AEAE5C
:02093E00ACAE5D
:02093F00A0AE68
:02094000ACA069
:02094100AEAE58
:02094200ACAC5B
:02094300ACAC5A
:02094400ACAB5A
:02094500ABAB5A
:02094600AB9D67
:02094700ABC043
:02094800B2C03B
:02094900B2C03A
:02094A00B2C039
:02094B00AAAA56
:02094C00AAAA55
:02094D00AAB747
:02094E00AAAA53
:02094F00B7A946
:02095000AAA952
:02095100AAA951
:02095200A9A951
:02095300A9A950
:02095400A9A850
:02095500A9A94E
:02095600A9A94D
:02095700B6B632
:02095800B6A83F
:02095900A9A94A
:02095A00B69B4A
:02095B00A89B57
:02095C00B6B62D
:02095D00A8A848
:02095E00A8A847
:02095F00B6A937
:02096000A9AA42
:02096100AAAA40
:02096200A9AA40
:02096300F3FEA1
:02096400FEFE95
:02096500FEFE94
:02096600FEFE93
:02096700FEFE92
:02096800FEFE91
:02096900FEFE90
:02096A00FEFE8F
:02096B00FEFE8E
:02096C00FEFE8D
:02096D00F1EFA8
:02096E00EEEFAA
:02096F00EFF1A6
:02097000F2F2A1
:02097100EFEEA7
:02097200EFEFA5
:02097300EF2B68
:02097400EFEFA3
:020975002BEE67
:02097600EFEFA1
:02097700EFEEA1
:02097800EFEF9F
:02097900EEEF9F
:02097A00F6EF96
:02097B00EEEE9E
:02097C00EFF694
:02097D00EFEE9B
:02097E00EF2B5D
:02097F00EFEF98
:02098000E2EEA5
:02098100EFE2A3
:02098200EFEE96
:02098300EF2B58
:02098400FEFE75
:02098500F3B0CD
:02098600A1BB13
:02098700AEBA06
:02098800B5B503
:02098900A0B517
:02098A00A0AE1D
:02098B00B5AE07
:02098C00ADAE0E
:02098D00AEAD0D
:02098E00AEAD0C
:02098F00B5AE03
:02099000AEAE09
:02099100AEAE08
:02099200AEAE07
:02099300AEAE06
:02099400AEAE05
:02099500ACAC08
:02099600ACAC07
:02099700AEAB05
:02099800B99E06
:02099900ACAB05
:02099A00ABAB05
:02099B009DAB12
:02099C00C0ABEE
:02099D00AAC0EE
:02099E00AAC0ED
:02099F00AAAA02
:0209A000AAAA01
:0209A100AAAA00
:0209A200A9AA00
:0209A300AAAAFE
:0209A400A9AAFE
:0209A500B7A9F0
:0209A600B7A9EF
:0209A700A9A9FC
:0209A800A9A9FB
:0209A900A9B6ED
:0209AA00A9A9F9
:0209AB00A9A9F8
:0209AC00A8A9F8
:0209AD00A8A8F8
:0209AE00A8B6E9
:0209AF00B6B6DA
:0209B000A8A8F5
:0209B100B69BF3
:0209B200A8A8F3
:0209B300A8A8F2
:0209B400A8A9F0
:0209B500A9B7E0
:0209B600A9B7DF
:0209B7009DFEA3
:0209B800FEFE41
:0209B900FEFE40
:0209BA00FEFE3F
:0209BB00FEFE3E
:0209BC00FEFE3D
:0209BD00FEFE3C
:0209BE00FEFE3B
:0209BF00FEFE3A
:0209C000FEFE39
:0209C100F3F150
:0209C200EEEF56
:0209C300EEEF55
:0209C400F1F34D
:0209C500F0EF51
:0209C6002BE222
:0209C700EFE25D
:0209C800EFEE50
:0209C900EFEF4E
:0209CA00EEEE4F
:0209CB00EFEE4D
:0209CC00EFF644
:0209CD00EF2B0E
:0209CE00E2EF56
:0209CF00EF2B0C
:0209D000EFE254
:0209D100EFEE47
:0209D200EFEF45
:0209D300EEEF45
:0209D400EFEE44
:0209D500EFF63B
:0209D600EFEE42
:0209D700EFEF40
:0209D800FEFE21
:0209D900FEAF6F
:0209DA00AFC2AA
:0209DB00AEAEBE
:0209DC00AEB5B6
:0209DD00B5AEB5
:0209DE00B5AEB4
:0209DF00ADB5B4
:0209E000AEA0C7
:0209E100B5AEB1
:0209E200AEAEB7
:0209E300AEADB7
:0209E400AEAEB5
:0209E500ACAEB6
:0209E600ACAEB5
:0209E700ACACB6
:0209E800ACADB4
:0209E900AEAEB0
:0209EA00ACAEB1
:0209EB00ACACB2
:0209EC00ACABB2
:0209ED00ABABB2
:0209EE00ABABB1
:0209EF00ABC09B
:0209F000B2C093
:0209F100B2C092
:0209F200B2AAA7
:0209F300C0AA98
:0209F400AAAAAD
:0209F500AAAAAC
:0209F600AAB79E
:0209F7009CA9B9
:0209F800AAB79C
:0209F900AAA9A9
:0209FA00AAA9A8
:0209FB00A9A9A8
:0209FC00A9A9A7
:0209FD00A9A9A6
:0209FE00A9A8A6
:0209FF00A8A8A6
:020A0000A8A9A3
:020A0100A9A9A1
:020A0200A9A8A1
:020A0300A9B692
:020A0400A8A99F
:020A0500A8A89F
:020A0600A8A89E
:020A0700A89BAA
:020A0800B6A98D
:020A0900A9AA98
:020A0A00AA9CA4
:020A0B00B7FE34
:020A0C00FEFEEC
:020A0D00FEFEEB
:020A0E00FEFEEA
:020A0F00FEFEE9
:020A1000FEFEE8
:020A1100FEFEE7
:020A1200FEFEE6
:020A1300FEFEE5
:020A1400FEFEE4
:020A1500FEF2EF
:020A1600EFEE01
:020A1700EEE20D
:020A1800E2F208
:020A1900F2F0F9
:020A1A00EFF6F5
:020A1B00EF39B1
:020A1C00EFE207
:020A1D00EF2BBD
:020A1E00EFEEF9
:020A1F00EF2BBB
:020A2000E2EF03
:020A2100EFEEF6
:020A2200EFEEF5
:020A2300EFEFF3
:020A24002BEEB7
:020A2500EFF6EA
:020A2600E2EEFE
:020A2700EF2BB3
:020A2800EEEFEF
:020A29002BEFB1
:020A2A00EEEFED
:020A2B00EEEFEC
:020A2C00FEFECC
:020A2D00FEA326
:020A2E00AFBB5C
:020A2F00AEBA5D
:020A3000AEAE68
:020A3100AEB560
:020A3200AEB55F
:020A3300A0AE73
:020A3400B5AE5D
:020A3500AEAE63
:020A3600ADAE63
:020A3700AEAD62
:020A3800AEAE60
:020A3900AEAE5F
:020A3A00ADAE5F
:020A3B00AEAE5D
:020A3C00ACAE5E
:020A3D009FAE6A
:020A3E00ACAC5E
:020A3F00AEAB5C
:020A40009EB95D
:020A4100ACAB5C
:020A4200ABC047
:020A43009DAB69
:020A4400ABB253
:020A4500C0C02F
:020A4600C0B23C
:020A4700C0AA43
:020A4800AAAA58
:020A49009CAA65
:020A4A00AAAA56
:020A4B00AAAA55
:020A4C00A9A956
:020A4D00AAA954
:020A4E00A9A954
:020A4F00A9A953
:020A5000A9A952
:020A5100A9A951
:020A52009BA95E
:020A5300A99B5D
:020A5400B6A842
:020A55009BA85C
:020A5600A8A84E
:020A5700B6A93E
:020A5800A8A84C
:020A5900B69B4A
:020A5A00A89B57
:020A5B00A8B63B
:020A5C00A8B63A
:020A5D009BAA52
:020A5E00AAB735
:020A5F00A99D4F
:020A6000F3FEA3
:020A6100FEFE97
:020A6200FEFE96
:020A6300FEFE95
:020A6400FEFE94
:020A6500FEFE93
:020A6600FEFE92
:020A6700FEFE91
:020A6800FEFE90
:020A6900FEFE8F
:020A6A00F2EFA9
:020A6B00E28027
:020A6C00EFE3B6
:020A6D00F2F2A3
:020A6E00F8E2AC
:020A6F00EFEEA8
:020A7000EF2B6A
:020A7100EFEFA5
:020A7200EFEEA5
:020A7300EFEFA3
:020A7400E23965
:020A7500EFE2AE
:020A76002BEF64
:020A7700EEEFA0
:020A7800EFEF9E
:020A79002BEF61
:020A7A00EFEE9D
:020A7B00EFEF9B
:020A7C00EFEE9B
:020A7D00EFEF99
:020A7E002BEF5C
:020A7F00EE2B5C
:020A8000FEFE78
:020A8100FEF283
:020A8200AFA023
:020A8300C2B5FA
:020A8400AEB50D
:020A8500AEAE13
:020A8600B5AE0B
:020A8700B5AE0A
:020A8800ADB50A
:020A8900AEAD10
:020A8A00AEAE0E
:020A8B00AEAE0D
:020A8C00AEA01A
:020A8D00AEAE0B
:020A8E00A0AE18
:020A8F00ADAE0A
:020A9000A0AE16
:020A9100ACAC0B
:020A9200AEAC08
:020A9300ACC1F4
:020A9400ABAB0A
:020A95009EAB16
:020A9600ABAB08
:020A9700ABC0F2
:020A9800ABC0F1
:020A9900B2B2F7
:020A9A00C0AAF0
:020A9B00AAC0EF
:020A9C00AAAA04
:020A9D00AAAA03
:020A9E00B7AAF5
:020A9F00A9AA02
:020AA000AAB7F3
:020AA1009CA90E
:020AA200B7A9F2
:020AA300A9A9FF
:020AA400A9A9FE
:020AA500A9A9FD
:020AA600B6A9EF
:020AA700B6A9EE
:020AA800A8A8FC
:020AA900A9A9F9
:020AAA00A99B06
:020AAB00B6A8EB
:020AAC00B6A8EA
:020AAD00B6A8E9
:020AAE00A8A8F6
:020AAF00A8A8F5
:020AB000A9B6E5
:020AB100A9A9F1
:020AB200AA9CFC
:020AB300AA9BFC
:020AB400F3FE4F
:020AB500FEFE43
:020AB600FEFE42
:020AB700FEFE41
:020AB800FEFE40
:020AB900FEFE3F
:020ABA00FEFE3E
:020ABB00FEFE3D
:020ABC00FEFE3C
:020ABD00FEFE3B
:020ABE00FEF147
:020ABF00E2EF64
:020AC0007FEEC7
:020AC100F8E952
:020AC200FDEF46
:020AC300EFEE54
:020AC400EFEF52
:020AC500E22B22
:020AC600EFEE51
:020AC700EFEE50
:020AC800EFEF4E
:020AC900F6EF46
:020ACA00E2EF59
:020ACB00F6E251
:020ACC00EEEF4B
:020ACD00E2EF56
:020ACE00EEEF49
:020ACF00EEEE49
:020AD000EFEE47
:020AD100EEEF46
:020AD200E2EF51
:020AD300EFEE44
:020AD400FEFE24
:020AD500FEE938
:020AD600BAC2A2
:020AD700AEAEC1
:020AD800AEAEC0
:020AD900B5ADB9
:020ADA00AEB5B7
:020ADB00AEB5B6
:020ADC00AEAEBC
:020ADD00AEAEBB
:020ADE00AEADBB
:020ADF00AEAEB9
:020AE000AEAEB8
:020AE100ADAEB8
:020AE200AEAEB6
:020AE300ACAEB7
:020AE400AEACB6
:020AE500AEAEB3
:020AE600AEACB4
:020AE700AEACB3
:020AE800ACACB4
:020AE900ACB9A6
:020AEA00ABABB4
:020AEB00ABABB3
:020AEC00C0AB9D
:020AED00C0AA9D
:020AEE00C0B294
:020AEF00C0AA9B
:020AF000AAAAB0
:020AF100AAAAAF
:020AF200AAAAAE
:020AF300AAA9AE
:020AF400AAAAAC
:020AF500B7A99F
:020AF600AAA9AB
:020AF700A9A9AB
:020AF800A9A9AA
:020AF900A9A9A9
:020AFA009BA9B6
:020AFB00A9A9A7
:020AFC00A9A8A7
:020AFD00A9A8A6
:020AFE00A8B698
:020AFF00A9A8A4
:020B0000A9A8A2
:020B0100A9A8A1
:020B0200A8A8A1
:020B0300A8A8A0
:020B0400A8A89F
:020B0500A8A99D
:020B0600AAAB98
:020B0700B2A991
:020B08009DF35B
:020B0900FEFEEE
:020B0A00FEFEED
:020B0B00FEFEEC
:020B0C00FEFEEB
:020B0D00FEFEEA
:020B0E00FEFEE9
:020B0F00FEFEE8
:020B1000FEFEE7
:020B1100FEFEE6
:020B1200FEFEE5
:020B1300F1EF00
:020B1400E2E21B
:020B1500EFF0FF
:020B1600FCE9F8
:020B1700F8EFF5
:020B1800EEEEFF
:020B1900EFE209
:020B1A00EFEEFC
:020B1B00EFEEFB
:020B1C00EFEEFA
:020B1D00EFEFF8
:020B1E00F6EFF0
:020B1F00E2EF03
:020B200039EFAB
:020B2100EEEFF5
:020B2200EEEFF4
:020B2300EEEFF3
:020B2400EEEFF2
:020B2500EEEFF1
:020B2600EEEFF0
:020B2700EEEFEF
:020B2800FEFECF
:020B2900FEF3D9
:020B2A00E6AE35
:020B2B00B5AE65
:020B2C00B5AE64
:020B2D00AEB563
:020B2E00AEAD6A
:020B2F00AEAE68
:020B3000B5AE60
:020B3100B5AE5F
:020B3200A0B56C
:020B3300AEAD65
:020B3400AEAE63
:020B3500AEAC64
:020B3600AEAE61
:020B3700ADAE61
:020B3800AEAE5F
:020B3900ACAC62
:020B3A00ADC14B
:020B3B00ACAE5E
:020B3C00ACA06B
:020B3D00ABAC5F
:020B3E009EAB6C
:020B3F00ABAB5E
:020B4000ABAB5D
:020B4100ABC047
:020B4200B2AA55
:020B4300B2C03E
:020B4400AAAA5B
:020B4500AAAA5A
:020B4600AAA95A
:020B4700AAAA58
:020B4800A9AA58
:020B4900A9AA57
:020B4A00A9AA56
:020B4B00A9A956
:020B4C00A9A955
:020B4D00A9B647
:020B4E00A9A953
:020B4F00A8A953
:020B5000A8A952
:020B5100A89B5F
:020B5200A9B642
:020B5300A8B642
:020B5400A8A84F
:020B5500A8A84E
:020B5600A9A84C
:020B5700A8B63E
:020B5800A8A84B
:020B5900A8A949
:020B5A009CB24B
:020B5B00ABAA43
:020B5C00A9E707
:020B5D00FEFE9A
:020B5E00FEFE99
:020B5F00FEFE98
:020B6000FEFE97
:020B6100FEFE96
:020B6200FEFE95
:020B6300FEFE94
:020B6400FEFE93
:020B6500FEFE92
:020B6600FEFE91
:020B6700F3F0A9
:020B6800EFF6A6
:020B6900E12B7E
:020B6A00F1FD9B
:020B6B00F2EFA7
:020B6C00EFEEAA
:020B6D00EEEFA9
:020B6E002BEE6C
:020B6F00EF2B6A
:020B7000EFF69E
:020B7100E2EEB2
:020B7200EF3959
:020B7300EFE2AF
:020B7400EFEEA2
:020B7500EFF699
:020B7600EFEEA0
:020B7700EFF697
:020B7800EFF696
:020B7900F6EF95
:020B7A002BEF5F
:020B7B00EF2B5E
:020B7C00FEFE7B
:020B7D00FEFE7A
:020B7E0087BA34
:020B7F00AEB511
:020B8000AEAE17
:020B8100B5AE0F
:020B8200AEB50E
:020B8300B5AE0D
:020B8400AEB50C
:020B8500AEB50B
:020B8600AEAE11
:020B8700AEAE10
:020B8800ADAE10
:020B8900AEAE0E
:020B8A00ADAE0E
:020B8B00ACAE0E
:020B8C00ACAE0D
:020B8D00AEAE0A
:020B8E00ACAE0B
:020B8F00ACAC0C
:020B9000C1ACF6
:020B9100B99E0B
:020B9200B9ABFD
:020B9300ABAB0A
:020B9400C0ABF4
:020B95009DC001
:020B9600C0C0DD
:020B9700C0AAF2
:020B9800C0AAF1
:020B9900AAAA06
:020B9A00AAAA05
:020B9B00A9AA05
:020B9C00AAA904
:020B9D00AAA903
:020B9E00A9B7F5
:020B9F00A9A902
:020BA000A9A901
:020BA100A9A900
:020BA200A9A9FF
:020BA3009BA90C
:020BA400A9B6F0
:020BA5009BA90A
:020BA600A8A9FC
:020BA700A8A9FB
:020BA800B69BFA
:020BA900A8A8FA
:020BAA00B6A8EB
:020BAB00A8A8F8
:020BAC009BA804
:020BAD00A8B6E8
:020BAE009BAA00
:020BAF00B2B2E0
:020BB0009BA9FF
:020BB100F3FE51
:020BB200FEFE45
:020BB300FEFE44
:020BB400FEFE43
:020BB500FEFE42
:020BB600FEFE41
:020BB700FEFE40
:020BB800FEFE3F
:020BB900FEFE3E
:020BBA00FEFE3D
:020BBB00FEF347
:020BBC00F1EF57
:020BBD00EEEE5A
:020BBE00EFF056
:020BBF00F2F34F
:020BC000F0EE55
:020BC100EEEF55
:020BC200EFEF53
:020BC300E2EF5F
:020BC400E22B22
:020BC500EFEF50
:020BC600EEEF50
:020BC700EEEF4F
:020BC800EEEF4E
:020BC9002BEF10
:020BCA00EEEF4C
:020BCB00EEEE4C
:020BCC00EFEE4A
:020BCD00EFEE49
:020BCE00EFEE48
:020BCF00EFEF46
:020BD000FEFE27
:020BD100FEFE26
:020BD200F2BA75
:020BD300AEAEC4
:020BD400B5AEBC
:020BD500AEB5BB
:020BD600A0B5C8
:020BD700AEB5B9
:020BD800AEAEBF
:020BD900AEB5B7
:020BDA00AEADBE
:020BDB00AEAEBC
:020BDC00AEAEBB
:020BDD00ADAEBB
:020BDE00AEAEB9
:020BDF00AEADB9
:020BE000AEAEB7
:020BE100ACAEB8
:020BE200AEAEB5
:020BE300ACACB8
:020BE400ACACB7
:020BE500ACABB7
:020BE600ABABB7
:020BE700ABC0A1
:020BE800ABC0A0
:020BE900ABB2AD
:020BEA00C0B297
:020BEB00B2AAAC
:020BEC00C0AA9D
:020BED00AAAAB2
:020BEE00AAAAB1
:020BEF00AAAAB0
:020BF000AAA9B0
:020BF100AAA9AF
:020BF200AAA9AE
:020BF300A9A9AE
:020BF400A9A9AD
:020BF500A9A9AC
:020BF600B6A99E
:020BF700A9A8AB
:020BF800A9B69C
:020BF900A99BB6
:020BFA00B69BA8
:020BFB00B6B68C
:020BFC00B6A899
:020BFD00A9A8A5
:020BFE00A89BB2
:020BFF00B6B688
:020C0000A8B694
:020C0100A8B693
:020C0200B6A991
:020C03009CAAA9
:020C04009CA9A9
:020C05009CFE53
:020C0600FEFEF0
:020C0700FEFEEF
:020C0800FEFEEE
:020C0900FEFEED
:020C0A00FEFEEC
:020C0B00FEFEEB
:020C0C00FEFEEA
:020C0D00FEFEE9
:020C0E00FEFEE8
:020C0F00FEFEE7
:020C1000F3F0FF
:020C1100EFEF03
:020C1200EEEE04
:020C1300F0F2FD
:020C1400F2F1FB
:020C1500EFEE00
:020C1600F6EEF8
:020C1700F6EFF6
:020C1800EFEFFC
:020C19002BE2CC
:020C1A00EF2BBE
:020C1B00EFF6F2
:020C1C00E2EF05
:020C1D00EFEEF8
:020C1E00EFF6EF
:020C1F00EFEEF6
:020C2000EFEEF5
:020C2100EFEEF4
:020C2200EFEEF3
:020C2300EFEEF2
:020C2400FEFED2
:020C2500FEFED1
:020C2600E7BA2B
:020C2700BAAE63
:020C2800AEB567
:020C2900B5B55F
:020C2A00AEAE6C
:020C2B00B5AE64
:020C2C00B5B55C
:020C2D00AEAE69
:020C2E00B5AE61
:020C2F00B5AE60
:020C3000ADAE67
:020C3100AEAD66
:020C3200AEAD65
:020C3300AEAE63
:020C3400AEAE62
:020C3500ADAE62
:020C3600ACAE62
:020C3700AEAC61
:020C3800C1AC4D
:020C3900B9AC54
:020C3A00ACAC60
:020C3B009DAB6F
:020C3C00C0AB4B
:020C3D00ABB258
:020C3E00C0C034
:020C3F00C0B241
:020C4000AAAA5E
:020C4100AAAA5D
:020C4200AAAA5C
:020C43009CB75C
:020C4400AAAA5A
:020C4500A9AA5A
:020C4600A9AA59
:020C4700A9B74B
:020C4800A9A958
:020C4900A9A957
:020C4A00A99B64
:020C4B00A9A955
:020C4C00A9A954
:020C4D00A9A953
:020C4E00B6B638
:020C4F00A9A852
:020C5000A9A851
:020C5100A8B643
:020C5200A8B642
:020C5300A8A84F
:020C5400A8A84E
:020C5500B6A83F
:020C5600B6C422
:020C5700A9AA48
:020C5800ABAA45
:020C5900A9A14F
:020C5A00FEFE9C
:020C5B00FEFE9B
:020C5C00FEFE9A
:020C5D00FEFE99
:020C5E00FEFE98
:020C5F00FEFE97
:020C6000FEFE96
:020C6100FEFE95
:020C6200FEFE94
:020C6300FEFE93
:020C6400FEF39D
:020C6500EFEEB0
:020C6600E2EEBC
:020C6700EEEFAE
:020C6800F2F3A5
:020C6900F0EFAA
:020C6A00E2EFB7
:020C6B00EF2B6D
:020C6C00EFEEA9
:020C6D00EFEFA7
:020C6E00EEEFA7
:020C6F00EF2B69
:020C7000EFEEA5
:020C7100EFF69C
:020C7200EFEEA3
:020C7300EFF69A
:020C7400EFF699
:020C7500EFEEA0
:020C7600EFEE9F
:020C7700EF2B61
:020C7800FEFE7E
:020C7900FEFE7D
:020C7A00F3BACB
:020C7B00BABA03
:020C7C00BAAE0E
:020C7D00BAB506
:020C7E00AEAE18
:020C7F00AEAE17
:020C8000AEB50F
:020C8100B5AE0E
:020C8200AEAE14
:020C8300AEB50C
:020C8400AEAD13
:020C8500AEAE11
:020C8600A0AE1E
:020C8700AEAD10
:020C8800A0AE1C
:020C8900AEAD0E
:020C8A00AEAC0E
:020C8B00AEAC0D
:020C8C00ACA01A
:020C8D00ACAC0D
:020C8E00C0B9EB
:020C8F00AB9E1A
:020C9000ABC0F7
:020C9100C0C0E1
:020C9200B29D11
:020C9300C0AAF5
:020C9400C0AAF4
:020C9500AAAA09
:020C9600AAAA08
:020C9700AAAA07
:020C9800A9AA07
:020C9900A9AA06
:020C9A00A9AA05
:020C9B00A9A905
:020C9C00A9A904
:020C9D00A9A903
:020C9E00A9A902
:020C9F00A9B6F4
:020CA000A9B6F3
:020CA100A8A900
:020CA200A9B6F1
:020CA300A9A8FE
:020CA400A89B0B
:020CA500B6A8EF
:020CA600A9A8FB
:020CA700A8A9FA
:020CA800A8A8FA
:020CA900B6A8EB
:020CAA00A8C4DC
:020CAB00A89C03
:020CAC00A4ACF6
:020CAD00AAAAF1
:020CAE00E9FE5D
:020CAF00FEFE47
:020CB000FEFE46
:020CB100FEFE45
:020CB200FEFE44
:020CB300FEFE43
:020CB400FEFE42
:020CB500FEFE41
:020CB600FEFE40
:020CB700FEFE3F
:020CB800FEFE3E
:020CB900F3F056
:020CBA00EFEE5B
:020CBB00EEEF5A
:020CBC00EFF255
:020CBD00F2F152
:020CBE00EFEE57
:020CBF00EEEF56
:020CC000E2EF61
:020CC100F6E259
:020CC200EFEE53
:020CC300EFEF51
:020CC400EEEF51
:020CC500EEEF50
:020CC600EEEF4F
:020CC700EEEF4E
:020CC800EEEF4D
:020CC900F6EF44
:020CCA00F6E250
:020CCB00EFEF49
:020CCC00FEFE2A
:020CCD00FEFE29
:020CCE00FE879F
:020CCF00AEBABB
:020CD000AEBABA
:020CD100B5AEBE
:020CD200AEB5BD
:020CD300B5AEBC
:020CD400B5AEBB
:020CD500AEB5BA
:020CD600B5ADBA
:020CD700AEAEBF
:020CD800B5AEB7
:020CD900ADB5B7
:020CDA00AEADBD
:020CDB00AEAEBB
:020CDC00ADAEBB
:020CDD00ACAEBB
:020CDE00C19FB4
:020CDF00ACAEB9
:020CE000ACACBA
:020CE100B99EBA
:020CE200ACACB8
:020CE300ABABB9
:020CE400ABABB8
:020CE500ABABB7
:020CE600C0C08C
:020CE700B2C099
:020CE800ABAAB5
:020CE900C0AA9F
:020CEA00AAAAB4
:020CEB00AAAAB3
:020CEC00AA9CC0
:020CED00AAA9B2
:020CEE00AAA9B1
:020CEF00AAA9B0
:020CF000B7A9A2
:020CF100A9A9AF
:020CF200A9A9AE
:020CF300A9A9AD
:020CF4009BA9BA
:020CF500A9A8AC
:020CF600A8A9AB
:020CF700A8B69D
:020CF8009BB6A9
:020CF900A9A8A8
:020CFA00B6A89A
:020CFB00A8A8A7
:020CFC00A9A8A5
:020CFD00A8B697
:020CFE00A8B696
:020CFF00B6A994
:020D0000B2AC93
:020D0100AC9CA8
:020D02009DF35F
:020D0300FEFEF2
:020D0400FEFEF1
:020D0500FEFEF0
:020D0600FEFEEF
:020D0700FEFEEE
:020D0800FEFEED
:020D0900FEFEEC
:020D0A00FEFEEB
:020D0B00FEFEEA
:020D0C00FEFEE9
:020D0D00FEFEE8
:020D0E00F1EE04
:020D0F00EFEF04
:020D1000EEEF04
:020D1100F2FEF0
:020D1200F1F0FE
:020D1300EEEF01
:020D1400F6EFF8
:020D1500EEEFFF
:020D1600EEEFFE
:020D1700EEEFFD
:020D1800EEEFFC
:020D1900EEEFFB
:020D1A00EEEFFA
:020D1B00EEEEFA
:020D1C00EFEEF8
:020D1D00EEEFF7
:020D1E00EEEFF6
:020D1F00F6E2FA
:020D2000FEFED5
:020D2100FEFED4
:020D2200FEE8E9
:020D2300BABA5A
:020D2400BAAE65
:020D2500BAB55D
:020D2600AEAE6F
:020D2700B5AE67
:020D2800B5AE66
:020D2900AEAE6C
:020D2A00B5B55D
:020D2B00AEAD6B
:020D2C00AEB562
:020D2D00AEAE68
:020D2E00ADAE68
:020D2F00ADAE67
:020D3000AEAE65
:020D3100ADAE65
:020D3200ADAE64
:020D3300AEAC64
:020D3400ACAC65
:020D3500ACAC64
:020D3600ACAC63
:020D3700ABAB64
:020D3800ABAB63
:020D3900ABC04D
:020D3A00B2B253
:020D3B00C0B244
:020D3C00AAAA61
:020D3D00C0AA4A
:020D3E00AAAA5F
:020D3F00AAAA5E
:020D4000B7AA50
:020D4100AAA95D
:020D4200AAA95C
:020D4300A9AA5B
:020D4400A9A95B
:020D4500A9A95A
:020D4600A9A959
:020D4700A9A958
:020D4800A9A858
:020D4900A9A956
:020D4A00A89B64
:020D4B00A9B647
:020D4C00B6B639
:020D4D00B6A945
:020D4E00A89B60
:020D4F00B6A844
:020D5000A8A851
:020D5100A8A850
:020D5200A8B641
:020D5300A8A94D
:020D5400B2A447
:020D5500ACB23E
:020D5600A99C56
:020D5700FEFE9E
:020D5800FEFE9D
:020D5900FEFE9C
:020D5A00FEFE9B
:020D5B00FEFE9A
:020D5C00FEFE99
:020D5D00FEFE98
:020D5E00FEFE97
:020D5F00FEFE96
:020D6000FEFE95
:020D6100FEFE94
:020D6200FEF1A0
:020D6300EEEEB2
:020D6400EFEEB0
:020D6500EFF0AD
:020D6600F3F2A6
:020D6700F0EEAC
:020D6800EFEEAC
:020D6900EF2B6E
:020D6A00EFEEAA
:020D6B00EFEEA9
:020D6C00EFEEA8
:020D6D00EFF69F
:020D6E00EFEEA6
:020D6F00EFF69D
:020D7000EFF69C
:020D7100EFEEA3
:020D7200EFEEA2
:020D7300EFEEA1
:020D7400FEFE81
:020D7500FEFE80
:020D7600FEF38A
:020D7700A1AE2B
:020D7800C2AE09
:020D7900B5AE15
:020D7A00B5AE14
:020D7B00AEB513
:020D7C00AEB512
:020D7D00B5AD12
:020D7E00B5A01E
:020D7F00B5AD10
:020D8000B5AD0F
:020D8100ADAE15
:020D8200B5AE0C
:020D8300ADAD14
:020D8400AEAD12
:020D8500AEAD11
:020D8600AEAC11
:020D8700AEAD0F
:020D8800AEA01B
:020D8900ACAC10
:020D8A00ACB902
:020D8B00ACAB0F
:020D8C00ABAB0F
:020D8D00ABAB0E
:020D8E00ABC0F8
:020D8F00B2C0F0
:020D9000C0B2EF
:020D9100AAC0F6
:020D9200AAAA0B
:020D9300AAAA0A
:020D9400AAAA09
:020D9500AAA909
:020D9600AAA908
:020D9700AAA907
:020D9800A9B7F9
:020D9900A9A906
:020D9A00A9A905
:020D9B00A9A904
:020D9C00A9A903
:020D9D00A8A903
:020D9E00A9B6F4
:020D9F00B69B01
:020DA000B69B00
:020DA100A8A800
:020DA200B6B6E3
:020DA300B69AFE
:020DA400A8A8FD
:020DA500A8B6EE
:020DA600B6A8ED
:020DA700B6A8EC
:020DA8009BB2FC
:020DA900A4AAFA
:020DAA00B7A9E7
:020DAB00E7FE61
:020DAC00FEFE49
:020DAD00FEFE48
:020DAE00FEFE47
:020DAF00FEFE46
:020DB000FEFE45
:020DB100FEFE44
:020DB200FEFE43
:020DB300FEFE42
:020DB400FEFE41
:020DB500FEFE40
:020DB600FEFE3F
:020DB700F1EF5A
:020DB800EEEE5D
:020DB900EEEF5B
:020DBA00F0F156
:020DBB00F3F053
:020DBC00EFEF57
:020DBD00EFE263
:020DBE00EF2B19
:020DBF00EFEE55
:020DC000EFF64C
:020DC100E2EE60
:020DC200EFEE52
:020DC300EFEE51
:020DC400EFEE50
:020DC500EFEE4F
:020DC600EEEE4F
:020DC700EFEE4D
:020DC800FEFE2D
:020DC900FEFE2C
:020DCA00FEF336
:020DCB00BBBAB1
:020DCC00AEAEC9
:020DCD00BAAEBC
:020DCE00B5AEC0
:020DCF00AEB5BF
:020DD000AEAEC5
:020DD100AEAEC4
:020DD200B5AEBC
:020DD300B5AEBB
:020DD400A0B5C8
:020DD500B5A0C7
:020DD600B4AEB9
:020DD700ADAEBF
:020DD800ADAEBE
:020DD900AEADBD
:020DDA00AEADBC
:020DDB00ACADBD
:020DDC00ACADBC
:020DDD00ACACBC
:020DDE009EABCA
:020DDF00ACABBB
:020DE000ABABBB
:020DE100ABC0A5
:020DE200ABC0A4
:020DE300B29DBF
:020DE400AAABB8
:020DE500AAAAB8
:020DE600AAAAB7
:020DE700AA9CC4
:020DE800AAB7A8
:020DE900AAAAB4
:020DEA00AAA9B4
:020DEB00A9AAB3
:020DEC00A9A9B3
:020DED00A9B7A4
:020DEE00A9A9B1
:020DEF00A9A9B0
:020DF000A9A9AF
:020DF100A9A8AF
:020DF200A9A9AD
:020DF300B6B692
:020DF400A9B69E
:020DF500A9A8AB
:020DF600A9A8AA
:020DF700B6A89C
:020DF8009AA8B7
:020DF900A9A8A7
:020DFA00A8A8A7
:020DFB00B6B68A
:020DFC00B6B788
:020DFD00B2AA98
:020DFE00A9A9A1
:020DFF009BF364
:020E0000FEFEF4
:020E0100FEFEF3
:020E0200FEFEF2
:020E0300FEFEF1
:020E0400FEFEF0
:020E0500FEFEEF
:020E0600FEFEEE
:020E0700FEFEED
:020E0800FEFEEC
:020E0900FEFEEB
:020E0A00FEFEEA
:020E0B00FEF1F6
:020E0C00EFEF06
:020E0D00EEEE07
:020E0E00EEF004
:020E0F00F1F3FD
:020E1000F2EFFF
:020E1100F6EEFB
:020E1200EFEF00
:020E1300EEEF00
:020E1400EEEFFF
:020E1500EFEFFD
:020E1600EEEFFD
:020E1700EEEFFC
:020E1800EEEFFB
:020E1900EEEFFA
:020E1A00E2EF05
:020E1B00EEEFF8
:020E1C00FEFED8
:020E1D00FEFED7
:020E1E00FEFED6
:020E1F00E7AE3C
:020E2000C2AE60
:020E2100B5B565
:020E2200AEB56B
:020E2300B5AE6A
:020E2400ADB56A
:020E2500B5AD69
:020E2600B5AE67
:020E2700ADB567
:020E2800B5AD66
:020E2900B5AE64
:020E2A00AEB563
:020E2B00AEAD6A
:020E2C00AEAD69
:020E2D00AEAD68
:020E2E00AEAC68
:020E2F00AEAD66
:020E3000ACAE66
:020E3100ACAC67
:020E3200ACB959
:020E3300ACAB66
:020E3400ABAB66
:020E3500ABAB65
:020E3600B2AB5D
:020E3700C0C039
:020E3800B2C046
:020E3900AAC04D
:020E3A00AAAA62
:020E3B00AAAA61
:020E3C00AAAA60
:020E3D00A9AA60
:020E3E00A9AA5F
:020E3F00AAA95E
:020E4000AAAA5C
:020E4100A9A95D
:020E4200A9A95C
:020E4300A9A95B
:020E4400A8A95B
:020E4500A9A959
:020E4600A8A959
:020E4700A8A958
:020E4800B6A84A
:020E4900B6A948
:020E4A00B6B63A
:020E4B00A8B647
:020E4C00B6A846
:020E4D00A8A853
:020E4E00A9A851
:020E4F00A8A851
:020E5000A89B5D
:020E51009BAA5A
:020E5200AAB73D
:020E5300A99B59
:020E5400F3FEAB
:020E5500FEFE9F
:020E5600FEFE9E
:020E5700FEFE9D
:020E5800FEFE9C
:020E5900FEFE9B
:020E5A00FEFE9A
:020E5B00FEFE99
:020E5C00FEFE98
:020E5D00FEFE97
:020E5E00FEFE96
:020E5F00FEFE95
:020E6000F3F1AC
:020E6100EEEFB2
:020E6200EEEEB2
:020E6300EFF0AE
:020E6400F2E9B1
:020E6500F1EFAB
:020E6600EFEEAD
:020E6700EF2B6F
:020E6800EFEEAB
:020E6900F6EFA2
:020E6A00EEEFA9
:020E6B00EEEFA8
:020E6C00EEEFA7
:020E6D00EEEFA6
:020E6E00EEEFA5
:020E6F00EEEFA4
:020E7000FEFE84
:020E7100FEFE83
:020E7200FEFE82
:020E7300F3BAD0
:020E7400AEAE20
:020E7500BAB50C
:020E7600AEAE1E
:020E7700B5B50F
:020E7800AEAE1C
:020E7900ADAE1C
:020E7A00B5AD14
:020E7B00AEAD1A
:020E7C00AEAE18
:020E7D00ADAD19
:020E7E00AE9F25
:020E7F00B5AD0F
:020E8000AEAD15
:020E8100AEAD14
:020E8200AEAD13
:020E8300ACAD14
:020E8400ACAD13
:020E8500AC9F20
:020E8600ACAC12
:020E8700ACAB12
:020E8800ABAB12
:020E8900C0ABFC
:020E8A00C0ABFB
:020E8B00B2C0F3
:020E8C00C0B2F2
:020E8D00AAC0F9
:020E8E00AAAA0E
:020E8F00AAAA0D
:020E90009CAA1A
:020E9100AAAA0B
:020E9200A9AA0B
:020E9300A9A90B
:020E9400A9A90A
:020E9500A9B7FB
:020E9600A9A908
:020E9700A9A907
:020E9800A9A906
:020E9900A8A906
:020E9A00A99B12
:020E9B00B6A9F6
:020E9C009BA910
:020E9D00B6A8F5
:020E9E00A9A801
:020E9F00B6A8F3
:020EA000A8A800
:020EA100A8A8FF
:020EA2009BA80B
:020EA300A8B6EF
:020EA400B6A8EE
:020EA500A9A9F9
:020EA600B2ABED
:020EA700B79BF7
:020EA800B7F39E
:020EA900FEFE4B
:020EAA00FEFE4A
:020EAB00FEFE49
:020EAC00FEFE48
:020EAD00FEFE47
:020EAE00FEFE46
:020EAF00FEFE45
:020EB000FEFE44
:020EB100FEFE43
:020EB200FEFE42
:020EB300FEFE41
:020EB400FEFE40
:020EB500F1EE5C
:020EB600EFEE5D
:020EB700E22B2C
:020EB800F0F157
:020EB900F2F154
:020EBA00EFEF58
:020EBB00EFE264
:020EBC00EFE263
:020EBD00EFEE56
:020EBE00EFEE55
:020EBF00EFEE54
:020EC000EFEE53
:020EC100EFEE52
:020EC200EEEF51
:020EC300EEEF50
:020EC400FEFE30
:020EC500FEFE2F
:020EC600FEFE2E
:020EC700FEBA71
:020EC800AEB5C5
:020EC900AEAECB
:020ECA00B5B5BC
:020ECB00AEAEC9
:020ECC00AEB5C1
:020ECD00B5ADC1
:020ECE00AEAEC6
:020ECF00B5ADBF
:020ED000AEADC5
:020ED100AEADC4
:020ED200B5AEBB
:020ED300ADAEC2
:020ED400ADAEC1
:020ED500ADAEC0
:020ED600ADADC0
:020ED700AEADBE
:020ED800AEACBE
:020ED900ADAEBC
:020EDA00ACA0CA
:020EDB00ACACBD
:020EDC00C0ABA9
:020EDD00ABABBD
:020EDE00ABC0A7
:020EDF00B2C09F
:020EE000B2C09E
:020EE100B2AAB3
:020EE200C0C08E
:020EE300AAAAB9
:020EE400AAB7AB
:020EE500AAAAB7
:020EE600AAA9B7
:020EE700AAAAB5
:020EE800A9AAB5
:020EE900A9B7A7
:020EEA00A9A9B4
:020EEB00A9A9B3
:020EEC00A9A9B2
:020EED009BA8C0
:020EEE00A9A9B0
:020EEF00B6A9A2
:020EF000B6B694
:020EF100A9B6A0
:020EF2009BA8BB
:020EF3009BB6AC
:020EF400B6A89E
:020EF5009BA8B8
:020EF600B6A99B
:020EF700A8A8A9
:020EF800A8A8A8
:020EF9009A9BC2
:020EFA009BB2A9
:020EFB00B2B78C
:020EFC009BABAE
:020EFD00FEFEF7
:020EFE00FEFEF6
:020EFF00FEFEF5
:020F0000FEFEF3
:020F0100FEFEF2
:020F0200FEFEF1
:020F0300FEFEF0
:020F0400FEFEEF
:020F0500FEFEEE
:020F0600FEFEED
:020F0700FEFEEC
:020F0800FEFEEB
:020F0900FEF2F6
:020F0A00EFEF07
:020F0B00EFE114
:020F0C00EFEF05
:020F0D00F0F200
:020F0E00FDF2F2
:020F0F00EFEF02
:020F100039EFB7
:020F1100F6EFF9
:020F1200F6EFF8
:020F1300EEEFFF
:020F1400EFEEFE
:020F1500EFEFFC
:020F1600EEEFFC
:020F1700EEEFFB
:020F1800FEFEDB
:020F1900FEFEDA
:020F1A00FEFED9
:020F1B00FEF1E5
:020F1C00BAAE6B
:020F1D00B5AE6F
:020F1E00AEB56E
:020F1F00AEB56D
:020F2000A0B57A
:020F2100B5AE6B
:020F2200B59F79
:020F2300B5AE69
:020F2400ADB569
:020F2500ADAE6F
:020F2600ADAD6F
:020F2700AEAE6C
:020F2800ADAE6C
:020F2900ADAE6B
:020F2A00AEAD6A
:020F2B009FAD78
:020F2C00AD9F77
:020F2D00ACAC6A
:020F2E00ACAC69
:020F2F00ACB95B
:020F3000ABAB69
:020F3100C0AB53
:020F3200ABC052
:020F3300C0C03C
:020F3400B2C049
:020F3500AAB25E
:020F3600AAAA65
:020F3700AAAA64
:020F3800AAAA63
:020F3900AAB755
:020F3A00AAAA61
:020F3B00A9AA61
:020F3C00A9B753
:020F3D00A99C6D
:020F3E00A9A95F
:020F3F00A9A95E
:020F4000A9A95D
:020F4100A9A95C
:020F4200B6A94E
:020F4300A9A95A
:020F4400A9B64C
:020F4500A9B64B
:020F4600A8B64B
:020F4700A9A857
:020F48009BB656
:020F4900A8A856
:020F4A00A8A855
:020F4B009BA861
:020F4C00A8B645
:020F4D00A8B644
:020F4E00A9B246
:020F4F00A4AB51
:020F50009CA95A
:020F51009DFE03
:020F5200FEFEA1
:020F5300FEFEA0
:020F5400FEFE9F
:020F5500FEFE9E
:020F5600FEFE9D
:020F5700FEFE9C
:020F5800FEFE9B
:020F5900FEFE9A
:020F5A00FEFE99
:020F5B00FEFE98
:020F5C00FEFE97
:020F5D00FEFE96
:020F5E00F2F0AF
:020F5F00F6E2B8
:020F6000F6EFAA
:020F6100EEE2BE
:020F6200F0FDA0
:020F6300FEF19D
:020F6400F0EFAC
:020F6500EFEFAC
:020F6600EEF6A5
:020F6700EFEEAB
:020F6800EEEEAB
:020F6900EEF6A2
:020F6A00EFEEA8
:020F6B00EFF69F
:020F6C00FEFE87
:020F6D00FEFE86
:020F6E00FEFE85
:020F6F00FEE79B
:020F7000BABA0B
:020F7100AEAE22
:020F7200B5AE1A
:020F7300B5B512
:020F7400B5AE18
:020F7500ADB518
:020F7600AEB516
:020F7700ADB516
:020F7800ADAE1C
:020F7900ADAE1B
:020F7A00ADB513
:020F7B00ADAE19
:020F7C00ADAE18
:020F7D00ADAD18
:020F7E00AEAD16
:020F7F00AEAC16
:020F8000AEAC15
:020F8100ACAD15
:020F8200ACAC15
:020F8300ACAB15
:020F8400ABAB15
:020F8500ABC0FF
:020F86009DAB21
:020F8700B2C0F6
:020F8800B2C0F5
:020F8900AAC0FC
:020F8A00C0AAFB
:020F8B00AAAA10
:020F8C00AAAA0F
:020F8D00AA9C1C
:020F8E00AAA90E
:020F8F00AAA90D
:020F9000AAAA0B
:020F9100A9A90C
:020F9200A9A90B
:020F9300A9A90A
:020F9400A9A909
:020F9500A9A908
:020F9600A99B15
:020F9700A8A907
:020F9800B6A9F8
:020F9900B6A9F7
:020F9A00A9A804
:020F9B00B6A9F5
:020F9C00A9A802
:020F9D00A8A802
:020F9E00A8A801
:020F9F00A8A800
